:020000040800F2
:10000000A0090020C5000008551900083D1000088F
:1000100000000000000000000000000000000000E0
:100020000000000000000000000000001D2A000881
:100030000000000000000000A9190008D12B0008F2
:10004000F5000008F5000008F5000008F5000008BC
:10005000F5000008F5000008F5000008F5000008AC
:1000600000000000A5060008F5000008F5000008E3
:10007000F5000008352C0008F5000008552C000894
:10008000712C00080000000000000000F5000008CE
:1000900000000000F5000008F5000008F500000869
:1000A00000000000F500000800000000F500000856
:1000B0000348854600F05CF80048004759340008C2
:1000C000A00900200C4880F308880C480168090E3C
:1000D0000B4A914205D10B480B4901600B480C4972
:1000E00001600C4880470C480047FEE7FEE7FEE74A
:1000F000FEE7FEE7FEE70000A00900200400000084
:100100001F00000018100240010000000000014024
:1001100000000000D52B0008B100000830B50B46E8
:10012000014600202022012409E00D46D5409D42D1
:1001300005D31D469540491B254695404019154657
:10014000521E002DF1DC30BD70B50024254600287C
:1001500001DA01244042002901DA01254942FFF772
:10016000DDFFAC4200D04042002C00D0494270BDBF
:10017000064C0125064E05E0E36807CC2B430C3CFA
:1001800098471034B442F7D3FFF796FFF8370008CA
:1001900018380008F8B5194D0026194C194F6E6033
:1001A00027E019480178002923D006701348001D64
:1001B00000F05AFE7D206968C000814202D92068A3
:1001C000401E03E0814202D22068401C20600F489C
:1001D0002168814201DB206002E0002900DC26600A
:1001E000208881B2002000F045FA0121002000F0B3
:1001F0004BFA6868C0196528D3D2F8BD9400002076
:10020000540000204AFCFFFF00000020FF0F000008
:10021000836A0B438362426170470029816801D081
:10022000012200E002221143816070470029C16869
:1002300002D00122114301E049084900C160704722
:10024000C26802239A43C260C2680A43C260704710
:10025000064910B5884208D144150121204601F015
:1002600031FC0021204601F02DFC10BD002401408E
:10027000826800210123DB071A4382600F231B03DE
:100280008268491CD20FD207994201D0002AF7D1C7
:100290008168002901DB006C70470020704702462E
:1002A0000020CB0104D5926801231B069A4300E08D
:1002B00012680A4200D001207047000030B5C368C0
:1002C000084A8C6813400A680D792243CC686D0394
:1002D0002C4322430C69496922430A431A43C260F2
:1002E00030BD000003D2FFFF012212030029C168C4
:1002F00001D0114300E09143C1607047816804223E
:100300001143816070470021016001718160C1600B
:100310000161416170470000F8B55C4E307A2128D8
:100320007ED15B483321027A01231F270025594CD7
:10033000212A02D1C079012804D05748027A212A03
:1003400022D084E06079332802D06171758107E0A2
:1003500034206071FAE7012000F0A6F80120E07176
:100360004A4801F045FD012804D1494801F040FD0B
:100370000128F0D0474801223C21401D02F070FFC7
:100380003772758142487DE04348C07901285ED1CB
:100390007D20424AC00010606082617140490A229B
:1003A0000F704A80606232202082637003E0022076
:1003B00000F07AF8E571354801F01AFD012804D102
:1003C000354801F015FD0128F1D004220A213448F6
:1003D00002F046FF324804221421801C02F040FF44
:1003E00004221E212D4802F03BFF2A480422282126
:1003F000123002F035FF274804223221243002F067
:100400002FFF244801223C21401D02F029FF2148F2
:1004100001224621401C02F023FF0222502100E06D
:1004200032E01C48103002F01BFF377235611A4869
:10043000758107724581A08C81B2002000F01AF905
:100440000121002000F020F9307A21281CD1154824
:10045000017A212918D1C079012815D1A56203E0BC
:10046000032000F021F8E571084801F0C1FC0128E3
:1004700004D10C4801F0BCFC0128F1D03772356181
:100480000848758145810772F8BD00003C050020D1
:100490007C050020300000201C0500208800002082
:1004A0008C0000205C05002070B500221449012852
:1004B00005D0472302280ED0032813D018E0114896
:1004C0000F240578632007230C704870332D8B7040
:1004D0000DD1372004E00B700B20487062238B7025
:1004E000C87005E00B706D2048700E208870CA70CF
:1004F0000A714A718A71CA7101F0E2FC70BD000094
:100500001005002035000020FEB5314C2F48012198
:1005100089022060A1800D23A371002161812161E6
:10052000E171152727771F2222722A4E6422A661C5
:10053000626125462035012212032860AA80AB7132
:1005400069812961E9712F771F222A72AE616422C5
:100550006A61224640320126B6031060968093718C
:1005600051811161D17117771F2616726426566169
:100570007D263601966116462036012252033060F0
:10058000B280B37171813161F17137771F2232729C
:10059000642272617D221201B2611D2292020092D8
:1005A0006A46117151710221D171694600F00AFC4D
:1005B0006946306800F006FC6946286800F002FCD5
:1005C0006946206800F0FEFBFEBD00000004004804
:1005D0001C05002070170000054B0122824018689E
:1005E000002901D0104300E09043186070470000DC
:1005F000007400401CB50121480401F033FA0121C8
:10060000480701F03BFA1020009003216846017171
:1006100000214171C17109206946C00600F0D2FB7A
:100620001CBD000030B5074C2368074A8240934345
:1006300024C92A430D6849680D432A4382401A435E
:10064000226030BD00740040FE0F00001FB5FFF7B0
:10065000D1FF3C20009000210B200002019103916A
:10066000029069460020FFF7DDFF01210020FFF71F
:10067000B3FF1FBD034A08B5101808300090016091
:1006800008BD00000074004003090120044A98409E
:100690000029516801D0014300E081435160704757
:1006A00000740040F8B5022000F0D6F8002841D0D0
:1006B00022480021224C415EA078224B82009950B2
:1006C000A268401C8918C0B2A160A070032831D96B
:1006D0000025A5708808A5600126E0601A4A2670EA
:1006E000515F1A4F884201D33E7005E0184A1288C4
:1006F000891A814200D33D7016484168491C416007
:1007000002F08EF96078144A00280CD1387801285C
:1007100009D11248124B0168491C01601B689942BB
:1007200001D3167005600F481178007801F098FF2A
:1007300038786070022000F017F8F8BDB80000208B
:1007400000000020F80000204200002030000020BF
:10075000400000208C0000203300002058000020C2
:100760008800002032000020C10001D5024900E0CD
:100770000249486070470000000402400000024047
:100780000029016802D00122114301E0014A114011
:1007900001607047FEFF0000F0B501682B4A114070
:1007A00001600021016041608160C1602849284BDF
:1007B00008390F22984201D1486823E0244CF023E5
:1007C0001434A04229D0224D1C012835A8422BD038
:1007D0001F4E1D023C36B0422DD01D4F1E03503718
:1007E000B8422FD01A4F6437B84204D148681A046F
:1007F00008E04860F0BD164F7837B84204D1486829
:100800000F2212061043F4E71249124F0839B8427A
:10081000D2D0104A1432904202D148681843E8E717
:100820000C4A2832904202D148682043E1E7094A45
:100830003C32904202D148682843DAE7054A5032F8
:100840009042D7D148683043D3E70000FEFF000054
:10085000080002400804024001460020CA0001D5F9
:10086000034A00E0034A12680A4200D001207047A0
:100870000004024000000240002A026801D00A433E
:1008800000E08A430260704730B503680C4A0C6A86
:1008900013408A684D6922430C692C4322438C69BA
:1008A0002243CC6922434C6A22438C6A22431A4376
:1008B0000260CA6842600A6882604968C16030BDEF
:1008C0000F80FFFF0021016041608160C160016114
:1008D00041618161C16101624162816270470000D2
:1008E000F8B5434C00266079424D434F332837D149
:1008F00029460A200A7A285E3946C979002802D09A
:10090000202A04D03AE0A672202A06D036E0012838
:1009100006D0022809D003280CD004280FD02DE0DF
:1009200000292BD10120A0725BE0002926D10220F2
:10093000A07259E0002921D10320A07227E00029EC
:100940001CD16E81A67249E0287A212805D1387A17
:10095000212802D1F87901281CD00120FFF7A4FD3D
:10096000E8790128F0D02548C0790128ECD0F87941
:100970000128E9D02248C0790128E5D0A07A0028D2
:100980002CD001282DD002282ED0032801D100F030
:1009900039F8F8BD6079332804D033206071E671EE
:1009A0006E8105E034206071FAE70120FFF77CFDDD
:1009B000104801F01DFA012804D10F4801F018FA7F
:1009C0000128F2D00A4801223C21401D02F048FCD7
:1009D0001F2028726E817E813872C1E700F0ACF86A
:1009E000F8BD00F04FF9F8BD00F042F9F8BD000085
:1009F000300000203C0500207C0500201C05002064
:100A00005C050020F8B5474C0021208A00B201F0B7
:100A1000C1FA4548E179C079084377D16079332834
:100A200074D1268A414D30B2608300900A20285E3E
:100A3000A17B0027884202D0297A202903D0E879B7
:100A4000012803D005E0A0736F8118E0287A2128DF
:100A50000ED020202872364E0A20305EA17B8842BC
:100A600002D0307A20281DD0F07901281CD01EE059
:100A70006F8130492869884204D814210AE0761C25
:100A80002682E8E72B49C94342182A49491E8A426F
:100A900005D80A21FFF742FB0029F0D0DBE7C007A9
:100AA000EDD0D8E7778114E0307A21280AD02020D1
:100AB00030721221615E0098884227D0F0790028B8
:100AC0001BD023E077811B493069884205D214216D
:100AD0000BE0208A401E2082EBE71649C9434218EA
:100AE0001449491E8A4205D20A21FFF717FB002943
:100AF000EFD0DEE7C007ECD0DBE7E879002805D1CE
:100B0000084802225021103002F0AAFB218AFF205F
:100B10002D30814201D32082F8BD1E29FCD81E2031
:100B2000F9E70000300000203C0500205C050020B3
:100B30007C05002070170000F8B5484C208C01B2ED
:100B40001220205E01F0BEFC4548E179C079002703
:100B50000843002876D16079332873D11226A65F26
:100B60002683404D00960A20285E217B884202D0D1
:100B7000297A202903D0E879012803D005E02073E1
:100B80006F8118E0287A21280ED020202872364E56
:100B90000A20305E217B884202D0307A20281DD086
:100BA000F07901281CD01EE06F8130492869884205
:100BB00004D814210AE0761C6682E8E72B49C94371
:100BC00042182A49491E8A4205D80A21FFF7A6FA87
:100BD0000029F0D0DBE7C007EDD0D8E7778114E03B
:100BE000307A21280AD0202030721221615E0098CC
:100BF000884227D0F07900281BD023E077811B4959
:100C00003069884205D214210BE0608A401E608260
:100C1000EBE71649C94342181449491E8A4205D2D6
:100C20000A21FFF77BFA0029EFD0DEE7C007ECD0FE
:100C3000DBE7E879002805D1084804222821123092
:100C400002F00EFB1221615E7D204001814201DB3A
:100C50006082F8BD0029FCDC6782F8BD300000200E
:100C60003C0500205C0500207C050020701700007A
:100C700010B50348008D00B201F098FC10BD0000D3
:100C80003000002070B51A4C607801F0D3FC194890
:100C90000A21415E627B0126002591420ED0027A34
:100CA000202A0BD161734581607800281BD06570C4
:100CB0000F4801224621401C02F0D2FA0E480A21B8
:100CC000415E627B91420DD0017A20290AD1458193
:100CD0006078002809D06570054801224621401C33
:100CE00002F0BEFA70BD6670E2E76670F4E70000DD
:100CF000300000205C0500207C05002000B50D4977
:100D00000D4800F01DF80B4842780178120289184E
:100D10008278C07812040006101809180548074A9E
:100D200020384162126882628A4201D1012000BDEE
:100D3000002000BD20000020EC0000200080000802
:100D400030B51F4A53691C79047053691B7A43708C
:100D500053695B7883705369DB78C37053691D787E
:100D600005715D7945719D7A8571DD79C5715D7A11
:100D700005729D784572DD7A85729B79C37293699D
:100D80001B7863400B70936984795B78057A6340C4
:100D9000C4796C406340447A6340847A6340C47A87
:100DA00063404B70936904799B7863408B709269C0
:100DB0008378D27840785A404240CA7030BD0000F3
:100DC00000000020F0B50022012423460D68934066
:100DD0001D409D422AD10D79012D01D0022D12D145
:100DE000876855000326AE40B74387604E79AE4012
:100DF00085682E43866085889D43858085888B79AC
:100E000093401D438580066855000323AB409E43F5
:100E100006600E790768AE403E430660C6689E4392
:100E2000C660CB79AB40C5682B43C360521C102A07
:100E3000CBD3F0BD0246128A00200A4200D0012026
:100E400070470000044901600021017101224271D4
:100E50008171C17170470000FFFF0000002A01D0BE
:100E600081617047018570470149096801607047D9
:100E70000C00002010B502F0B1F90028FBD0264884
:100E800002F019F804220A21244802F0B3F90028DC
:100E9000F8D0224C04221421A01C02F0ABF9002847
:100EA000F8D004221E211E4802F0A4F90028F8D030
:100EB000042228211B4802F09DF90028F8D0194887
:100EC00004223221123002F095F90028F7D015489B
:100ED00001223C210D3802F08DF90028F7D011488D
:100EE00001224621113802F085F90028F7D00D487B
:100EF00002225021801E02F07DF90028F7D0094817
:100F00001238808C81B20020FFF7B4FB0121002051
:100F1000FFF7BAFB10BD0000701700008C00002026
:100F2000880000204200002010B5002404E00A21BF
:100F3000FFF7F4F8641CE4B20028F8D1204610BD95
:100F4000F8B50020374C0090374D206120E037483D
:100F50000168002001F0A2FB17E06846FFF784FF5C
:100F600000982169884200D32061314E3078C10653
:100F700008D5EF21084030702C4800220168104647
:100F800001F0F4FB287A212806D0E8790128E4D082
:100F900020780028DBD0F8BD25480178CA063AD56C
:100FA000EF221140017000221146012001F0DEFB0A
:100FB00031E02069A060616801260818400809270F
:100FC0007602FF06E06031463846FFF733FF0246FF
:100FD00031463846FFF742FF761031463846FFF774
:100FE00029FF024631463846FFF738FF1149A089EC
:100FF00008800120207000206881E8711F2028727D
:101000000848042228210C3002F02AF90422322157
:10101000094802F025F9287A2128B6D1E879002874
:10102000BAD1C6E7940000201C050020680000200B
:10103000380000204200002054000020FEE700009D
:101040007CB50121480400F00DFD0121880400F069
:1010500009FD0121C80400F005FD0121080500F08B
:1010600001FD0121480500F0FDFC0121880500F08B
:10107000F9FC6846FFF7E6FE03200002009001201D
:101080006946087100248C7103224A710925C871D0
:10109000ED062846FFF796FE69462846FFF792FEC2
:1010A0000120C002009069460C714C71CC7102485D
:1010B000FFF788FE7CBD00000004004810B55D20ED
:1010C00000F02CFE002801D000F008FD074800F0D9
:1010D0002BF8042000F01CF87D20000100F01EF821
:1010E00000F00EF800F004F810BD000055550000A7
:1010F0000249014808607047CCCC00000030004035
:101100000249014808607047AAAA00000030004068
:101110000149486070470000003000400149886084
:10112000704700000030004001490860704700002F
:1011300000300040F8B5484800F05AFE464C012502
:101140000026012805D0204600F052FE002805D0D8
:1011500005E02069401C2061E57100E0E67120692E
:10116000002802D0E179002905D0A169884205D97B
:10117000E079012802D1384800F017FC36482038C1
:1011800000F036FE344F203F012805D0384600F0ED
:101190002FFE002805D005E03869401C3861FD713C
:1011A00000E0FE713869002802D0F979002905D0E5
:1011B000A169884206D9F879012803D12648203848
:1011C00000F0F3FB2448203000F012FE224C2034C3
:1011D000012805D0204600F00BFE002805D005E0D0
:1011E0002069401C2061E57100E0E671206900285B
:1011F00002D0E179002905D0A169884206D9E079B9
:10120000012803D11448203000F0CFFB12484030B1
:1012100000F0EEFD104F4037012805D0384600F0B1
:10122000E7FD002805D005E03869401C3861FD71F4
:1012300000E0FE713869002802D0F979002905D054
:10124000A169884206D9F879012803D102484030C3
:1012500000F0ABFBF8BD00003C050020F8B5364CB3
:10126000A06800F053FE35480A21415EA278344E52
:1012700020270025914202D0027A202A03D0C1798A
:10128000012903D005E0A170458116E0017A2129EA
:101290000DD007722B480A21415EA278914202D0FC
:1012A000017A20291DD0C17901291CD01EE0458179
:1012B0000069B04205D214210BE0A068401CA06078
:1012C000E8E71F49C94342181D49491E8A4205D211
:1012D0000A21FEF723FF0029EFD0DBE7C007ECD09F
:1012E000D8E745810EE0017A212905D00772A06870
:1012F00000281BDCA560F8BD45810069B04205D21D
:1013000014210BE0A068401EA060F0E70C49C9431F
:1013100042180B49491E8A4205D20A21FEF7FEFEF9
:101320000029EFD0E3E7C007ECD0E0E706498842A8
:10133000E1DBA160F8BD0000800000205C0500201A
:10134000701700007C0500200F270000F8B55B4DEA
:101350005B4E5C4F5C4C29E000F0EAFA0A20285E04
:10136000E17888420CD0297A202909D1E070002048
:1013700068812178491C49B22170032900DD207061
:101380000A20305EE17888420CD0307A202809D1DA
:10139000002070812078401E40B22070002801DAC1
:1013A000032020700A20385E03282BDA20780028DA
:1013B000D2D027E000F08AF80A21695EE078814205
:1013C0000BD0297A202908D1002169812278521C6A
:1013D00052B22270032A00DD21700A21715E81421F
:1013E0000CD0307A202809D1002070812078401E4E
:1013F00040B22070002801DA032020700A20385EF5
:1014000003282BDC20780128D4D027E000F01EF937
:101410000A21695EE07881420BD0297A202908D11F
:10142000002169812278521C52B22270032A00DD09
:1014300021700A21715E81420CD0307A202809D1B6
:10144000002070812078401E40B22070002801DA10
:10145000032020700A20385E03282BDC2078022825
:10146000D4D027E000F0ACF90A20285EE178884269
:101470000BD0287A202808D100226A812078401CCD
:1014800040B22070032800DD22700A20305E8842BE
:101490000CD0307A202809D1002070812078401E9D
:1014A00040B22070002801DA032020700A20385E44
:1014B000032802DC20780328D4D0F8BD5C05002086
:1014C0007C0500203C05002080000020F8B5584C29
:1014D000EF2720780025C106564E002903DA384050
:1014E000207000F0DDFD9AE0534920200870534839
:1014F000C079002803D15248C079002807D020784D
:101500004D49384020700220085E002108E0207814
:10151000C10607D53840207047490220085E0121E6
:1015200000F0DEFD444A45480A210C3A415E12793A
:10153000914202D0027A202A03D0C179012909D030
:101540000BE03D4A0C3A117145813B484188491CEA
:10155000418004E0017A212910D02021017236490E
:1015600037480A220C39825E09798A4202D0017A10
:1015700020291FD0C17901291ED020E045810069B2
:101580003049884206D214210CE02B494888401C7F
:101590004880E4E72B49C94342182A49491E8A4238
:1015A00005D20A21FEF7BAFD0029EED0D7E7C00721
:1015B000EBD0D4E7458116E0017A212909D020211A
:1015C00001721D480222825E1F498A4224DB41804B
:1015D00025E0458100691B49884209D21421FEF7A4
:1015E0009DFD0029EDD114484188491E4180E8E75E
:1015F0001449C94342181349491E8A4209D20A2193
:10160000FEF78CFD0029DCD10B494888401E48803C
:10161000D7E7C007F8D0D4E7002A00DC4580307A4D
:10162000202803D17089042800D15DE7F8BD0000AF
:10163000380000203C0500208C0000205C050020C4
:101640007C050020701700000F270000F8B5554CEE
:10165000EF2720780025C106534E002903DA3840D1
:10166000207000F0C3FD94E05048212101705048E3
:10167000C079002803D14F48C079002808D02078CD
:10168000DF210840207049490220085E002108E05F
:101690002078C10607D53840207044490220085EF2
:1016A000012100F0C3FD414A41480A210C3A415E44
:1016B0005279914202D0027A202A03D0C1790129BD
:1016C00005D007E0394A0C3A517145811AE0017A98
:1016D000212910D020210172344936480A220C39C0
:1016E000825E49798A4202D0017A20291FD0C179CD
:1016F000012922D024E0458100692F49884206D281
:1017000014210CE029484188491C4180E4E72A491A
:10171000C94342182849491E8A4205D20A21FEF7C8
:10172000FDFC0029EED0D7E7C007EBD0D4E71F4976
:1017300045814888401E488004E0017A212909D06B
:101740002021017219480222825E1C498A421DDB57
:1017500041801EE0458100691749884206D2142164
:101760000CE012484188491E4180EBE71249C94309
:1017700042181149491E8A4205D20A21FEF7CEFCC1
:101780000029EED0DEE7C007EBD0DBE7002A00DC63
:101790004580307A202803D17089042800D163E77E
:1017A000F8BD0000380000203C0500208C0000201F
:1017B0005C0500207C050020701700000F2700004A
:1017C000F8B5544CEF2720780025C106524E002969
:1017D00003DA3840207000F0AFFD93E04F4822213B
:1017E00001704F48C079002803D14E48C0790028C5
:1017F00007D020784949384020700220085E002137
:1018000008E02078C10607D53840207043490220FF
:10181000085E012100F0B0FD404A41480A210C3A1F
:10182000415E9279914202D0027A202A03D0C17996
:10183000012905D007E0394A0C3A917145811AE037
:10184000017A212910D020210172344935480A2219
:101850000C39825E89798A4202D0017A20291FD010
:10186000C17901291ED020E0458100692E498842B6
:1018700006D214210CE029484188491C4180E4E744
:101880002949C94342182849491E8A4205D20A21DA
:10189000FEF744FC0029EED0D7E7C007EBD0D4E731
:1018A000458127E0017A212909D0202101721B48B6
:1018B0000222825E1D498A4221DB418022E045816D
:1018C00000691949884206D214210CE01348418866
:1018D000491E4180EBE71449C94342181249491E89
:1018E0008A4205D20A21FEF719FC0029EED0DEE774
:1018F000C007DCD109494888401E4880D7E7002A44
:1019000000DC4580307A202803D17089042800D17A
:1019100064E7F8BD380000203C0500208C00002062
:101920005C0500207C050020701700000F270000D8
:1019300010B506480178CA0604D5EF22114001709F
:1019400000F0A0FD02491F20087010BD38000020E3
:101950008C0000207047000030B5837801210278A8
:10196000002B15D094080E4BA400E41823689207AE
:10197000D50EFF22AA40934342789207120EAA4046
:101980001A4322600078C006C00E8140054804E07A
:10199000D006C00E814003488030016030BD000099
:1019A00000E400E000E100E0704730B582790021FA
:1019B000212320240D2A09D00B2A14D00C2A11D15E
:1019C00084690269A2420DD3037207E08569026946
:1019D000AA4208D30372C279002A03D10161418966
:1019E000491C418130BD0472F8E7000010B50422A3
:1019F0005A210F4801F0FEFB0028F8D00C4C0D498D
:101A0000103C2069884201DD00202061401C2061DB
:101A100004225A21064801F023FC3220401E00B265
:101A20000028FBDC2069012801DC00F0EFF910BD83
:101A300010000020FFFF000009494A6801239B03B2
:101A40009A434A604A6883B21A434A600A6B8B150C
:101A50009A430A630A6B000C02430A637047000052
:101A600000100240044A0029516901D0014300E0FE
:101A7000814351617047000000100240044A002970
:101A8000D16901D0014300E08143D161704700007A
:101A900000100240044A0029116901D0014300E00E
:101AA000814311617047000000100240044A002980
:101AB000916901D0014300E08143916170470000CA
:101AC00000100240044A0029D16801D0014300E01F
:101AD0008143D16070470000001002400348416A12
:101AE00001221206114341627047000000100240BB
:101AF00010B500F029F8012000F03CF9012000F0B9
:101B00000DF90028FAD0002000F02AF9002000F09A
:101B10003FF90521C904002000F052F9012000F02E
:101B200041F90848FFF788FF192000F0F7F800286E
:101B3000FAD0022000F052F900F00AF90828FBD18F
:101B400010BD00000040000112480168012211434D
:101B500001604168104A1140416001680F4A11401C
:101B600001600168012292049143016041683F22B3
:101B7000120491434160C16A09090901C162016B04
:101B8000074A11400163416B490849004163002144
:101B900081607047001002400CB8FFF8FFFFF6FEAE
:101BA000ACFEF0FFF8B5564D0446686800210C22E3
:101BB000544E104005D0042803D0082803D00C2828
:101BC0001AD026601AE06968686803228902D20385
:101BD0000F0F1040BF1C00280AD0E86A0107090F48
:101BE0003046491CFEF79AFA78430146216005E029
:101BF000454839464143F9E7444820606868444F06
:101C00000006000F3B5C20680246DA4062606B68A9
:101C10005B055B0FFB5CDA40A2602B6BDB0501D43C
:101C20003C4B05E06B685B0401D4530800E093086B
:101C3000E3602B6B5F06384B03D4374F12372761B5
:101C400000E023612F6BFF0601D4666100E0606154
:101C50002F6BBF070ED02F6BBF07BF0F012F0BD00D
:101C60002F6BBF07BF0F022F08D02F6BFF43BF079B
:101C700006D006E0A26104E0A06102E0A36100E0FA
:101C8000A6612F6BBF03BF0F0FD02F6BBF03BF0F1A
:101C9000012F0CD02F6BBF03BF0F022F09D02F6B6A
:101CA000BF03BF0F032F06D006E0E26104E0E0614E
:101CB00002E0E36100E0E6612F6B3F03BF0F0FD04E
:101CC0002A6B1203920F012A0CD0286B0003800F9D
:101CD000022809D0286B0003800F032806D006E0F5
:101CE000226204E0206202E0236200E02662286BA8
:101CF000000602D405486062F8BD6162F8BD0000CC
:101D00000010024000127A0000093D00006CDC0265
:101D1000A8000020809FD50000800000034600201E
:101D20000A495A090CD0012A0CD0022A0CD0496B5E
:101D3000DA06D20E012393400B4200D001207047F7
:101D40000968F5E7096AF3E7496AF1E7001002401C
:101D5000024840680C210840704700000010024013
:101D6000034A5168F02399430143516070470000D2
:101D70000010024005490028086802D001221043E3
:101D800001E0400840000860704700000010024079
:101D9000034A516807231B0299430143516070476E
:101DA000001002400122054912060028086801D0EF
:101DB000104300E0904308607047000000100240AC
:101DC00010B5054A53687B24E403A343536053686A
:101DD00008430343536010BD00100240034A51689A
:101DE00089088900014351607047000000100240DB
:101DF00010B5044681880068FFF71CF8217F15297B
:101E000002D1012800D0002010BD000070B57D2057
:101E10002649C000264C0860608233216171254D3F
:101E20001F262E700A2169806062322020820120E4
:101E300060700422284601F013FA04221421A81C21
:101E400001F00EFA04221E21184801F009FA20467A
:101E500004222821123001F003FA20460422322104
:101E6000243001F0FDF901223C21601D01F0F8F958
:101E700001224621601C01F0F3F920460222502184
:101E8000103001F0EDF90C4800210672016141812A
:101E90000A4806724181A08C81B20020FEF7EAFB5D
:101EA00001210020FEF7F0FB70BD0000880000203B
:101EB000300000208C0000203C0500201C05002084
:101EC00070B5104C0E4920782546095C0C352970F8
:101ED0000D494000085A6860002001F005FC686860
:101EE00001F0A6FB287801F0FFFB686801F0A0FB79
:101EF0002078411C2170082801D30020207070BD7B
:101F0000100500206C00002094370008F1B50098FF
:101F1000FFF70AF805460A210098FEF7FFF8024687
:101F200048001A4F1A4C385C00262070022D07D347
:101F300010460A21FEF7F2F84800385C607000E0B5
:101F40006670032D0AD364210098FEF7E7F80A2192
:101F5000FEF7E4F84800385CA07000E0A670042D9D
:101F60000BD37D21C9000098FEF7D8F80A21FEF7AF
:101F7000D5F84800385CE07000E0E6702671232058
:101F800060716D20A0710F20E071F8BDA6370008C8
:101F900010050020F3B581B00C460198FEF7C4FF90
:101FA000074620463B4E00253B4C00283CD03B4892
:101FB000407A002830D00A210198FEF7C5F8490080
:101FC000715C2170022F06D30A21FEF7BDF848008C
:101FD000305C607000E06570032F0AD364210198C3
:101FE000FEF7B2F80A21FEF7AFF84800305CA070A7
:101FF00000E0A570042F0BD37D21C9000198FEF7E6
:10200000A3F80A21FEF7A0F84800305CE07000E079
:10201000E5702248457234E025706570A5701F4850
:10202000E570012141722CE00A210198FEF78CF83D
:102030004900715C2170022F12D30A21FEF784F847
:102040004800305C6070032F0BD364210198FEF7C9
:102050007BF80A21FEF778F84800305CA07001E0B8
:102060006570A570042F0BD37D21C9000198FEF780
:102070006BF80A21FEF768F84800305CE07000E079
:10208000E5702571072060714F20A0717320E07109
:10209000FEBD0000A6370008100500206C000020DF
:1020A0000D4840210170417081700C4AC1709378D5
:1020B0000021002B08D0732303714E2343718371D9
:1020C0006323C37191707047017141718171C17156
:1020D0000120907070470000100500206C00002067
:1020E000F3B581B00C460198FEF71EFF0746204667
:1020F0003B4E00253B4C00283CD03B48C078002894
:1021000030D00A210198FEF71FF84900715C217058
:10211000022F06D30A21FEF717F84800305C6070E2
:1021200000E06570032F0AD364210198FEF70CF8D4
:102130000A21FEF709F84800305CA07000E0A570A5
:10214000042F0BD37D21C9000198FDF7FDFF0A2163
:10215000FDF7FAFF4800305CE07000E0E5702248CF
:10216000C57034E025706570A5701F48E5700121C9
:10217000C1702CE00A210198FDF7E6FF4900715C6F
:102180002170022F12D30A21FDF7DEFF4800305CD8
:102190006070032F0BD364210198FDF7D5FF0A214E
:1021A000FDF7D2FF4800305CA07001E06570A570BB
:1021B000042F0BD37D21C9000198FDF7C5FF0A212B
:1021C000FDF7C2FF4800305CE07000E0E57073206E
:1021D00020714E206071A0716320E071FEBD00008F
:1021E000A6370008100500206C00002010B50D482F
:1021F00040220270427082700B4BC2701C79002129
:10220000002C08D07324047142716222827163220F
:10221000C271197110BD017141718171C1710120CB
:10222000187110BD100500206C000020F3B581B0BE
:102230000C460198FEF778FE074620463B4E0025E7
:102240003B4C00283CD03B484079002830D00A2144
:102250000198FDF779FF4900715C2170022F06D3C8
:102260000A21FDF771FF4800305C607000E0657086
:10227000032F0AD364210198FDF766FF0A21FDF7B9
:1022800063FF4800305CA07000E0A570042F0BD302
:102290007D21C9000198FDF757FF0A21FDF754FF82
:1022A0004800305CE07000E0E5702248457134E0A1
:1022B00025706570A5701F48E570012141712CE003
:1022C0000A210198FDF740FF4900715C2170022F3F
:1022D00012D30A21FDF738FF4800305C6070032FED
:1022E0000BD364210198FDF72FFF0A21FDF72CFF86
:1022F0004800305CA07001E06570A570042F0BD31E
:102300007D21C9000198FDF71FFF0A21FDF71CFF81
:102310004800305CE07000E0E570732020714020E0
:1023200060716220A0716320E071FEBDA6370008D5
:10233000100500206C0000200D4840210170417004
:1023400081700C4AC17093790021002B09D047237A
:10235000037163234371762383716D23C37191717C
:102360007047017141718171C17101209071704795
:10237000100500206C000020F3B581B00C460198D8
:10238000FEF7D2FD074620463B4E00253B4C002879
:102390003CD03B48C079002830D00A210198FDF795
:1023A000D3FE4900715C2170022F06D30A21FDF78C
:1023B000CBFE4800305C607000E06570032F0AD3EC
:1023C00064210198FDF7C0FE0A21FDF7BDFE48001B
:1023D000305CA07000E0A570042F0BD37D21C900F4
:1023E0000198FDF7B1FE0A21FDF7AEFE4800305C12
:1023F000E07000E0E5702248C57134E0257065703A
:10240000A5701F48E5700121C1712CE00A210198D7
:10241000FDF79AFE4900715C2170022F12D30A2148
:10242000FDF792FE4800305C6070032F0BD36421EF
:102430000198FDF789FE0A21FDF786FE4800305C11
:10244000A07001E06570A570042F0BD37D21C90039
:102450000198FDF779FE0A21FDF776FE4800305C11
:10246000E07000E0E5704720207163206071762005
:10247000A0716D20E071FEBDA63700081005002098
:102480006C0000200D4840210170417081700C4AA1
:10249000C17053780021002B08D04E230371437183
:1024A000632383714723C371517070470171417178
:1024B0008171C1710120507070470000100500202B
:1024C0006C000020F3B581B00298FEF72DFD0746A1
:1024D0000198FEF729FD00900A210298FDF734FECD
:1024E000024648002F4D304C285C00262070022FF9
:1024F00007D310460A21FDF727FE4800285C6070CC
:1025000000E06670032F0AD364210298FDF71CFED9
:102510000A21FDF719FE4800285CA07000E0A670B3
:1025200038467D27FF0004280AD339460298FDF774
:102530000BFE0A21FDF708FE4800285CE07000E071
:10254000E6700A210198FDF7FFFD4900695C2171E1
:102550000099022906D30A21FDF7F6FD4800285C00
:10256000607100E06671009803280AD36421019825
:10257000FDF7EAFD0A21FDF7E7FD4800285CA071A0
:1025800000E0A671009804280AD339460198FDF7A7
:10259000DBFD0A21FDF7D8FD4800285CE071FEBD97
:1025A000E671FEBDA637000810050020F1B50098C1
:1025B000FEF7BAFC05460A210098FDF7C5FD024664
:1025C00048001A4F1A4C385C00262070022D07D3A1
:1025D00010460A21FDF7B8FD4800385C607000E045
:1025E0006670032D0AD364210098FDF7ADFD0A2122
:1025F000FDF7AAFD4800385CA07000E0A670042D2D
:102600000BD37D21C9000098FDF79EFD0A21FDF73F
:102610009BFD4800385CE07000E0E67026712320E6
:1026200060715E20A0710F20E071F8BDA637000830
:102630001005002010B5094900220A704A708A70FE
:10264000CA706224632240230C714A7100288B7186
:1026500001D0072000E07320C87110BD10050020D4
:1026600010B50C46012109204902C006FEF7E2FB25
:10267000094A002802D0012806D001E0012C01D02F
:10268000002006E0302004E0002C01D0362000E0DD
:102690000620107210BD000010050020F3B581B0B7
:1026A00007460298FEF740FC00252D4C0646012FF8
:1026B00005D0022F1CD025706570A57046E02570EE
:1026C0006570A5702748E570817A002909D030210E
:1026D0002171472161714F21A1716D21E1718572D5
:1026E000FEBD25716571A571E57101218172FEBD87
:1026F0000A210298FDF712FD49001B4F022E795C5A
:10270000217006D30A21FDF709FD4800385C60708E
:1027100000E06570032E0AD364210298FDF7FEFCE9
:102720000A21FDF7FBFC4800385CA07000E0A570B2
:10273000042E0BD37D21C9000298FDF7EFFC0A217E
:10274000FDF7ECFC4800385CE07000E0E5703020FC
:102750002071472060714F20A0716D20E071FEBD97
:10276000100500206C000020A6370008F7B50746CA
:102770000298FEF7D9FB00252D4C0646012F05D007
:10278000022F1CD025706570A57046E0257065701D
:10279000A5702848E570C17A002909D05B21217114
:1027A000472161714F21A1716D21E171C572FEBD9B
:1027B00025716571A571E5710121C172FEBD0A2106
:1027C0000298FDF7ABFC49001B4F022E795C21708B
:1027D00006D30A21FDF7A2FC4800385C607000E0D7
:1027E0006570032E0AD364210298FDF797FC0A2135
:1027F000FDF794FC4800385CA07000E0A570042E42
:102800000BD37D21C9000298FDF788FC0A21FDF752
:1028100085FC4800385CE07000E0E5705B202071CA
:10282000472060714F20A0716D20E071FEBD000057
:10283000100500206C000020A6370008FEB501211D
:102840004804FFF70FF901218804FFF70BF9012174
:10285000C804FFF707F901210805FFF703F9012173
:102860004805FFF7FFF801218805FFF7FBF86846E8
:10287000FEF7E8FA0126B6030125684600960571C1
:10288000002484714471C57169465E48FEF79AFA66
:102890005D4800906846057184714471C571694650
:1028A0005848FEF78FFA69465648FEF78BFA694694
:1028B0005448FEF787FA554F69463846FEF782FAC4
:1028C0000720800200906846057184714471C571CB
:1028D00009206946C006FEF775FA09206946C00658
:1028E000FEF770FA09206946C006FEF76BFA484801
:1028F00000906846057184714471C5716946454808
:10290000FEF760FA09206946C006FEF75BFA424806
:10291000009068460571847144710221C171694655
:102920003C48FEF74FFA69463A48FEF74BFA6946CB
:102930003846FEF747FA69463648FEF743FA6946D5
:102940003448FEF73FFA69463248FEF73BFA6946DB
:102950003048FEF737FA002201213846FEF77EFAAA
:10296000EC03002221462748FEF778FA0022314680
:102970002448FEF773FA0022A1102248FEF76EFAEF
:10298000092000226111C006FEF768FA0920002222
:102990002111C006FEF762FA09200022E110C006EC
:1029A000FEF75CFA002208211A48FEF757FA0920C0
:1029B00000222146C006FEF751FA00228021154868
:1029C000FEF74CFA002220211248FEF747FA0022B7
:1029D00002213846FEF742FA002210210D48FEF788
:1029E0003DFA002240210B48FEF738FA0022E1119F
:1029F0000848FEF733FA0022A1110648FEF72EFA26
:102A0000FEBD00000008004801E00000001400487E
:102A10000880000000040048F20300007047000036
:102A2000F8B52E48417A01292BD04178027891429D
:102A300001D1012300E000232848294C8370257828
:102A40000121092000274902C0061F2D11D026466A
:102A50000222B25E7468214EF6697243202D11D0B5
:102A60001F4E212D1AD0222D0BD11C4D002B27D10A
:102A700021E0002B01D0012200E00022FEF7EEF958
:102A80006760F8BD002B05D00122FEF7E7F9144876
:102A90004760F8BD9442FCD9002204E0002B05D029
:102AA0009442F6D90122FEF7D9F9F8BD0022FEF7CB
:102AB000D5F97760F8BDEB7A012B01D07760EBE7B1
:102AC000944205D20122FEF7C9F90120E872F8BD4F
:102AD0000022FEF7C3F9EF72F8BD000030000020BD
:102AE0008C00002070B50E4C607A012817D0E07879
:102AF000FF2509260135F606002804D001222946C3
:102B00003046FEF7ABF91420205EFA2807DB0020E0
:102B1000E070A082024629463046FEF79FF970BD5C
:102B200030000020134911200860134841684160BB
:102B30004168416041687F22D2039143416041680E
:102B40000522D2041143416001680122120611439B
:102B5000016001688901FCD54168890889004160EC
:102B6000416802221143416041680907890F022927
:102B7000FAD17047002002400010024070B5124C9C
:102B80000125607A01280AD0E9021048FEF752F9BF
:102B9000002803D000206072A07170BD6572E06AE9
:102BA0006428FAD3A57109250121ED060022490206
:102BB0002846FEF753F9FF21002201312846FEF78F
:102BC0004DF9206B606370BD3000002000040048A8
:102BD0007047000010B514480168012211430160DC
:102BE0004168124A114041600168114A1140016078
:102BF0000168012292049143016041683F2212045E
:102C000091434160C16A09090901C162016BFF2258
:102C1000543291430163416B4908490041630021EB
:102C20008160FFF77FFF10BD001002400CB8FFF875
:102C3000FFFFF6FE10B5064C0121204600F0DCF83F
:102C4000002803D00121204600F062F810BD0000EA
:102C5000002C014010B501218C07204600F0CCF873
:102C6000002803D00121204600F052F810BD0000DA
:102C700070B51E4E0121304600F0BEF8002834D059
:102C80001B4CE069401CE0610A21E069FDF746FA4F
:102C9000002500291BD117480078002803D01649C9
:102CA0000888401C0880FFF70BF9FEF743FA134829
:102CB0000168491C0160FEF723FA114811490078A8
:102CC000002803D00868401C086000E00D60E0693F
:102CD0000D49884205D30D48102201781143017037
:102CE000E5610121304600F013F870BD000400409A
:102CF000000000203300002044000020600000207D
:102D0000390000205C0000208813000038000020FB
:102D1000C943018270470029018802D00122114372
:102D200001E0490849000180704700002A4910B5B8
:102D3000884202D10121C4143AE001218907884266
:102D400006D101210846FEF7A5FE0021012008E07A
:102D50002249884208D101210220FEF79BFE002172
:102D60000220FEF797FE10BD1D49884206D10121C1
:102D70001020FEF78FFE00211020F2E7194988424B
:102D800006D101212020FEF785FE00212020E8E762
:102D90001549884207D1841501212046FEF77AFEA5
:102DA00000212046DDE71149884209D101210C04A8
:102DB0002046FEF787FE00212046FEF783FE10BD69
:102DC0000B49884202D101214C04F1E709498842AC
:102DD000F5D101218C04EBE7002C014000040040F8
:102DE000001000400014004000200040004001405E
:102DF00000440140004801400246138A00209289A5
:102E00000B400A40002B02D0002A00D0012070475E
:102E1000002A828901D00A4300E08A4382817047F8
:102E2000828870239A43828082880A438280704716
:102E300010B50288144B984206D00124A407A04282
:102E400002D0124CA04203D17024A2434C882243EA
:102E50000F4CA04203D00F4C22400C892243028029
:102E60004A68C2620A880285984208D00A4A90429B
:102E700005D00A4A904202D0094A904201D1897A8B
:102E800001860121818210BD002C01400004004018
:102E900000100040FFFC00000040014000440140E1
:102EA000004801400021C9434160002101800181A7
:102EB00041808172704700210A22504300E0491C82
:102EC0008842FCD8704702E008C8121F08C1002AD7
:102ED000FAD170477047002001E001C1121F002A9B
:102EE000FBD1704730B5012187B04802FEF7DEFD07
:102EF0001C4C2046FDF7ACF96846FDF704FA0021AA
:102F00006846017180200390C000009104910591F2
:102F1000029069462046FDF7D1F901212046FDF7D0
:102F2000E3F9032204212046FDF772F92046FDF75C
:102F30009FF901212046FDF770F90B4D20462946E7
:102F4000FDF7ADF90028F9D001212046FDF76EF913
:102F500002212046FDF774F92046FDF7CFF907B0AE
:102F600030BD0000002401400100000170B50121C6
:102F70008CB00846FEF776FD0921684601700125F0
:102F8000857000244470FEF7E7FC154E3046FDF7CF
:102F900003FC01A8FDF796FC124802900394A802D6
:102FA00008900B94802006900495202009900E48EC
:102FB000019080150790059440010A9001A93046C0
:102FC000FDF762FC012202213046FDF755FC02208C
:102FD000FDF7CAFB01213046FDF7D2FB0CB070BDF6
:102FE00008000240B8000020402401401CB5012127
:102FF0004804FEF737FD6846FDF724FF04200090E3
:103000000320694608710020887148710120C87149
:103010000920C006FDF7D6FE1CBD0000F0B585B046
:1030200001210220FEF72AFD0121C802FEF73EFD24
:1030300001210846FEF722FD01214804FEF712FD9A
:103040000F2168460173012585730024447303A88A
:10305000FEF782FC1021684601738573457303A84F
:10306000FEF77AFC1D4F3846FFF760FE6846FFF713
:1030700019FF6846048144800A252F2601950680A1
:10308000847269463846FFF7D3FE0122114638465E
:10309000FFF7BEFE01213846FFF73DFE6F073846B9
:1030A000FFF744FE6846FFF7FDFE68464480019541
:1030B0000680847269463846FFF7BAFE012211463F
:1030C0003846FFF7A5FE20213846FFF7A9FE01216B
:1030D0003846FFF720FE05B0F0BD000000040040B8
:1030E0001CB501214C042046FEF7BCFC0121204602
:1030F000FEF7B8FC01206946087188710020C8718C
:103100000320487180200924E40600902046FDF742
:1031100059FE4020009069462046FDF753FE00F01E
:1031200073F91CBDFDF7A6FE274C284D207A294EC9
:10313000400840002072E18A25488B001A18366842
:103140001660C0582A68491C121888B22A60E082AA
:10315000802804D90020E0820120207102E020793B
:10316000002804D000202071D10921622860FFF7D7
:1031700005FD0926F606184F15E001210022490237
:103180003046FDF76BFEFF21002201313046FDF78E
:1031900065FE616B206B401AB84204D30020A07119
:1031A000E062607202E0A0790028E6D1FFF79AFCA5
:1031B000FDF796FBFDF7B0F860793328B6D100F043
:1031C000EBF900F075F9B1E73000002008050020A8
:1031D000080100200C000020204E000010B5A020A7
:1031E00000F08EF8002803D000F00EF9002010BD8A
:1031F000012010BDF8B515460C46064600F0F0F863
:10320000A02000F0C9F800F00DF900280FD1E0B2BD
:1032100000F0C2F800F006F9002808D100F0E0F84C
:10322000A12000F0B9F800F0FDF8002803D000F06C
:10323000EBF80020F8BD00246F1E0BE000F090F8C2
:103240003055BC4202D000F047F801E000F076F8BB
:10325000641CA4B2AC42F1D300F0D6F80120F8BD52
:10326000F7B517460C46002530E0002D01D0600769
:103270001CD100F0C9F8002600F0B2F8A02000F040
:103280008BF800F0CFF8002805D0761C7D20B6B270
:10329000C0008642F0D37D20C00086420ED0E0B24E
:1032A00000F07AF800F0BEF8002807D10098405DE1
:1032B00000F072F800F0B6F8002803D000F0A4F88F
:1032C0000020FEBD641C6D1CA4B2ADB2BD42CCD3C7
:1032D00000F09AF80120FEBDF8B5084D40242C817D
:1032E00000F026F809278026FF06BE6100F020F8CE
:1032F0002E8100F01DF8BC61F8BD000020000048E0
:1033000010B509210446C906088A40060ED5088A68
:1033100000060BD500F064F8204600F03DF800F000
:1033200081F8044600F070F8204610BD012010BD61
:103330000020401CC0B21E28FBD3704770B5092482
:103340004020E406A061FFF7F3FF8025A561FFF7A9
:10335000EFFF02480581FFF7EBFF70BD200000483A
:10336000F8B500240927FF06254680266006040ECE
:10337000BE61FFF7DDFF388A400601D5641CE4B268
:1033800004480681FFF7D4FF6D1CEDB2082DEDD384
:103390002046F8BD20000048F8B500248027092603
:1033A0000546F606280602D54020B06102E00B492A
:1033B00040200881FFF7BCFFB761FFF7B9FF07485E
:1033C0000781072C01D14020B0616806050EFFF788
:1033D000AFFF641CE4B2082CE4D3F8BD2000004821
:1033E00070B540250920C006856180248461FFF7FF
:1033F0009FFF044E3581FFF79BFF3481FFF798FF55
:1034000070BD00002000004870B5054840240481CC
:1034100009258020ED06A861FFF78AFFAC6170BD29
:103420002000004870B509244020E406A061FFF7A1
:103430007FFF8025A561FFF77BFF208A400601D52D
:10344000012400E0002403480581FFF771FF2046B6
:1034500070BD00002000004810B5FEF749FBFFF7E3
:10346000EDF900F08DF91048FEF79CFBFFF738FEF0
:10347000FDF7ECF8FDF7E4FDFDF746F8FF20F53029
:10348000401E00B20028FBDCFDF718FEFDF736FCFD
:1034900006490028C87005D0FEF7A8FAFFF742FEDB
:1034A000002010BDFEE70000C40000200000002046
:1034B000F8B5334C334DA07A68703348C079012891
:1034C00002D1E07901285AD03048C079012856D07D
:1034D0002F482C4EC07900270C3601284FD044E0ED
:1034E000FDF7BCFE0A20205E69788842207A37D03A
:1034F00020283AD10321618130781F2806D0202866
:1035000006D0212806D0222807D007E02F7005E03A
:10351000012000E00220287000E02970FDF716FF6E
:10352000207A202821D10A20205E04281ADB1548A1
:103530006781E77104220A210C30FFF791FE042213
:103540001421B01CFFF78CFE0E4804221E21083007
:10355000FFF786FE022250210E48FFF781FE04E0AD
:10356000202802D160890328D8D0E079012803D12E
:10357000A16920698842B3D2207A2128B0D0F8BD51
:103580003C050020800000207C0500201C05002058
:103590005C05002040000020F8B5012409256402E4
:1035A000ED0621462846FDF745FC02462146284601
:1035B000FDF754FC194CE07901282DD11848C17948
:1035C000012929D00027174D174EFCF7E3FD7D2078
:1035D000C000FFF770FC19E002206968FFF75EF891
:1035E000207A212812D1E079012815D16089A081A3
:1035F000202020720D491F204F81087277810849D1
:1036000030724F8108722F70FDF79AFC207A2028C3
:10361000E2D0E0790128D8D0F8BD00001C050020D8
:103620003C050020940000207C0500205C05002063
:1036300030B5C2070121002A02D01F4A916102E081
:103640001D4A203211811D491D4A1E4B840701D598
:10365000916100E019811C4C450701D5946100E09F
:103660001C811A4C050701D5946100E01C81184C9F
:10367000184A194BC50601D5946100E01C81174C0E
:10368000850601D5946100E01C81154C450601D5E5
:10369000946100E01C8105060824002D02DA114D1A
:1036A000AC6102E00F4D20352C81C00501D5916140
:1036B00030BD198130BD00000014004800800000BA
:1036C00000080048200800480040000000200000DA
:1036D000000400000000004820000048000800002E
:1036E000001000000004004870B50446204DC007DB
:1036F00001D0002200E0012280212846FDF7AEFB28
:10370000A00701D5002200E0012220212846FDF774
:10371000A5FB1848610701D5002200E00122022123
:10372000FDF79CFB200701D5002200E001221021BB
:103730002846FDF793FBE00601D5002200E00122B8
:1037400040212846FDF78AFB0B49A00601D500223F
:1037500000E001222846FDF781FB0849600601D5FB
:10376000002200E001222846FDF778FB70BD000032
:10377000000400480014004800010000000200009E
:1037800010B5FFF733FCFFF7ADFBFFF7EFFBFFF7DB
:1037900045FC10BD010002000400080010002000DC
:1037A0004000800000013F0030005B0079007400A1
:1037B0006D006F0038007F007D007E0067000F0005
:1037C00073004F004E0040006300620023006D0054
:1037D0004700000007005E004E0076000B000E0060
:1037E00001000200040008001000200040008000DA
:1037F000FF0000003700000018380008000000201B
:10380000B8000000C62E0008D0380008B80000201C
:10381000E8080000D62E00080000000000000000AC
:10382000000000000000000000000000ACF7FF1FD7
:103830002C0000200000000000000000000000003C
:1038400000000000431910190001000000330000BF
:1038500000000000000000003200E803000000004B
:10386000000000001700000000000000E803000056
:103870000000000000000000000000000000000048
:10388000000000000001010101010101010100002F
:103890000000000000000000000000000000000028
:1038A000E80300001F000A00000000000000000004
:1038B0000000000000000000000000000000000008
:1038C00000000000010203040102030406070809C6
:04000005080000B13E
:00000001FF
