:020000040800F2
:1000000070090020C50000086D160008CD0D00081D
:1000100000000000000000000000000000000000E0
:10002000000000000000000000000000152500088E
:100030000000000000000000C1160008AD26000806
:10004000F5000008F5000008F5000008F5000008BC
:10005000F5000008F5000008F5000008F5000008AC
:100060000000000089060008F5000008F5000008FF
:10007000F500000811270008F500000831270008E6
:100080004D2700080000000000000000F5000008F7
:1000900000000000F5000008F5000008F500000869
:1000A00000000000F500000800000000F500000856
:1000B0000348854600F05CF800480047312F0008EF
:1000C000700900200C4880F308880C480168090E6C
:1000D0000B4A914205D10B480B4901600B480C4972
:1000E00001600C4880470C480047FEE7FEE7FEE74A
:1000F000FEE7FEE7FEE700007009002004000000B4
:100100001F00000018100240010000000000014024
:1001100000000000B1260008B100000830B50B4611
:10012000014600202022012409E00D46D5409D42D1
:1001300005D31D469540491B254695404019154657
:10014000521E002DF1DC30BD70B50024254600287C
:1001500001DA01244042002901DA01254942FFF772
:10016000DDFFAC4200D04042002C00D0494270BDBF
:10017000064C0125064E05E0E36807CC2B430C3CFA
:1001800098471034B442F7D3FFF796FFA83200081F
:10019000C8320008F8B5194D0026194C194F6E6089
:1001A00027E019480178002923D006701348001D64
:1001B00000F032FD7D206968C000814202D92068CC
:1001C000401E03E0814202D22068401C20600F489C
:1001D0002168814201DB206002E0002900DC26600A
:1001E000208881B2002000F037FA0121002000F0C1
:1001F0003DFA6868C0196528D3D2F8BD70000020A8
:10020000300000204AFCFFFF00000020FF0F00002C
:10021000836A0B438362426170470029816801D081
:10022000012200E002221143816070470029C16869
:1002300002D00122114301E049084900C160704722
:10024000C26802239A43C260C2680A43C260704710
:10025000064910B5884208D144150121204601F015
:1002600097FA0021204601F093FA10BD00240140C6
:10027000826800210123DB071A4382600F231B03DE
:100280008268491CD20FD207994201D0002AF7D1C7
:100290008168002901DB006C70470020704702462E
:1002A0000020CB0104D5926801231B069A4300E08D
:1002B00012680A4200D001207047000030B5C368C0
:1002C000084A8C6813400A680D792243CC686D0394
:1002D0002C4322430C69496922430A431A43C260F2
:1002E00030BD000003D2FFFF012212030029C168C4
:1002F00001D0114300E09143C1607047816804223E
:100300001143816070470021016001718160C1600B
:100310000161416170470000F8B5554D287A2128E8
:100320007ED154483321027A1F270026524C212ABD
:1003300002D1C079012804D05048027A212A22D063
:1003400076E06079332802D061716E8107E0342055
:100350006071FAE7012000F099F80120E07144484B
:1003600001F0A2FB012804D1424801F09DFB0128C5
:10037000F0D0414801223C21401D02F0DDFC2F72EB
:100380006E813C4870E03D48C079012850D17D2005
:100390003B4AC0001060E08161713A490A220F7047
:1003A0004A80206204E0022000F070F80120E07131
:1003B0002F4801F079FB012804D1304801F074FB8B
:1003C0000128F0D004220A212E4802F0B5FC2D4865
:1003D00004221421801C02F0AFFC04221E212848B4
:1003E00002F0AAFC2448042228210E3002F0A4FCCA
:1003F000214804223221203002F09EFC1E480422B3
:100400003C21401D02F098FC2F722E611B486E812A
:1004100007724681208C81B2002000F01DF900E0B7
:1004200024E00121002000F021F9287A21281DD1A3
:100430001548017A212919D1C079012816D166629F
:1004400004E0032000F022F80120E071084801F0E8
:100450002BFB012804D10C4801F026FB0128F0D029
:100460002F722E6108486E8146810772F8BD000028
:100470000C0500204C05002010000020EC0400209A
:1004800064000020680000202C05002070B50022C8
:100490001449012805D0472302280ED0032813D081
:1004A00018E011480F240578632007230C7048706A
:1004B000332D8B700DD1372004E00B70392048703C
:1004C00062238B70C87005E00B706D2048700E20A1
:1004D0008870CA700A714A718A71CA7101F0F2FAA1
:1004E00070BD0000E004002015000020FEB5314C76
:1004F0002F48012189022060A1800D23A3710021D2
:1005000061812161E171152727771F2222722A4E0E
:100510006422A6616261254620350122120328600B
:10052000AA80AB7169812961E9712F771F222A7234
:10053000AE6164226A61224640320126B603106031
:100540009680937151811161D17117771F261672B0
:10055000642656617D2636019661164620360122B4
:1005600052033060B280B37171813161F1713777BC
:100570001F223272642272617D221201B2611D2239
:10058000920200926A46117151710221D17169463D
:1005900000F0F0FA6946306800F0ECFA6946286825
:1005A00000F0E8FA6946206800F0E4FAFEBD0000B9
:1005B00000040048EC04002070170000054B0122E5
:1005C00082401868002901D0104300E09043186071
:1005D00070470000007400401CB50121480401F080
:1005E000A7F80121480701F0AFF81020009003217F
:1005F0006846017100214171C17109206946C00638
:1006000000F0B8FA1CBD000030B5074C2368074A5B
:100610008240934324C92A430D6849680D432A4305
:1006200082401A43226030BD00740040FE0F00007B
:100630001FB5FFF7D1FF3C20009000210B200002E6
:1006400001910391029069460020FFF7DDFF01212F
:100650000020FFF7B3FF1FBD034A08B5101808308C
:100660000090016008BD00000074004003090120F3
:10067000044A98400029516801D0014300E08143B9
:100680005160704700740040F8B5022000F0D2F8C5
:1006900000283FD021480021214C415EA078214B09
:1006A000820099506268401C8918C0B26160A070D5
:1006B00003282FD90025A570880865600126A06051
:1006C000194A2670515F194F884201D33E7003E0EA
:1006D0003239884200D83D7015484168491C416054
:1006E00001F01AFF6078134A00280CD138780128ED
:1006F00009D11148114B0168491C01601B689942DE
:1007000001D3167005600E481178007801F024FDC1
:1007100038786070022000F015F8F8BD94000020D1
:1007200000000020C80000201E0000201000002053
:100730006800002013000020340000206400002026
:1007400012000020C10001D5024900E002494860C2
:1007500070470000000402400000024000290168C8
:1007600002D00122114301E0014A114001607047AB
:10077000FEFF0000F0B501682B4A11400160002126
:10078000016041608160C1602849284B08390F220F
:10079000984201D1486823E0244CF0231434A0424D
:1007A00029D0224D1C012835A8422BD01F4E1D02F6
:1007B0003C36B0422DD01D4F1E035037B8422FD0CB
:1007C0001A4F6437B84204D148681A0408E04860F8
:1007D000F0BD164F7837B84204D148680F22120690
:1007E0001043F4E71249124F0839B842D2D0104AE8
:1007F0001432904202D148681843E8E70C4A283284
:10080000904202D148682043E1E7094A3C329042D5
:1008100002D148682843DAE7054A50329042D7D1DE
:1008200048683043D3E70000FEFF000008000240A4
:100830000804024001460020CA0001D5034A00E036
:10084000034A12680A4200D00120704700040240A7
:1008500000000240002A026801D00A4300E08A43F7
:100860000260704730B503680C4A0C6A13408A680E
:100870004D6922430C692C4322438C692243CC6985
:1008800022434C6A22438C6A22431A430260CA689C
:1008900042600A6882604968C16030BD0F80FFFF16
:1008A0000021016041608160C1600161416181613D
:1008B000C16101624162816270470000F8B53D4D3F
:1008C000002668793C4C3D4F332830D120460A2120
:1008D000027A615E3846C079002902D0202A04D00D
:1008E00033E0AE72202A04D02FE0012904D002297F
:1008F00007D003290AD028E0002826D10120A872B9
:1009000054E0002821D10220A87225E000281CD143
:100910006681AE7247E0207A212805D1387A2128F5
:1009200002D1F87901281AD00120FFF7AFFDE07954
:100930000128F0D02248C0790128ECD0F8790128AC
:10094000E9D02048C0790128E5D0A87A00282AD02B
:1009500001282BD0022801D100F0D2F8F8BD687927
:10096000332804D033206871EE71668105E03420AD
:100970006871FAE70120FFF789FD0F4801F094F84C
:10098000012804D10D4801F08FF80128F2D0094860
:1009900001223C21401D02F0CFF91F202072668108
:1009A0007E813872C3E700F00FF8F8BD00F0B2F8AE
:1009B000F8BD0000100000200C0500204C050020B0
:1009C000EC0400202C050020F8B5484CA08B01B2A7
:1009D0000E20205E01F0F2FA4548E179C079002747
:1009E0000843002876D16079332873D10E26A65F9C
:1009F000A682404D00960A20285EE17A884202D005
:100A0000297A202903D0E879012803D005E0E07293
:100A10006F8118E0287A21280ED020202872364EC7
:100A20000A20305EE17A884202D0307A20281DD038
:100A3000F07901281CD01EE06F8130492869884276
:100A400004D814210AE0761CE681E8E72B49C94363
:100A500042182A49491E8A4205D80A21FFF75EFB3F
:100A60000029F0D0DBE7C007EDD0D8E7778114E0AC
:100A7000307A21280AD0202030720E21615E009841
:100A8000884227D0F07900281BD023E077811B49CA
:100A90003069884205D214210BE0E089401EE081D4
:100AA000EBE71649C94342181449491E8A4205D248
:100AB0000A21FFF733FB0029EFD0DEE7C007ECD0B7
:100AC000DBE7E879002805D10848042228210E3008
:100AD00002F032F90E21615E7D204001814201DB8E
:100AE000E081F8BD0029FCDCE781F8BD10000020A2
:100AF0000C0500202C0500204C050020701700007C
:100B000010B50348808C00B201F0CCFA10BD000093
:100B10001000002070B5144C607801F007FB1349F9
:100B20000A228A5E257B01230020AA4208D00D7A82
:100B3000202D05D122734881617800290FD0607083
:100B40000B490A228A5E257BAA4207D00A7A202A0C
:100B500004D148816178002903D0607070BD637052
:100B6000EEE7637070BD0000100000202C0500202F
:100B70004C050020F0B50022012423460D68934067
:100B80001D409D422AD10D79012D01D0022D12D197
:100B9000876855000326AE40B74387604E79AE4064
:100BA00085682E43866085889D43858085888B79FE
:100BB00093401D438580066855000323AB409E4348
:100BC00006600E790768AE403E430660C6689E43E5
:100BD000C660CB79AB40C5682B43C360521C102A5A
:100BE000CBD3F0BD0246128A00200A4200D0012079
:100BF0007047000004490160002101710122427127
:100C00008171C17170470000FFFF0000002A01D010
:100C1000816170470185704701490968016070472B
:100C20000800002010B502F045F80028FBD01E484F
:100C300001F0ADFE04220A211C4802F047F800280A
:100C4000F8D01A4C04221421A01C02F03FF800280E
:100C5000F8D004221E21164802F038F80028F8D0F7
:100C600004222821134802F031F80028F8D0114856
:100C700004223221123002F029F80028F7D00D4862
:100C800001223C21093802F021F80028F7D0094858
:100C90000E38008C81B20020FFF7DEFC012100201D
:100CA000FFF7E4FC10BD0000701700006800002092
:100CB000640000201E00002010B5002404E00A217A
:100CC000FFF72CFA641CE4B20028F8D1204610BDCE
:100CD000F8B50020374C0090374D206120E03748B0
:100CE0000168002001F056FA17E06846FFF794FF0C
:100CF00000982169884200D32061314E3078C106C6
:100D000008D5EF21084030702C48002201681046B9
:100D100001F0A8FA287A212806D0E8790128E4D041
:100D200020780028DBD0F8BD25480178CA063AD5DE
:100D3000EF221140017000221146012001F092FAC9
:100D400031E02069A0606168012608184008092781
:100D50007602FF06E06031463846FFF743FF024661
:100D600031463846FFF752FF761031463846FFF7D6
:100D700039FF024631463846FFF748FF1149A0893E
:100D800008800120207000206881E8711F202872EF
:100D90000848042228210C3001F0CEFF0422322121
:100DA000094801F0C9FF287A2128B6D1E87900283E
:100DB000BAD1C6E770000020EC04002044000020F7
:100DC000180000201E00002030000020FEE7000078
:100DD0007CB50121480400F0ABFC0121880400F03F
:100DE000A7FC0121C80400F0A3FC0121080500F0C4
:100DF0009FFC0121480500F09BFC0121880500F0C3
:100E000097FC6846FFF7F6FE0320000200900120E1
:100E10006946087100248C7103224A710925C87142
:100E2000ED062846FFF7A6FE69462846FFF7A2FE14
:100E30000120C002009069460C714C71CC710248CF
:100E4000FFF798FE7CBD000000040048F8B5484854
:100E500000F02AFE464C01250026012805D0204638
:100E600000F022FE002805D005E02069401C20612A
:100E7000E57100E0E6712069002802D0E1790029DF
:100E800005D0A169884205D9E079012802D1384806
:100E900000F017FC3648203800F006FE344F203FA3
:100EA000012805D0384600F0FFFD002805D005E0F8
:100EB0003869401C3861FD7100E0FE713869002816
:100EC00002D0F979002905D0A169884206D9F879BC
:100ED000012803D12648203800F0F3FB24482030B5
:100EE00000F0E2FD224C2034012805D0204600F01D
:100EF000DBFD002805D005E02069401C2061E5717C
:100F000000E0E6712069002802D0E179002905D0CF
:100F1000A169884206D9E079012803D1144820301C
:100F200000F0CFFB1248403000F0BEFD104F4037BC
:100F3000012805D0384600F0B7FD002805D005E0AF
:100F40003869401C3861FD7100E0FE713869002885
:100F500002D0F979002905D0A169884206D9F8792B
:100F6000012803D10248403000F0ABFBF8BD00007F
:100F70000C050020F8B5364CA06800F0C9FD3548D6
:100F80000A21415EA278344E20270025914202D0EA
:100F9000027A202A03D0C179012903D005E0A1708B
:100FA000458116E0017A21290DD007722B480A21CC
:100FB000415EA278914202D0017A20291DD0C179E8
:100FC00001291CD01EE045810069B04205D21421E0
:100FD0000BE0A068401CA060E8E71F49C943421825
:100FE0001D49491E8A4205D20A21FFF797F80029B8
:100FF000EFD0DBE7C007ECD0D8E745810EE0017AFF
:10100000212905D00772A06800281BDCA560F8BD67
:1010100045810069B04205D214210BE0A068401E52
:10102000A060F0E70C49C94342180B49491E8A42A7
:1010300005D20A21FFF772F80029EFD0E3E7C007D5
:10104000ECD0E0E706498842E1DBA160F8BD000092
:101050005C0000202C050020701700004C050020CB
:101060000F270000F8B55B4D5B4E5C4F5C4C29E0F0
:1010700000F0EAFA0A20285EE17888420CD0297A4A
:10108000202909D1E070002068812178491C49B2EB
:101090002170032900DD20700A20305EE17888424B
:1010A0000CD0307A202809D1002070812078401E91
:1010B00040B22070002801DA032020700A20385E38
:1010C00004282BDA20780028D2D027E000F08AF814
:1010D0000A21695EE07881420BD0297A202908D163
:1010E000002169812278521C52B22270032A00DD4D
:1010F00021700A21715E81420CD0307A202809D1FA
:10110000002070812078401E40B22070002801DA53
:10111000032020700A20385E04282BDC2078012868
:10112000D4D027E000F01EF90A21695EE078814200
:101130000BD0297A202908D1002169812278521CFC
:1011400052B22270032A00DD21700A21715E8142B1
:101150000CD0307A202809D1002070812078401EE0
:1011600040B22070002801DA032020700A20385E87
:1011700004282BDC20780228D4D027E000F0ACF93A
:101180000A20285EE17888420BD0287A202808D1EE
:1011900000226A812078401C40B22070032800DDC4
:1011A00022700A20305E88420CD0307A202809D183
:1011B000002070812078401E40B22070002801DAA3
:1011C000032020700A20385E042802DC20780328DF
:1011D000D4D0F8BD2C0500204C0500200C050020C3
:1011E0005C000020F8B5584CEF2720780025C10698
:1011F000564E002903DA3840207000F0CDFC9AE00A
:101200005349202008705348C079002803D1524820
:10121000C079002807D020784D493840207002203E
:10122000085E002108E02078C10607D5384020700C
:1012300047490220085E012100F0CEFC444A45489F
:101240000A210C3A415E1279914202D0027A202A98
:1012500003D0C179012909D00BE03D4A0C3A117144
:1012600045813B484188491C418004E0017A21299D
:1012700010D020210172364937480A220C39825E8B
:1012800009798A4202D0017A20291FD0C179012927
:101290001ED020E0458100693049884206D21421E1
:1012A0000CE02B494888401C4880E4E72B49C9439F
:1012B00042182A49491E8A4205D20A21FEF72EFF0A
:1012C0000029EED0D7E7C007EBD0D4E7458116E080
:1012D000017A212909D0202101721D480222825E53
:1012E0001F498A4224DB418025E0458100691B4972
:1012F000884209D21421FEF711FF0029EDD11448CC
:101300004188491E4180E8E71449C94342181349FE
:10131000491E8A4209D20A21FEF700FF0029DCD1CA
:101320000B494888401E4880D7E7C007F8D0D4E76B
:10133000002A00DC4580307A202803D170890428F7
:1013400000D15DE7F8BD0000180000200C0500206A
:10135000680000202C0500204C05002070170000BC
:101360000F270000F8B5554CEF2720780025C1065F
:10137000534E002903DA3840207000F0B3FC94E0AB
:101380005048212101705048C079002803D14F48AE
:10139000C079002808D02078DF2108402070494912
:1013A0000220085E002108E02078C10607D53840F9
:1013B000207044490220085E012100F0B3FC414A3C
:1013C00041480A210C3A415E5279914202D0027A98
:1013D000202A03D0C179012905D007E0394A0C3A07
:1013E000517145811AE0017A212910D02021017222
:1013F000344936480A220C39825E49798A4202D041
:10140000017A20291FD0C179012922D024E0458109
:1014100000692F49884206D214210CE029484188EE
:10142000491C4180E4E72A49C94342182849491E1A
:101430008A4205D20A21FEF771FE0029EED0D7E7D5
:10144000C007EBD0D4E71F4945814888401E48803B
:1014500004E0017A212909D02021017219480222D1
:10146000825E1C498A421DDB41801EE04581006985
:101470001749884206D214210CE012484188491EBF
:101480004180EBE71249C94342181149491E8A427B
:1014900005D20A21FEF742FE0029EED0DEE7C007A2
:1014A000EBD0DBE7002A00DC4580307A202803D12E
:1014B0007089042800D163E7F8BD000018000020FF
:1014C0000C050020680000202C0500204C050020A1
:1014D000701700000F270000F8B5544CEF27207854
:1014E0000025C106524E002903DA3840207000F072
:1014F0009FFC93E04F48222101704F48C07900289B
:1015000003D14E48C079002807D020784949384097
:1015100020700220085E002108E02078C10607D56F
:101520003840207043490220085E012100F0A0FCF1
:10153000404A41480A210C3A415E9279914202D0D8
:10154000027A202A03D0C179012905D007E0394A5F
:101550000C3A917145811AE0017A212910D020219D
:101560000172344935480A220C39825E89798A42EF
:1015700002D0017A20291FD0C17901291ED020E094
:10158000458100692E49884206D214210CE0294881
:101590004188491C4180E4E72949C9434218284948
:1015A000491E8A4205D20A21FEF7B8FD0029EED075
:1015B000D7E7C007EBD0D4E7458127E0017A21299E
:1015C00009D0202101721B480222825E1D498A42F5
:1015D00021DB418022E0458100691949884206D219
:1015E00014210CE013484188491E4180EBE714495F
:1015F000C94342181249491E8A4205D20A21FEF700
:101600008DFD0029EED0DEE7C007DCD1094948880E
:10161000401E4880D7E7002A00DC4580307A202829
:1016200003D17089042800D164E7F8BD18000020B8
:101630000C050020680000202C0500204C0500202F
:10164000701700000F27000010B506480178CA0681
:1016500004D5EF221140017000F090FC02491F20D8
:10166000087010BD180000206800002070470000BE
:1016700030B5837801210278002B15D094080E4BE9
:10168000A400E41823689207D50EFF22AA409343D2
:1016900042789207120EAA401A4322600078C006D0
:1016A000C00E8140054804E0D006C00E81400348CA
:1016B0008030016030BD000000E400E000E100E0A7
:1016C000704730B582790021212320240D2A09D0CA
:1016D0000B2A14D00C2A11D184690269A2420DD3BD
:1016E000037207E085690269AA4208D30372C279CE
:1016F000002A03D101614189491C418130BD047236
:10170000F8E7000009494A6801239B039A434A60AD
:101710004A6883B21A434A600A6B8B159A430A637C
:101720000A6B000C02430A6370470000001002407D
:10173000044A0029516901D0014300E0814351610D
:101740007047000000100240044A0029D16901D00E
:10175000014300E08143D161704700000010024066
:10176000044A0029116901D0014300E0814311615D
:101770007047000000100240044A0029916901D01E
:10178000014300E081439161704700000010024076
:10179000044A0029D16801D0014300E08143D160AF
:1017A000704700000010024010B500F029F8012039
:1017B00000F03CF9012000F00DF90028FAD00020DB
:1017C00000F02AF9002000F03FF90521C9040020AB
:1017D00000F052F9012000F041F90848FFF792FFAC
:1017E000192000F0F7F80028FAD0022000F052F992
:1017F00000F00AF90828FBD110BD000000400001EC
:10180000124801680122114301604168104A1140E9
:10181000416001680F4A1140016001680122920491
:101820009143016041683F22120491434160C16AC3
:1018300009090901C162016B074A11400163416B4B
:10184000490849004163002181607047001002404F
:101850000CB8FF08FFFFF6FEACFEF0FFF8B5564DE2
:101860000446686800210C22544E104005D004281C
:1018700003D0082803D00C281AD026601AE0696823
:10188000686803228902D2030F0F1040BF1C002892
:101890000AD0E86A0107090F3046491CFEF73EFCF2
:1018A00078430146216005E0454839464143F9E760
:1018B000444820606868444F0006000F3B5C206885
:1018C0000246DA4062606B685B055B0FFB5CDA40E6
:1018D000A2602B6BDB0501D43C4B05E06B685B041D
:1018E00001D4530800E09308E3602B6B5F06384B8C
:1018F00003D4374F1237276100E023612F6BFF06B7
:1019000001D4666100E060612F6BBF070ED02F6BC2
:10191000BF07BF0F012F0BD02F6BBF07BF0F022FC9
:1019200008D02F6BFF43BF0706D006E0A26104E09A
:10193000A06102E0A36100E0A6612F6BBF03BF0FAF
:101940000FD02F6BBF03BF0F012F0CD02F6BBF0326
:10195000BF0F022F09D02F6BBF03BF0F032F06D07D
:1019600006E0E26104E0E06102E0E36100E0E661DC
:101970002F6B3F03BF0F0FD02A6B1203920F012A68
:101980000CD0286B0003800F022809D0286B0003BD
:10199000800F032806D006E0226204E0206202E005
:1019A000236200E02662286B000602D405486062CC
:1019B000F8BD6162F8BD00000010024000127A001C
:1019C00000093D00006CDC0284000020809FD500EF
:1019D00000800000034600200A495A090CD0012A61
:1019E0000CD0022A0CD0496BDA06D20E01239340A8
:1019F0000B4200D0012070470968F5E7096AF3E758
:101A0000496AF1E700100240024840680C21084092
:101A10007047000000100240034A5168F0239943C8
:101A20000143516070470000001002400549002842
:101A3000086802D00122104301E04008400008601D
:101A40007047000000100240034A516807231B0240
:101A5000994301435160704700100240012205493B
:101A600012060028086801D0104300E09043086087
:101A7000704700000010024010B5054A53687B24EF
:101A8000E403A3435360536808430343536010BD0A
:101A900000100240034A51688908890001435160DF
:101AA000704700000010024010B5044681880068AD
:101AB000FFF798F8217F152902D1012800D00020D6
:101AC00010BD000070B5104C0E4920782546095C09
:101AD0000C3529700D494000085A6860002001F05B
:101AE0005BFB686801F0FCFA287801F055FB686838
:101AF00001F0F6FA2078411C2170082801D300205B
:101B0000207070BDE004002048000020443200082E
:101B1000F1B50098FFF7D0F805460A210098FEF7C6
:101B2000FDFA024648001A4F1A4C385C0026207015
:101B3000022D07D310460A21FEF7F0FA4800385C60
:101B4000607000E06670032D0AD364210098FEF7F0
:101B5000E5FA0A21FEF7E2FA4800385CA07000E0DE
:101B6000A670042D0BD37D21C9000098FEF7D6FA8C
:101B70000A21FEF7D3FA4800385CE07000E0E67016
:101B80002671232060716D20A0710F20E071F8BDD7
:101B900056320008E00400200D48402101704170D9
:101BA00081700C4AC17093780021002B08D07323F8
:101BB00003714E23437183716323C3719170704726
:101BC000017141718171C1710120907070470000F5
:101BD000E004002048000020F3B581B00C460198D5
:101BE000FFF76AF8074620463B4E00253B4C00288D
:101BF0003CD03B48C078002830D00A210198FEF73D
:101C0000A3FA4900715C2170022F06D30A21FEF766
:101C10009BFA4800305C607000E06570032F0AD3C7
:101C200064210198FEF790FA0A21FEF78DFA480028
:101C3000305CA07000E0A570042F0BD37D21C9009B
:101C40000198FEF781FA0A21FEF77EFA4800305C1F
:101C5000E07000E0E5702248C57034E025706570E2
:101C6000A5701F48E5700121C1702CE00A21019880
:101C7000FEF76AFA4900715C2170022F12D30A2123
:101C8000FEF762FA4800305C6070032F0BD36421CA
:101C90000198FEF759FA0A21FEF756FA4800305C1F
:101CA000A07001E06570A570042F0BD37D21C900E1
:101CB0000198FEF749FA0A21FEF746FA4800305C1F
:101CC000E07000E0E570732020714E206071A0711B
:101CD0006320E071FEBD000056320008E0040020E1
:101CE0004800002010B50D484022027042708270FA
:101CF0000B4BC2701C790021002C08D07324047196
:101D00004271622282716322C271197110BD017128
:101D100041718171C1710120187110BDE004002072
:101D200048000020F3B581B00C460198FEF7C4FFCF
:101D3000074620463B4E00253B4C00283CD03B4804
:101D40004079002830D00A210198FEF7FDF94900BA
:101D5000715C2170022F06D30A21FEF7F5F94800C5
:101D6000305C607000E06570032F0AD36421019835
:101D7000FEF7EAF90A21FEF7E7F94800305CA070A7
:101D800000E0A570042F0BD37D21C9000198FEF758
:101D9000DBF90A21FEF7D8F94800305CE07000E07A
:101DA000E5702248457134E025706570A5701F48C4
:101DB000E570012141712CE00A210198FEF7C4F978
:101DC0004900715C2170022F12D30A21FEF7BCF981
:101DD0004800305C6070032F0BD364210198FEF73C
:101DE000B3F90A21FEF7B0F94800305CA07001E0B9
:101DF0006570A570042F0BD37D21C9000198FEF7F3
:101E0000A3F90A21FEF7A0F94800305CE07000E079
:101E1000E57073202071402060716220A071632002
:101E2000E071FEBD56320008E004002048000020AA
:101E30000D4840210170417081700C4AC170937946
:101E40000021002B09D047230371632343717623BC
:101E500083716D23C37191717047017141718171FB
:101E6000C171012090717047E004002048000020FB
:101E7000F3B581B00C460198FEF71EFF07462046D9
:101E80003B4E00253B4C00283CD03B48C079002805
:101E900030D00A210198FEF757F94900715C217092
:101EA000022F06D30A21FEF74FF94800305C60701C
:101EB00000E06570032F0AD364210198FEF744F90E
:101EC0000A21FEF741F94800305CA07000E0A570DF
:101ED000042F0BD37D21C9000198FEF735F90A21A3
:101EE000FEF732F94800305CE07000E0E57022480F
:101EF000C57134E025706570A5701F48E57001213B
:101F0000C1712CE00A210198FEF71EF94900715CAD
:101F10002170022F12D30A21FEF716F94800305C17
:101F20006070032F0BD364210198FEF70DF90A218D
:101F3000FEF70AF94800305CA07001E06570A570FA
:101F4000042F0BD37D21C9000198FEF7FDF80A216B
:101F5000FEF7FAF84800305CE07000E0E5704720DA
:101F60002071632060717620A0716D20E071FEBD4C
:101F700056320008E0040020480000200D484021AF
:101F80000170417081700C4AC17053780021002BA0
:101F900008D04E2303714371632383714723C371B8
:101FA00051707047017141718171C1710120507090
:101FB00070470000E004002048000020F3B581B025
:101FC0000298FEF779FE07460198FEF775FE00902D
:101FD0000A210298FEF7B8F8024648002F4D304C0F
:101FE000285C00262070022F07D310460A21FEF736
:101FF000ABF84800285C607000E06670032F0AD3DD
:1020000064210298FEF7A0F80A21FEF79DF8480027
:10201000285CA07000E0A67038467D27FF000428E9
:102020000AD339460298FEF78FF80A21FEF78CF89A
:102030004800285CE07000E0E6700A210198FEF795
:1020400083F84900695C21710099022906D30A21AD
:10205000FEF77AF84800285C607100E0667100982D
:1020600003280AD364210198FEF76EF80A21FEF7CF
:102070006BF84800285CA07100E0A6710098042865
:102080000AD339460198FEF75FF80A21FEF75CF89B
:102090004800285CE071FEBDE671FEBD56320008C6
:1020A000E0040020F1B50098FEF706FE05460A217F
:1020B0000098FEF749F8024648001A4F1A4C385C5F
:1020C00000262070022D07D310460A21FEF73CF8A7
:1020D0004800385C607000E06670032D0AD364210C
:1020E0000098FEF731F80A21FEF72EF84800385C18
:1020F000A07000E0A670042D0BD37D21C9000098CC
:10210000FEF722F80A21FEF71FF84800385CE0705D
:1021100000E0E6702671232060715E20A0710F2020
:10212000E071F8BD56320008E004002010B50949FE
:1021300000220A704A708A70CA70622463224023A7
:102140000C714A7100288B7101D0072000E07320C8
:10215000C87110BDE004002010B50C460121092013
:102160004902C006FEF73EFD094A002802D00128B8
:1021700006D001E0012C01D0002006E0302004E070
:10218000002C01D0362000E00620107210BD0000A7
:10219000E0040020F3B581B007460298FEF78CFDFD
:1021A00000252D4C0646012F05D0022F1CD025708E
:1021B0006570A57046E025706570A5702748E570CC
:1021C000017A002909D030212171472161714F2105
:1021D000A1716D21E1710572FEBD25716571A57159
:1021E000E57101210172FEBD0A210298FDF796FFFB
:1021F00049001B4F022E795C217006D30A21FDF79E
:102200008DFF4800385C607000E06570032E0AD3D3
:1022100064210298FDF782FF0A21FDF77FFF480045
:10222000385CA07000E0A570042E0BD37D21C9009E
:102230000298FDF773FF0A21FDF770FF4800385C34
:10224000E07000E0E57030202071472060714F2081
:10225000A0716D20E071FEBDE00400204800002068
:1022600056320008F7B507460298FEF725FD00250F
:102270002D4C0646012F05D0022F1CD0257065700D
:10228000A57046E025706570A5702848E570417A14
:10229000002909D05B212171472161714F21A17172
:1022A0006D21E1714572FEBD25716571A571E57104
:1022B00001214172FEBD0A210298FDF72FFF49005E
:1022C0001B4F022E795C217006D30A21FDF726FFF1
:1022D0004800385C607000E06570032E0AD364210A
:1022E0000298FDF71BFF0A21FDF718FF4800385C34
:1022F000A07000E0A570042E0BD37D21C9000298C8
:10230000FDF70CFF0A21FDF709FF4800385CE0707B
:1023100000E0E5705B202071472060714F20A071C4
:102320006D20E071FEBD0000E004002048000020A8
:1023300056320008FEB501214804FFF7F9F90121E2
:102340008804FFF7F5F90121C804FFF7F1F901212D
:102350000805FFF7EDF901214805FFF7E9F901212B
:102360008805FFF7E5F96846FEF744FC0126B60349
:102370000125684600960571002484714471C57179
:1023800069465E48FEF7F6FB5D48009068460571B9
:1023900084714471C57169465848FEF7EBFB694684
:1023A0005648FEF7E7FB69465448FEF7E3FB554FF6
:1023B00069463846FEF7DEFB07208002009068463B
:1023C000057184714471C57109206946C006FEF724
:1023D000D1FB09206946C006FEF7CCFB09206946FF
:1023E000C006FEF7C7FB4848009068460571847137
:1023F0004471C57169464548FEF7BCFB0920694632
:10240000C006FEF7B7FB424800906846057184712C
:1024100044710221C17169463C48FEF7ABFB694635
:102420003A48FEF7A7FB69463846FEF7A3FB694624
:102430003648FEF79FFB69463448FEF79BFB69462A
:102440003248FEF797FB69463048FEF793FB0022BF
:1024500001213846FEF7DAFBEC030022214627482B
:10246000FEF7D4FB002231462448FEF7CFFB0022C2
:10247000A1102248FEF7CAFB092000226111C00604
:10248000FEF7C4FB092000222111C006FEF7BEFBA7
:1024900009200022E110C006FEF7B8FB0022082147
:1024A0001A48FEF7B3FB092000222146C006FEF7BA
:1024B000ADFB002280211548FEF7A8FB0022202159
:1024C0001248FEF7A3FB002202213846FEF79EFBCE
:1024D000002210210D48FEF799FB002240210B48F5
:1024E000FEF794FB0022E1110848FEF78FFB002263
:1024F000A1110648FEF78AFBFEBD00000008004857
:1025000001E00000001400480880000000040048BA
:10251000F203000070470000F8B52748417A01290E
:102520002CD041780278914201D1012300E00023B0
:102530008370224C01212578092000274902C0061A
:102540001F2D13D026460222B25E74681A4EB66959
:102550007243202D13D0194E212D1BD0222D0DD1C9
:10256000002B26D0944222D2012218E0002B01D069
:10257000012200E00022FEF749FB6760F8BD002B56
:1025800005D00122FEF742FB0C484760F8BD94429B
:102590000DD8F8BD002B05D09442E5D8F8BDFEF764
:1025A00035FBF8BD0022FEF731FB7760F8BD002255
:1025B000F5E77760FBE700001000002068000020CE
:1025C00070B50E4C607A012817D0E078FF250926F7
:1025D0000135F606002804D0012229463046FEF7D0
:1025E00015FB1020205EFA2807DB0020E070208217
:1025F000024629463046FEF709FB70BD1000002058
:1026000013491120086013484168416041684160E6
:1026100041687F22D2039143416041680522D20480
:1026200011434160016801221206114301600168F3
:102630008901FCD54168890889004160416802220E
:102640001143416041680907890F0229FAD1704797
:10265000002002400010024070B5124C0125607A43
:1026600001280AD0E9021048FEF7BCFA002803D07E
:1026700000206072A07170BD6572A06A6428FAD3F0
:10268000A57109250121ED06002249022846FEF721
:10269000BDFAFF21002201312846FEF7B7FAE06AB1
:1026A000206370BD10000020000400487047000047
:1026B00010B5144801680122114301604168124AB3
:1026C000114041600168114A114001600168012216
:1026D00092049143016041683F221204914341609A
:1026E000C16A09090901C162016BFF225432914399
:1026F0000163416B49084900416300218160FFF794
:102700007FFF10BD001002400CB8FFF8FFFFF6FE7F
:1027100010B5064C0121204600F0DAF8002803D05D
:102720000121204600F060F810BD0000002C01409F
:1027300010B501218C07204600F0CAF8002803D00C
:102740000121204600F050F810BD000070B51D4E6C
:102750000121304600F0BCF8002832D01A4CE06865
:10276000401CE0600A21E068FDF7D8FC0025002944
:1027700019D116480078002803D015490888401C54
:102780000880FFF79FF9FEF761FB12480168491CBA
:102790000160114811490078002803D00868401CE6
:1027A000086000E00D60E0680D49884205D30D48DF
:1027B0001022017811430170E5600121304600F0DC
:1027C00013F870BD0004004000000020130000203A
:1027D000200000203C0000201900002038000020CC
:1027E0008813000018000020C943018270470029A7
:1027F000018802D00122114301E04908490001800B
:10280000704700002A4910B5884202D10121C41442
:102810003AE001218907884206D101210846FEF7E6
:102820009FFF0021012008E02249884208D10121B0
:102830000220FEF795FF00210220FEF791FF10BD58
:102840001D49884206D101211020FEF789FF002191
:102850001020F2E71949884206D101212020FEF715
:102860007FFF00212020E8E71549884207D1841521
:1028700001212046FEF774FF00212046DDE71149C3
:10288000884209D101210C042046FEF781FF002176
:102890002046FEF77DFF10BD0B49884202D1012181
:1028A0004C04F1E709498842F5D101218C04EBE79A
:1028B000002C0140000400400010004000140040C3
:1028C0000020004000400140004401400048014019
:1028D0000246138A002092890B400A40002B02D046
:1028E000002A00D001207047002A828901D00A43C3
:1028F00000E08A4382817047828870239A438280F5
:1029000082880A438280704710B50288144B98422F
:1029100006D00124A407A04202D0124CA04203D149
:102920007024A2434C8822430F4CA04203D00F4C8A
:1029300022400C89224302804A68C2620A880285CA
:10294000984208D00A4A904205D00A4A904202D0E2
:10295000094A904201D1897A01860121818210BD04
:10296000002C01400004004000100040FFFC00006B
:102970000040014000440140004801400021C9439B
:1029800041600021018001814180817270470021F6
:102990000A22504300E0491C8842FCD8704702E0FC
:1029A00008C8121F08C1002AFAD1704770470020DA
:1029B00001E001C1121F002AFBD1704730B501218F
:1029C00087B04802FEF7D8FE1C4C2046FDF740FCBD
:1029D0006846FDF798FC002168460171802003904D
:1029E000C000009104910591029069462046FDF7D0
:1029F00065FC01212046FDF777FC032204212046D7
:102A0000FDF706FC2046FDF733FC01212046FDF7CB
:102A100004FC0B4D20462946FDF741FC0028F9D067
:102A200001212046FDF702FC02212046FDF708FCAB
:102A30002046FDF763FC07B030BD000000240140D4
:102A40000100000170B501218CB00846FEF770FE50
:102A50000921684601700125857000244470FEF745
:102A600007FE154E3046FDF785FE01A8FDF718FF5D
:102A7000124802900394A80208900B9480200690BC
:102A80000495202009900E48019080150790059428
:102A900040010A9001A93046FDF7E4FE012202211F
:102AA0003046FDF7D7FE0220FDF74CFE01213046EF
:102AB000FDF754FE0CB070BD0800024094000020E9
:102AC000402401401CB501214804FEF731FE684650
:102AD000FEF790F80420009003206946087100205A
:102AE000887148710120C8710920C006FEF742F8BC
:102AF0001CBD0000F0B585B001210220FEF724FEC8
:102B00000121C802FEF738FE01210846FEF71CFE2F
:102B100001214804FEF70CFE0F21684601730125D0
:102B200085730024447303A8FEF7A2FD10216846B4
:102B300001738573457303A8FEF79AFD1D4F384650
:102B4000FFF760FE6846FFF719FF6846048144807E
:102B50000A252F2601950680847269463846FFF7BC
:102B6000D3FE012211463846FFF7BEFE012138464A
:102B7000FFF73DFE6F073846FFF744FE6846FFF754
:102B8000FDFE684644800195068084726946384699
:102B9000FFF7BAFE012211463846FFF7A5FE2021B5
:102BA0003846FFF7A9FE01213846FFF720FE05B0A1
:102BB000F0BD0000000400401CB501214C0420467B
:102BC000FEF7B6FD01212046FEF7B2FD0120694661
:102BD000087188710020C871032048718020092481
:102BE000E40600902046FDF7C5FF402000906946AE
:102BF0002046FDF7BFFF00F073F91CBDFEF712F889
:102C0000274C284D207A294E400840002072618AC6
:102C100025488B001A1836681660C0582A68491C67
:102C2000121888B22A606082802804D9002060824D
:102C30000120207102E02079002804D000202071BA
:102C4000D109E1612860FFF707FD0926F606184F54
:102C500015E00121002249023046FDF7D7FFFF2190
:102C6000002201313046FDF7D1FF216BE06A401AA6
:102C7000B84204D30020A071A062607202E0A07983
:102C80000028E6D1FFF79CFCFDF718FEFDF744FB9A
:102C900060793328B6D100F0D7F900F067F9B1E7D1
:102CA00010000020D8040020D800002008000020D8
:102CB000204E000010B5A02000F08EF8002803D0B0
:102CC00000F00EF9002010BD012010BDF8B515462A
:102CD0000C46064600F0F0F8A02000F0C9F800F01D
:102CE0000DF900280FD1E0B200F0C2F800F006F9AB
:102CF000002808D100F0E0F8A12000F0B9F800F0B9
:102D0000FDF8002803D000F0EBF80020F8BD002407
:102D10006F1E0BE000F090F83055BC4202D000F07E
:102D200047F801E000F076F8641CA4B2AC42F1D39D
:102D300000F0D6F80120F8BDF7B517460C4600257F
:102D400030E0002D01D060071CD100F0C9F800264A
:102D500000F0B2F8A02000F08BF800F0CFF80028C7
:102D600005D0761C7D20B6B2C0008642F0D37D200F
:102D7000C00086420ED0E0B200F07AF800F0BEF853
:102D8000002807D10098405D00F072F800F0B6F816
:102D9000002803D000F0A4F80020FEBD641C6D1CC8
:102DA000A4B2ADB2BD42CCD300F09AF80120FEBD72
:102DB000F8B5084D40242C8100F026F8092780261C
:102DC000FF06BE6100F020F82E8100F01DF8BC6106
:102DD000F8BD00002000004810B509210446C906CE
:102DE000088A40060ED5088A00060BD500F064F864
:102DF000204600F03DF800F081F8044600F070F83D
:102E0000204610BD012010BD0020401CC0B21E286D
:102E1000FBD3704770B509244020E406A061FFF79A
:102E2000F3FF8025A561FFF7EFFF02480581FFF75B
:102E3000EBFF70BD20000048F8B500240927FF060D
:102E4000254680266006040EBE61FFF7DDFF388A46
:102E5000400601D5641CE4B204480681FFF7D4FFA4
:102E60006D1CEDB2082DEDD32046F8BD20000048C2
:102E7000F8B50024802709260546F606280602D55F
:102E80004020B06102E00B4940200881FFF7BCFF01
:102E9000B761FFF7B9FF07480781072C01D1402030
:102EA000B0616806050EFFF7AFFF641CE4B2082CA2
:102EB000E4D3F8BD2000004870B540250920C006C5
:102EC000856180248461FFF79FFF044E3581FFF701
:102ED0009BFF3481FFF798FF70BD00002000004881
:102EE00070B505484024048109258020ED06A861BD
:102EF000FFF78AFFAC6170BD2000004870B509245F
:102F00004020E406A061FFF77FFF8025A561FFF761
:102F10007BFF208A400601D5012400E000240348FD
:102F20000581FFF771FF204670BD000020000048BA
:102F300010B5FEF739FCFFF7FDF900F079F90A4802
:102F4000FEF78CFCFFF738FEFDF772FBFDF740FF44
:102F5000FDF7CCFAFF20F530401E00B20028FBDC64
:102F6000FFF74CFE002010BDA0000020F8B5314C4A
:102F7000314DA07A68703148C079012802D1E079DA
:102F8000012855D02E48C079012851D02D482A4E0D
:102F9000C07900270C3601284AD03FE0FDF7EAFF50
:102FA0000A20205E69788842207A32D0202835D1E4
:102FB0000321618130781F2806D0202806D02128DF
:102FC00006D0222807D007E02F7005E0012000E09E
:102FD0000220287000E02970FEF744F8207A2028AB
:102FE0001CD10A20205E042815DB13486781E77195
:102FF00004220A210C30FFF79FFE04221421B01C8A
:10300000FFF79AFE0C4804221E210830FFF794FEB9
:1030100004E0202802D160890328DDD0E07901286E
:1030200003D1A16920698842B8D2207A2128B5D07D
:10303000F8BD00000C0500205C0000204C050020BD
:10304000EC0400202C050020F8B5012409256402B9
:10305000ED0621462846FDF7C5FD024621462846D5
:10306000FDF7D4FD194CE07901282DD11848C1791C
:10307000012929D00027174D174EFDF78BF87D2029
:10308000C000FFF784FC19E002206968FFF782F8AE
:10309000207A212812D1E079012815D16089A081F8
:1030A000202020720D491F204F8108727781084926
:1030B00030724F8108722F70FDF70AFE207A2028A7
:1030C000E2D0E0790128D8D0F8BD0000EC0400205F
:1030D0000C050020700000204C0500202C0500206D
:1030E00030B5C2070121002A02D01F4A916102E0D7
:1030F0001D4A203211811D491D4A1E4B840701D5EE
:10310000916100E019811C4C450701D5946100E0F4
:103110001C811A4C050701D5946100E01C81184CF4
:10312000184A194BC50601D5946100E01C81174C63
:10313000850601D5946100E01C81154C450601D53A
:10314000946100E01C8105060824002D02DA114D6F
:10315000AC6102E00F4D20352C81C00501D5916195
:1031600030BD198130BD000000140048008000000F
:10317000000800482008004800400000002000002F
:103180000004000000000048200000480008000083
:10319000001000000004004870B50446204DC00730
:1031A00001D0002200E0012280212846FDF72EFDFB
:1031B000A00701D5002200E0012220212846FDF7CA
:1031C00025FD1848610701D5002200E001220221F7
:1031D000FDF71CFD200701D5002200E0012210218F
:1031E0002846FDF713FDE00601D5002200E001228C
:1031F00040212846FDF70AFD0B49A00601D5002213
:1032000000E001222846FDF701FD0849600601D5CE
:10321000002200E001222846FDF7F8FC70BD000006
:1032200000040048001400480001000000020000F3
:1032300010B5FFF747FCFFF7C1FBFFF703FCFFF7F3
:1032400059FC10BD0100020004000800100020001D
:103250004000800000013F0030005B0079007400F6
:103260006D006F0038007F007D007E0067000F005A
:1032700073004F004E0040006300620023006D00A9
:103280004700000007005E004E00760039000E0087
:10329000010002000400080010002000400080002F
:1032A000FF00000037000000C832000800000020C6
:1032B000940000009E2900085C3300089400002060
:1032C000DC080000AE29000800000000000000003B
:1032D00000000000000000000001000000330000BA
:1032E000000000000000E8030000000000000000F3
:1032F0001700000000000000E803000000000000CC
:1033000000000000000000000000000000000000BD
:1033100000010101010101010000000000000000A6
:10332000000000000000000000000000E8030000B2
:103330001F000A0000000000000000000000000064
:10334000000000000000000000000000000000007D
:0C3350000102030401020304060708093F
:04000005080000B13E
:00000001FF
