:020000040800F2
:10000000500A0020C50000085B05000859050008DB
:1000100000000000000000000000000000000000E0
:10002000000000000000000000000000950800082B
:100030000000000000000000AD05000831090008C4
:10004000F5000008F5000008F5000008F5000008BC
:10005000F5000008F5000008F5000008F5000008AC
:100060000000000075020008F5000008F500000817
:10007000F500000895090008F5000008B50900081A
:10008000F50000080000000000000000F500000876
:1000900000000000F5000008F5000008F500000869
:1000A00000000000F500000800000000F500000856
:1000B0000348854600F048F800480047FD14000852
:1000C000500A00200C4880F308880C480168090E8B
:1000D0000B4A914205D10B480B4901600B480C4972
:1000E00001600C4880470C480047FEE7FEE7FEE74A
:1000F000FEE7FEE7FEE70000500A002004000000D3
:100100001F00000018100240010000000000014024
:100110000000000035090008B100000830B50B46AA
:10012000014600202022012409E00D46D5409D42D1
:1001300005D31D469540491B254695404019154657
:10014000521E002DF1DC30BD064C0125064E05E0A7
:10015000E36807CC2B430C3C98471034B442F7D3E8
:10016000FFF7AAFF5415000874150008836A0B43B3
:100170008362426170470029816801D0012200E05A
:1001800002221143816070470029C16802D0012218
:10019000114301E049084900C1607047C268022369
:1001A0009A43C260C2680A43C2607047064910B5EC
:1001B000884208D144150121204600F03FFA002171
:1001C000204600F03BFA10BD002401408268002167
:1001D0000123DB071A4382600F231B038268491C3B
:1001E000D20FD207994201D0002AF7D181680029A5
:1001F00001DB006C70470020704702460020CB01F5
:1002000004D5926801231B069A4300E012680A4253
:1002100000D001207047000030B5C368084A8C68E0
:1002200013400A680D792243CC686D032C432243A6
:100230000C69496922430A431A43C26030BD000079
:1002400003D2FFFF012212030029C16801D011432C
:1002500000E09143C16070478168042211438160CE
:1002600070470021016001718160C16001614161DD
:100270007047000070B5022000F0B2F800282ED0C0
:1002800019480178002923D1184943780D460C8874
:100290005A000C35AC52FF354C880135AC52FF3555
:1002A0008C880135AC52FF35CC880135AC52FF3516
:1002B0004C890135AC52EC1D0989F934A152092150
:1002C000C9068A8A0124240362408A825B1C437027
:1002D0004178802903D3002141700121017002205F
:1002E00000F006F870BD000000000020180000209B
:1002F000C10001D5024900E0024948607047000092
:1003000000040240000002400029016802D00122DE
:10031000114301E0014A114001607047FEFF0000F7
:10032000F0B501682B4A1140016000210160416075
:100330008160C1602849284B08390F22984201D1B9
:10034000486823E0244CF0231434A04229D0224DE5
:100350001C012835A8422BD01F4E1D023C36B0424E
:100360002DD01D4F1E035037B8422FD01A4F64377F
:10037000B84204D148681A0408E04860F0BD164F3E
:100380007837B84204D148680F2212061043F4E7C8
:100390001249124F0839B842D2D0104A1432904252
:1003A00002D148681843E8E70C4A2832904202D14B
:1003B00048682043E1E7094A3C32904202D148684C
:1003C0002843DAE7054A50329042D7D14868304393
:1003D000D3E70000FEFF00000800024008040240CE
:1003E00001460020CA0001D5034A00E0034A126812
:1003F0000A4200D001207047000402400000024081
:10040000002A026801D00A4300E08A430260704774
:1004100030B503680C4A0C6A13408A684D69224360
:100420000C692C4322438C692243CC6922434C6AD9
:1004300022438C6A22431A430260CA6842600A68F7
:1004400082604968C16030BD0F80FFFF00210160FC
:1004500041608160C160016141618161C16101628E
:100460004162816270471CB50121480400F0B6F872
:10047000684600F05FF82120C001009001206A4624
:100480001071002191715171D07109206946C00627
:1004900000F001F81CBDF0B50022012423460D68D0
:1004A00093401D409D422AD10D79012D01D0022D8E
:1004B00012D1876855000326AE40B74387604E7956
:1004C000AE4085682E43866085889D4385808588FB
:1004D0008B7993401D438580066855000323AB400C
:1004E0009E4306600E790768AE403E430660C668CC
:1004F0009E43C660CB79AB40C5682B43C360521C9A
:10050000102ACBD3F0BD4B07DB0E9A40C90810B5BB
:1005100089000818016A0F249C40A1430162016A06
:100520001143016210BD0246928A00200A4200D0A7
:1005300001207047044901600021017101224271CC
:100540008171C17170470000FFFF0000002A01D0D7
:100550008161704701857047FEE7704730B5837849
:1005600001210278002B15D094080E4BA400E4184A
:1005700023689207D50EFF22AA4093434278920740
:10058000120EAA401A4322600078C006C00E8140B5
:10059000054804E0D006C00E814003488030016069
:1005A00030BD000000E400E000E100E07047000022
:1005B00009494A6801239B039A434A604A6883B207
:1005C0001A434A600A6B8B159A430A630A6B000C44
:1005D00002430A637047000000100240044A0029E9
:1005E000516901D0014300E081435161704700002F
:1005F00000100240044A0029D16901D0014300E003
:100600008143D1617047000000100240044A002974
:10061000116901D0014300E081431161704700007E
:1006200000100240044A0029916901D0014300E012
:10063000814391617047000000100240044A002984
:10064000D16801D0014300E08143D16070470000D0
:100650000010024010B50521C904002000F002F985
:10066000012000F0F1F80848FFF7A2FF192000F080
:10067000C9F80028FAD0022000F002F900F0DCF8F6
:100680000828FBD110BD000000400001F8B5564D10
:100690000446686800210C22544E104005D00428FE
:1006A00003D0082803D00C281AD026601AE0696805
:1006B000686803228902D2030F0F1040BF1C002874
:1006C0000AD0E86A0107090F3046491CFFF726FDEA
:1006D00078430146216005E0454839464143F9E742
:1006E000444820606868444F0006000F3B5C206867
:1006F0000246DA4062606B685B055B0FFB5CDA40C8
:10070000A2602B6BDB0501D43C4B05E06B685B04FE
:1007100001D4530800E09308E3602B6B5F06384B6D
:1007200003D4374F1237276100E023612F6BFF0698
:1007300001D4666100E060612F6BBF070ED02F6BA4
:10074000BF07BF0F012F0BD02F6BBF07BF0F022FAB
:1007500008D02F6BFF43BF0706D006E0A26104E07C
:10076000A06102E0A36100E0A6612F6BBF03BF0F91
:100770000FD02F6BBF03BF0F012F0CD02F6BBF0308
:10078000BF0F022F09D02F6BBF03BF0F032F06D05F
:1007900006E0E26104E0E06102E0E36100E0E661BE
:1007A0002F6B3F03BF0F0FD02A6B1203920F012A4A
:1007B0000CD0286B0003800F022809D0286B00039F
:1007C000800F032806D006E0226204E0206202E0E7
:1007D000236200E02662286B000602D405486062AE
:1007E000F8BD6162F8BD00000010024000127A00FE
:1007F00000093D00006CDC0202000020809FD50053
:1008000000800000034600200A495A090CD0012A42
:100810000CD0022A0CD0496BDA06D20E0123934089
:100820000B4200D0012070470968F5E7096AF3E739
:10083000496AF1E700100240024840680C21084074
:1008400070470000001002400122054912060028EE
:10085000086801D0104300E0904308607047000032
:100860000010024010B5054A53687B24E403A343FB
:100870005360536808430343536010BD00100240A7
:10088000034A51688908890001435160704700009C
:1008900000100240704700001CB500212248019161
:1008A0000091026801231B041A4302605B000522C9
:1008B000120304681C400094019C641C0194009C79
:1008C000002C02D1019C9442F3D10268920328D5F6
:1008D00001210091154A1121116041684160416870
:1008E000416041687F22D2039143416041681122F7
:1008F0001204114341600168012212061143016094
:1009000001688901FCD54168890889004160416816
:1009100002221143416041680907890F0229FAD177
:100920001CBD00911CBD00000010024000200240D0
:100930007047000010B5144801680122114301609E
:100940004168124A114041600168114A114001603A
:100950000168012292049143016041683F22120420
:1009600091434160C16A09090901C162016BFF221B
:10097000543291430163416B4908490041630021AE
:100980008160FFF789FF10BD001002400CB8FF081E
:10099000FFFFF6FE10B5064C0121204600F0AEF830
:1009A000002803D00121204600F029F810BD0000E6
:1009B000002C014070B501218C07204600F09EF804
:1009C000002810D00925ED0680212846FFF7ABFD51
:1009D000002809D0002280212846FFF7B7FD012119
:1009E000204600F00CF870BD0122F4E780220029B7
:1009F000018801D0114300E0914301807047C94351
:100A0000018270470029018802D00122114301E0D0
:100A1000490849000180704740300029818803D08F
:100A20000122D203114301E04904490C818070473F
:100A30002A4910B5884202D10121C4143AE00121AB
:100A40008907884206D101210846FFF7DFFD002112
:100A5000012008E02249884208D101210220FFF745
:100A6000D5FD00210220FFF7D1FD10BD1D498842B0
:100A700006D101211020FFF7C9FD00211020F2E767
:100A80001949884206D101212020FFF7BFFD00212E
:100A90002020E8E71549884207D184150121204626
:100AA000FFF7B4FD00212046DDE71149884209D156
:100AB00001210C042046FFF7C1FD00212046FFF76D
:100AC000BDFD10BD0B49884202D101214C04F1E764
:100AD00009498842F5D101218C04EBE7002C014043
:100AE00000040040001000400014004000200040BE
:100AF0000040014000440140004801400246138A82
:100B0000002092890B400A40002B02D0002A00D01E
:100B100001207047002A828901D00A4300E08A43FD
:100B20008281704730B5028C520852000284038CD7
:100B30008288048B7025AC43A4080D88A40025434B
:100B40000224A3438C891C434B8823430F4CA042AF
:100B500008D00F4CA04205D00E4CA04202D00E4C43
:100B6000A0420DD10824A343CC891C4304239C43F9
:100B70008B882343094C22400C8A14434A8A22431F
:100B80008280058389684163038430BD002C014065
:100B9000004001400044014000480140FFFC0000CB
:100BA000028B08239A430A430283704770B5028C74
:100BB00010239A430284048C8288038B1A4D2B40A5
:100BC0000D782D062D0C1D4320239C438B891B057E
:100BD0001E0C4B8826431B051B0C144C3343A042B0
:100BE00002D0134EB04219D1124E32400E8AB604D2
:100BF000360C3243A04211D18024A343CC89240572
:100C0000240C1C4340239C438B881B051B0C234353
:100C1000094C22404C8AA404240C22438280058380
:100C200089688163038470BDFF8C0000002C014043
:100C300000400140FFFB0000FFF70000028B034B68
:100C400009021A401143018370470000FFF70000BA
:100C500030B5028C1A4B1A400284038C8288848B34
:100C60007025AC43A4080D88A4002543154C2340EF
:100C70000C7B2406240C1C438B781B061B0C234383
:100C8000114CA04215D1114C23408C7B2406240C1E
:100C90001C430F4B1C400B791B061B0C23430D4CB4
:100CA00022400C8A2405240C14434A8A1205120C93
:100CB0002243828085838968C163038430BD00003C
:100CC000FFFE0000FFFD0000002C0140FFF70000C8
:100CD000FFFB0000FFCF0000828B08239A430A43EA
:100CE00082837047828870239A43828082880A4375
:100CF0008280704710B50288144B984206D00124B8
:100D0000A407A04202D0124CA04203D17024A243F7
:100D10004C8822430F4CA04203D00F4C22400C8938
:100D2000224302804A68C2620A880285984208D03B
:100D30000A4A904205D00A4A904202D0094A90429B
:100D400001D1897A01860121818210BD002C0140E8
:100D50000004004000100040FFFC00000040014083
:100D600000440140004801400021C9434160002186
:100D7000018001814180817270470029016802D0A1
:100D80000122114301E04908490001607047000059
:100D900010B5012186B08803FFF744FCE120400232
:100DA000009000200C21084C0590039002900491C3
:100DB00001906946204600F011F801212046FFF716
:100DC000DCFF06B010BD0000003801400246D269C9
:100DD00000200A4200D001207047000030B50446D0
:100DE00000688BB00D464008400020606068032119
:100DF00009038843A9680143616020681C49EA68C7
:100E00000840696811432A69024311432160A068C0
:100E100003210902884369690143A1606846FFF71D
:100E200035FC1448844201D106980AE012488442F5
:100E300001D1079805E01148844201D1089800E0EB
:100E4000029821680904296800D54000FFF766F977
:100E50002A6852088A4200D8401C2168090404D537
:100E60000107074A490F10400843A0810BB030BD6D
:100E7000F3E9FFFF00380140004400400048004013
:100E8000F0FF0000C905C90D018570470FB410B50A
:100E900003A9044B044A029800F018F810BC08BCDF
:100EA00004B01847D91400081400002002E008C854
:100EB000121F08C1002AFAD170477047002001E0D4
:100EC00001C1121F002AFBD170470000FFB58FB08F
:100ED0000546002606E025280AD0129A1199904767
:100EE0006D1C761C28780028F5D1304613B0F0BD73
:100EF000002402940121B54A009400E004436D1CD3
:100F00002B780846203B98401042F7D128782A28B1
:100F10000ED00222287801463039092916D80299C4
:100F20000A2359433039401814436D1C0290F1E7ED
:100F3000109802C802911090002904DA01204003A1
:100F4000044348420290022004436D1C28782E2856
:100F500017D10420044368786D1C2A280CD11098FE
:100F60006D1C02C8009110900BE000990A225143B9
:100F7000303940186D1C0090287801463039092915
:100F8000F3D928786C2810D006DC4C281AD06828B1
:100F90000ED06A2817D104E0742813D07A2812D111
:100FA00010E00120400504430CE00121090501E0A7
:100FB000032109050C436978814203D10120000512
:100FC00024186D1C6D1C2878692874D006DC002854
:100FD0008BD0632827D0642806D16CE06E2808D017
:100FE00073282CD0752878D0129A11999047761CC6
:100FF0005FE06002400F022809D003280DD00428CA
:10100000109801680DD00E60001D109051E01098EE
:10101000F21701680E604A60F6E7109801680E80CA
:10102000F2E70E70F0E710986A4601781173001D20
:1010300010900020507303A80190012005E0109843
:1010400002C8019110900020C04361070CD5002711
:1010500000E07F1C00998F420FDA8742F9DB01998B
:10106000C95D0029F5D108E0002700E07F1C874218
:10107000FCDB0199C95D0029F8D102982146C01B0B
:101080000290129B119A00F0B3F88019C61907E07C
:10109000019801990078491C0191129A1199904781
:1010A0007F1EF5D22146129B119A029800F090F80B
:1010B00086196D1C16E70A200190109901C910913C
:1010C0006102490F032900D100B2042900D140B2C6
:1010D000002803DA40422D2103E00DE0210504D56C
:1010E0002B216A461173012103E0E10711D0202171
:1010F000F7E70CAF0C9114E00A200190109901C998
:1011000010916102490F032900D180B2042900D156
:10111000C0B20021EDE70199FFF700F830317F1EE2
:1011200039700028F7D104A8C01B20300190600757
:1011300004D5012000048443009801E001200090C0
:101140000199884201DD401A00E00020411800901A
:101150000C9809180298401A0290E00306D4214620
:10116000129B119A029800F043F8861900200D9006
:1011700008E003A9085C129A119990470D98401C49
:10118000761C0D900C998842F3DBE0030CD52146C8
:10119000129B119A029800F02BF8861904E0129A1B
:1011A000302011999047761C0099481E0090002924
:1011B000F5DC05E03878129A7F1C11999047761C6F
:1011C0000199481E01900029F4DC6BE70928010011
:1011D000F8B5044600251E461746880404D405E0E9
:1011E00039462020B0476D1C641EF9D52846F8BD4D
:1011F000FFB50446002581B01E46C80301D530273F
:1012000000E02027880404D505E038460399B0475C
:101210006D1C641EF9D5284605B0F0BD30B501211E
:1012200087B04802FFF7FEF91B4C2046FEF7BEFFD1
:101230006846FFF716F8002168460171E014009136
:10124000049103910591029069462046FEF7E4FF60
:1012500001212046FEF7F6FF002201212046FEF77D
:1012600085FF2046FEF7B2FF01212046FEF783FFEF
:101270000A4D20462946FEF7C0FF0028F9D001217B
:101280002046FEF781FF02212046FEF787FF204619
:10129000FEF7E2FF07B030BD00240140010000016D
:1012A00070B501218CB00846FFF798F9092168460E
:1012B00001700125857000244470FFF74FF9154E29
:1012C0003046FFF72DF801A8FFF7C0F8124802904A
:1012D0000394A80208900B94802006900495202087
:1012E00009900E48019080150790059440010A90DE
:1012F00001A93046FFF78CF8012202213046FFF7A2
:101300007FF80220FEF7F4FF01213046FEF7FCFFD4
:101310000CB070BD080002401800002040240140BD
:101320001CB5072001214004FFF758F96846FFF774
:1013300001F901200322694600900A7100228A7196
:101340004A71C8710920C006FFF7A5F81CBD00004E
:10135000F0B501218BB0C802FFF74CF90121084616
:10136000FFF748F901214804FFF738F903A8FFF710
:10137000E1F8574803900221684601740024447440
:101380000925C474ED0603A92846FFF784F8022254
:1013900011462846FFF7B7F8022208212846FFF732
:1013A000B2F8022209212846FFF7ADF802220A21ED
:1013B0002846FFF7A8F80D216846017501258575B7
:1013C000447505A8FFF7CAF8A807FFF731FB684680
:1013D000FFF7CAFC6E026846068144803C200190FB
:1013E0002F216846018084726946A807FFF782FCB6
:1013F00060276846078345830320089068468484F5
:1014000006A9A807FFF724FC0821C806FFF764FC1B
:1014100001218807FFF7EAFA012211469007FFF73A
:1014200079FB20214806FFF75DFC01218807FFF7C3
:10143000E9FA0121C802FFF7F5F82F21684601807B
:1014400044803C20019068460681224E84726946A1
:101450003046FFF74FFC68460783458384838484C6
:101460000821C184490101854485042406A9304628
:101470000894FFF757FB08213046FFF791FB06A9B8
:1014800030460894FFF792FB08213046FFF7D6FB61
:1014900006A930460894FFF7DBFB08213046FFF72A
:1014A0001BFC012211463046FFF734FB2021304659
:1014B000FFF718FC01213046FFF798FA012130466A
:1014C000FFF7A0FA01213046FFF7A6FA0BB0F0BDF6
:1014D00004070000002C014070B5074D0446402170
:1014E0002846FFF773FC0028F9D0E1B22846FFF741
:1014F000C9FC204670BD000000380140FFF7AAF883
:10150000FEF7B1FF00F01AF80748FFF7BFF8074DE4
:10151000074C00260021695E06A0FFF7B7FC207883
:101520000128F7D12670F5E72406002018000020D6
:10153000000000202534640D0A00000010B5FFF7FC
:10154000EFFEFFF76BFEFFF7ABFEFFF701FFFFF7C4
:101550001FFC10BD741500080000002018000000DA
:10156000AC0E00088C15000818000020380A000096
:10157000BC0E00080000000000000102030401028C
:0C1580000304060708090000000000003A
:04000005080000B13E
:00000001FF
