:020000040800F2
:1000000098090020C500000845190008F50E0008F1
:1000100000000000000000000000000000000000E0
:10002000000000000000000000000000352900086A
:10003000000000000000000099190008E92A0008EB
:10004000F5000008F5000008F5000008F5000008BC
:10005000F5000008F5000008F5000008F5000008AC
:1000600000000000A9060008F5000008F5000008DF
:10007000F50000084D2B0008F50000086D2B000866
:10008000892B00080000000000000000F5000008B7
:1000900000000000F5000008F5000008F500000869
:1000A00000000000F500000800000000F500000856
:1000B0000348854600F05CF8004800476D330008AF
:1000C000980900200C4880F308880C480168090E44
:1000D0000B4A914205D10B480B4901600B480C4972
:1000E00001600C4880470C480047FEE7FEE7FEE74A
:1000F000FEE7FEE7FEE7000098090020040000008C
:100100001F00000018100240010000000000014024
:1001100000000000ED2A0008B100000830B50B46D1
:10012000014600202022012409E00D46D5409D42D1
:1001300005D31D469540491B254695404019154657
:10014000521E002DF1DC30BD70B50024254600287C
:1001500001DA01244042002901DA01254942FFF772
:10016000DDFFAC4200D04042002C00D0494270BDBF
:10017000064C0125064E05E0E36807CC2B430C3CFA
:1001800098471034B442F7D3FFF796FF04370008BE
:1001900024370008F8B5194D0026194C194F6E6028
:1001A00027E019480178002923D006701348001D64
:1001B00000F0B6FD7D206968C000814202D9206848
:1001C000401E03E0814202D22068401C20600F489C
:1001D0002168814201DB206002E0002900DC26600A
:1001E000208881B2002000F047FA0121002000F0B1
:1001F0004DFA6868C0196528D3D2F8BD8C0000207C
:100200004C0000204AFCFFFF00000020FF0F000010
:10021000836A0B438362426170470029816801D081
:10022000012200E002221143816070470029C16869
:1002300002D00122114301E049084900C160704722
:10024000C26802239A43C260C2680A43C260704710
:10025000064910B5884208D144150121204601F015
:1002600003FC0021204601F0FFFB10BD00240140EB
:10027000826800210123DB071A4382600F231B03DE
:100280008268491CD20FD207994201D0002AF7D1C7
:100290008168002901DB006C70470020704702462E
:1002A0000020CB0104D5926801231B069A4300E08D
:1002B00012680A4200D001207047000030B5C368C0
:1002C000084A8C6813400A680D792243CC686D0394
:1002D0002C4322430C69496922430A431A43C260F2
:1002E00030BD000003D2FFFF012212030029C168C4
:1002F00001D0114300E09143C1607047816804223E
:100300001143816070470021016001718160C1600B
:100310000161416170470000F8B55D4D287A2128E0
:100320007ED15C483321027A1F2700265A4C212AAD
:1003300002D1C079012804D05848027A212A22D05B
:1003400086E06079332802D061716E8107E0342045
:100350006071FAE7012000F0A9F80120E0714C4833
:1003600001F00EFD012804D14A4801F009FD0128E1
:10037000F0D0494801223C21401D02F0FBFE2F72C3
:100380006E81444880E04548C079012860D17D20D5
:10039000434AC00010602082617142490A220F70F6
:1003A0004A8020623220E0810120607004E0022057
:1003B00000F07CF80120E071354801F0E1FC0128F3
:1003C00004D1364801F0DCFC0128F0D004220A21D7
:1003D000344802F0CFFE334804221421801C02F07E
:1003E000C9FE04221E212E4802F0C4FE2A4804221F
:1003F0002821103002F0BEFE27480422322120308E
:1004000002F0B8FE244801223C21401D02F0B2FE59
:10041000214801224621401C02F0ACFE022200E0ED
:1004200034E01D4850210E3002F0A4FE2F722E61E0
:100430001A486E8107724681208C81B2002000F03C
:100440001BF90121002000F021F9287A21281DD173
:100450001548017A212919D1C079012816D166627F
:1004600004E0032000F022F80120E071084801F0C8
:1004700087FC012804D10C4801F082FC0128F0D04F
:100480002F722E6108486E8146810772F8BD000008
:1004900034050020740500202C00002014050020E5
:1004A00080000020840000205405002070B5002248
:1004B0001449012805D0472302280ED0032813D061
:1004C00018E011480F240578632007230C7048704A
:1004D000332D8B700DD1372004E00B70392048701C
:1004E00062238B70C87005E00B706D2048700E2081
:1004F0008870CA700A714A718A71CA7101F04EFC23
:1005000070BD00000805002031000020FEB5314C10
:100510002F48012189022060A1800D23A3710021B1
:1005200061812161E171152727771F2222722A4EEE
:100530006422A661626125462035012212032860EB
:10054000AA80AB7169812961E9712F771F222A7214
:10055000AE6164226A61224640320126B603106011
:100560009680937151811161D17117771F26167290
:10057000642656617D263601966116462036012294
:1005800052033060B280B37171813161F17137779C
:100590001F223272642272617D221201B2611D2219
:1005A000920200926A46117151710221D17169461D
:1005B00000F064FB6946306800F060FB694628681B
:1005C00000F05CFB6946206800F058FBFEBD0000AF
:1005D000000400481405002070170000054B01229C
:1005E00082401868002901D0104300E09043186051
:1005F00070470000007400401CB50121480401F060
:1006000003FA0121480701F00BFA102000900321A2
:100610006846017100214171C17109206946C00617
:1006200000F02CFB1CBD000030B5074C2368074AC6
:100630008240934324C92A430D6849680D432A43E5
:1006400082401A43226030BD00740040FE0F00005B
:100650001FB5FFF7D1FF3C20009000210B200002C6
:1006600001910391029069460020FFF7DDFF01210F
:100670000020FFF7B3FF1FBD034A08B5101808306C
:100680000090016008BD00000074004003090120D3
:10069000044A98400029516801D0014300E0814399
:1006A0005160704700740040F8B5022000F0D6F8A1
:1006B000002841D022480021224C415EA078224BE4
:1006C00082009950A268401C8918C0B2A160A07035
:1006D000032831D90025A5708808A5600126E060AF
:1006E0001A4A2670515F1A4F884201D33E7005E0C6
:1006F000184A1288891A814200D33D701648416811
:10070000491C416002F018F96078144A00280CD1A5
:100710003878012809D11248124B0168491C016040
:100720001B68994201D3167005600F481178007854
:1007300001F022FF38786070022000F017F8F8BD51
:10074000B000002000000020F00000203C0000204D
:100750002C0000203A000020840000202F00002000
:1007600050000020800000202E000020C10001D594
:10077000024900E00249486070470000000402405E
:10078000000002400029016802D00122114301E06B
:10079000014A114001607047FEFF0000F0B501689A
:1007A0002B4A114001600021016041608160C160FD
:1007B0002849284B08390F22984201D1486823E084
:1007C000244CF0231434A04229D0224D1C0128359A
:1007D000A8422BD01F4E1D023C36B0422DD01D4FDB
:1007E0001E035037B8422FD01A4F6437B84204D195
:1007F00048681A0408E04860F0BD164F7837B842E0
:1008000004D148680F2212061043F4E71249124F30
:100810000839B842D2D0104A1432904202D1486806
:100820001843E8E70C4A2832904202D14868204336
:10083000E1E7094A3C32904202D148682843DAE7AE
:10084000054A50329042D7D148683043D3E7000080
:10085000FEFF00000800024008040240014600209C
:10086000CA0001D5034A00E0034A12680A4200D0D8
:10087000012070470004024000000240002A026884
:1008800001D00A4300E08A430260704730B5036834
:100890000C4A0C6A13408A684D6922430C692C4348
:1008A00022438C692243CC6922434C6A22438C6ADE
:1008B00022431A430260CA6842600A68826049683B
:1008C000C16030BD0F80FFFF002101604160816089
:1008D000C160016141618161C16101624162816206
:1008E00070470000F8B53D4D002668793C4C3D4FFF
:1008F000332830D120460A21027A615E3846C07919
:10090000002902D0202A04D033E0AE72202A04D07D
:100910002FE0012904D0022907D003290AD028E0BA
:10092000002826D10120A87254E0002821D10220FD
:10093000A87225E000281CD16681AE7247E0207ABB
:10094000212805D1387A212802D1F87901281AD036
:100950000120FFF7ABFDE0790128F0D02248C079F3
:100960000128ECD0F8790128E9D02048C079012885
:10097000E5D0A87A00282AD001282BD0022801D15E
:1009800000F0D2F8F8BD6879332804D033206871BC
:10099000EE71668105E034206871FAE70120FFF707
:1009A00085FD0F4801F0ECF9012804D10D4801F054
:1009B000E7F90128F2D0094801223C21401D02F04C
:1009C000D9FB1F20207266817E813872C3E700F058
:1009D0000FF8F8BD00F0B2F8F8BD00002C000020C0
:1009E0003405002074050020140500205405002063
:1009F000F8B5484CA08B01B21020205E01F0EEFC4F
:100A00004548E179C07900270843002876D160790C
:100A1000332873D11026A65FE682404D00960A2047
:100A2000285E217B884202D0297A202903D0E879E8
:100A3000012803D005E020736F8118E0287A21286F
:100A40000ED020202872364E0A20305E217B88424C
:100A500002D0307A20281DD0F07901281CD01EE069
:100A60006F8130492869884204D814210AE0761C35
:100A70002682E8E72B49C94342182A49491E8A427F
:100A800005D80A21FFF74AFB0029F0D0DBE7C007B1
:100A9000EDD0D8E7778114E0307A21280AD02020E1
:100AA00030721021615E0098884227D0F0790028CA
:100AB0001BD023E077811B493069884205D214217D
:100AC0000BE0208A401E2082EBE71649C9434218FA
:100AD0001449491E8A4205D20A21FFF71FFB00294B
:100AE000EFD0DEE7C007ECD0DBE7E879002805D1DE
:100AF000084804222821103002F03CFB1021615EDE
:100B00007D204001814201DB2082F8BD0029FCDC10
:100B10002782F8BD2C000020340500205405002059
:100B2000740500207017000010B50348808C00B2D7
:100B300001F0C8FC10BD00002C00002070B51A4C5C
:100B4000607801F003FD19480A21415E627B0126AD
:100B5000002591420ED0027A202A0BD16173458183
:100B6000607800281BD065700F4801224621401C88
:100B700002F000FB0E480A21415E627B91420DD0DB
:100B8000017A20290AD145816078002809D0657052
:100B9000054801224621401C02F0ECFA70BD667047
:100BA000E2E76670F4E700002C0000205405002006
:100BB0007405002000B50D490D4800F01DF80B48E4
:100BC00042780178120289188278C07812040006EF
:100BD000101809180548074A1C3801621268426259
:100BE0008A4201D1012000BD002000BD1C00002070
:100BF000E40000200080000830B51F4A13691C790A
:100C0000047013691B7A437013695B7883701369EE
:100C1000DB78C37013691D7805715D7945719D7A24
:100C20008571DD79C5715D7A05729D784572DD7AD1
:100C300085729B79C37253691B7863400B7053694B
:100C400084795B78057A6340C4796C406340447A68
:100C50006340847A6340C47A63404B70536904797B
:100C60009B7863408B7052698378D27840785A4081
:100C70004240CA7030BD000000000020F0B50022E4
:100C8000012423460D6893401D409D422AD10D79D1
:100C9000012D01D0022D12D1876855000326AE40E8
:100CA000B74387604E79AE4085682E43866085885D
:100CB0009D43858085888B7993401D438580066898
:100CC00055000323AB409E4306600E790768AE4093
:100CD0003E430660C6689E43C660CB79AB40C5689C
:100CE0002B43C360521C102ACBD3F0BD0246128A9C
:100CF00000200A4200D00120704700000449016032
:100D000000210171012242718171C171704700009F
:100D1000FFFF0000002A01D0816170470185704704
:100D200001490968016070470C00002010B502F00D
:100D3000DFF90028FBD0264802F047F804220A21F8
:100D4000244802F0E1F90028F8D0224C04221421B2
:100D5000A01C02F0D9F90028F8D004221E211E4858
:100D600002F0D2F90028F8D0042228211B4802F012
:100D7000CBF90028F8D0194804223221103002F0B3
:100D8000C3F90028F7D0154801223C210B3802F0A6
:100D9000BBF90028F7D01148012246210F3802F094
:100DA000B3F90028F7D00D4802225021801E02F02E
:100DB000ABF90028F7D009481038008C81B2002028
:100DC000FFF75AFC01210020FFF760FC10BD000076
:100DD0007017000084000020800000203C000020EC
:100DE00010B5002404E00A21FFF798F9641CE4B26E
:100DF0000028F8D1204610BDF8B50020374C0090EF
:100E0000374D206120E037480168002001F0D2FB17
:100E100017E06846FFF784FF00982169884200D3F5
:100E20002061314E3078C10608D5EF21084030707E
:100E30002C4800220168104601F024FC287A212861
:100E400006D0E8790128E4D020780028DBD0F8BD6E
:100E500025480178CA063AD5EF22114001700022D8
:100E60001146012001F00EFC31E02069A0606168AC
:100E700001260818400809277602FF06E06031467F
:100E80003846FFF733FF024631463846FFF742FF48
:100E9000761031463846FFF729FF0246314638467C
:100EA000FFF738FF1149A089088001202070002039
:100EB0006881E8711F2028720848042228210C301C
:100EC00002F058F904223221094802F053F9287A35
:100ED0002128B6D1E8790028BAD1C6E78C000020D5
:100EE0001405002060000020340000203C00002099
:100EF0004C000020FEE700007CB50121480400F012
:100F000083FD0121880400F07FFD0121C80400F069
:100F10007BFD0121080500F077FD0121480500F067
:100F200073FD0121880500F06FFD6846FFF7E6FEBE
:100F300003200002009001206946087100248C7192
:100F400003224A710925C871ED062846FFF796FE6F
:100F500069462846FFF792FE0120C00200906946CC
:100F60000C714C71CC710248FFF788FE7CBD00000B
:100F700000040048F8B5484800F002FF464C01253F
:100F80000026012805D0204600F0FAFE002805D0F2
:100F900005E02069401C2061E57100E0E6712069F0
:100FA000002802D0E179002905D0A169884205D93D
:100FB000E079012802D1384800F0EFFC36482038AB
:100FC00000F0DEFE344F203F012805D0384600F007
:100FD000D7FE002805D005E03869401C3861FD7156
:100FE00000E0FE713869002802D0F979002905D0A7
:100FF000A169884206D9F879012803D1264820380A
:1010000000F0CBFC2448203000F0BAFE224C203403
:10101000012805D0204600F0B3FE002805D005E0E9
:101020002069401C2061E57100E0E671206900281C
:1010300002D0E179002905D0A169884206D9E0797A
:10104000012803D11448203000F0A7FC124840309A
:1010500000F096FE104F4037012805D0384600F0CA
:101060008FFE002805D005E03869401C3861FD710D
:1010700000E0FE713869002802D0F979002905D016
:10108000A169884206D9F879012803D10248403085
:1010900000F083FCF8BD000034050020F8B5364CA4
:1010A000A06800F0A1FE35480A21415EA278344EC6
:1010B00020270025914202D0027A202A03D0C1794C
:1010C000012903D005E0A170458116E0017A2129AC
:1010D0000DD007722B480A21415EA278914202D0BE
:1010E000017A20291DD0C17901291CD01EE045813B
:1010F0000069B04205D214210BE0A068401CA0603A
:10110000E8E71F49C94342181D49491E8A4205D2D2
:101110000A21FFF703F80029EFD0DBE7C007ECD086
:10112000D8E745810EE0017A212905D00772A06831
:1011300000281BDCA560F8BD45810069B04205D2DE
:1011400014210BE0A068401EA060F0E70C49C943E1
:1011500042180B49491E8A4205D20A21FEF7DEFFDA
:101160000029EFD0E3E7C007ECD0E0E7064988426A
:10117000E1DBA160F8BD00007800002054050020EC
:1011800070170000740500200F270000F8B54E4DC1
:10119000EF2728784D4CC1064D4E002903DA384020
:1011A000287000F065FE87E04A48C079002803D126
:1011B0004948C079002804D0287838402870002198
:1011C00005E02878C10606D538402870012120881E
:1011D00000B200F06BFE3F48404A0A21415ED279DE
:1011E000914202D0027A202A03D0C179012905D088
:1011F00007E03A4AD171002141811AE0017A2129A0
:101200000FD020210172344834490A22825EC97904
:101210008A4202D0017A20291FD0C17901291FD02A
:1012200021E00021418100692D49884205D2142125
:101230000BE02088401C2080E5E72949C94342187B
:101240002749491E8A4205D20A21FEF767FF002975
:10125000EFD0D8E7C007ECD0D5E70021418113E0FB
:10126000017A212908D0202101722188FF202D3008
:1012700081421DD320801FE000214181006918496F
:10128000884205D214210BE02088401E2080ECE724
:101290001349C94342181249491E8A4205D20A21FC
:1012A000FEF73CFF0029EFD0DFE7C007ECD0DCE71A
:1012B0001E2901D81E20DDE7307A202803D170894D
:1012C000042800D170E7F8BD340000203A00002067
:1012D000340500205405002074050020780000200B
:1012E00070170000F8B5714D714E724F724C29E0C5
:1012F00000F016FB0A20285EE17888420CD0297A9B
:10130000202909D1E070002068812178491C49B268
:101310002170042900DD20700A20305EE1788842C7
:101320000CD0307A202809D1002070812078401E0E
:1013300040B22070002801DA042020700A20385EB4
:1013400004282BDA20780028D2D027E000F0B6F865
:101350000A21695EE07881420BD0297A202908D1E0
:10136000002169812278521C52B22270042A00DDC9
:1013700021700A21715E81420CD0307A202809D177
:10138000002070812078401E40B22070002801DAD1
:10139000042020700A20385E04282BDC20780128E5
:1013A000D4D027E000F04AF90A21695EE078814252
:1013B0000BD0297A202908D1002169812278521C7A
:1013C00052B22270042A00DD21700A21715E81422E
:1013D0000CD0307A202809D1002070812078401E5E
:1013E00040B22070002801DA042020700A20385E04
:1013F00004282BDC20780228D4D027E000F0D8F98C
:101400000A21695EE07881420BD0297A202908D12F
:10141000002169812278521C52B22270042A00DD18
:1014200021700A21715E81420CD0307A202809D1C6
:10143000002070812078401E40B22070002801DA20
:10144000042020700A20385E04282BDC2078032832
:10145000D4D027E0FFF79AFE0A20285EE178884280
:101460000BD0287A202808D100226A812078401CDD
:1014700040B22070042800DD22700A20305E8842CD
:101480000CD0307A202809D1002070812078401EAD
:1014900040B22070002801DA042020700A20385E53
:1014A000042802DC20780428D4D0F8BD540500209C
:1014B000740500203405002078000020F8B5584C51
:1014C000EF2720780025C106564E002903DA384060
:1014D000207000F071FD9AE05349202008705348B5
:1014E000C079002803D15248C079002807D020785D
:1014F0004D49384020700220085E002108E0207825
:10150000C10607D53840207047490220085E0121F6
:1015100000F072FD444A45480A210C3A415E1279B6
:10152000914202D0027A202A03D0C179012909D040
:101530000BE03D4A0C3A117145813B484188491CFA
:10154000418004E0017A212910D02021017236491E
:1015500037480A220C39825E09798A4202D0017A20
:1015600020291FD0C17901291ED020E045810069C2
:101570003049884206D214210CE02B494888401C8F
:101580004880E4E72B49C94342182A49491E8A4248
:1015900005D20A21FEF7C2FD0029EED0D7E7C00729
:1015A000EBD0D4E7458116E0017A212909D020212A
:1015B00001721D480222825E1F498A4224DB41805B
:1015C00025E0458100691B49884209D21421FEF7B4
:1015D000A5FD0029EDD114484188491E4180E8E766
:1015E0001449C94342181349491E8A4209D20A21A3
:1015F000FEF794FD0029DCD10B494888401E488045
:10160000D7E7C007F8D0D4E7002A00DC4580307A5D
:10161000202803D17089042800D15DE7F8BD0000BF
:1016200034000020340500208400002054050020F0
:1016300074050020701700000F270000F8B5554C06
:10164000EF2720780025C106534E002903DA3840E1
:10165000207000F057FD94E050482121017050485F
:10166000C079002803D14F48C079002808D02078DD
:10167000DF210840207049490220085E002108E06F
:101680002078C10607D53840207044490220085E02
:10169000012100F057FD414A41480A210C3A415EC0
:1016A0005279914202D0027A202A03D0C1790129CD
:1016B00005D007E0394A0C3A517145811AE0017AA8
:1016C000212910D020210172344936480A220C39D0
:1016D000825E49798A4202D0017A20291FD0C179DD
:1016E000012922D024E0458100692F49884206D291
:1016F00014210CE029484188491C4180E4E72A492B
:10170000C94342182849491E8A4205D20A21FEF7D8
:1017100005FD0029EED0D7E7C007EBD0D4E71F497D
:1017200045814888401E488004E0017A212909D07B
:101730002021017219480222825E1C498A421DDB67
:1017400041801EE0458100691749884206D2142174
:101750000CE012484188491E4180EBE71249C94319
:1017600042181149491E8A4205D20A21FEF7D6FCC9
:101770000029EED0DEE7C007EBD0DBE7002A00DC73
:101780004580307A202803D17089042800D163E78E
:10179000F8BD000034000020340500208400002043
:1017A0005405002074050020701700000F2700006A
:1017B000F8B5544CEF2720780025C106524E002979
:1017C00003DA3840207000F043FD93E04F482221B7
:1017D00001704F48C079002803D14E48C0790028D5
:1017E00007D020784949384020700220085E002147
:1017F00008E02078C10607D5384020704349022010
:10180000085E012100F044FD404A41480A210C3A9B
:10181000415E9279914202D0027A202A03D0C179A6
:10182000012905D007E0394A0C3A917145811AE047
:10183000017A212910D020210172344935480A2229
:101840000C39825E89798A4202D0017A20291FD020
:10185000C17901291ED020E0458100692E498842C6
:1018600006D214210CE029484188491C4180E4E754
:101870002949C94342182849491E8A4205D20A21EA
:10188000FEF74CFC0029EED0D7E7C007EBD0D4E739
:10189000458127E0017A212909D0202101721B48C6
:1018A0000222825E1D498A4221DB418022E045817D
:1018B00000691949884206D214210CE01348418876
:1018C000491E4180EBE71449C94342181249491E99
:1018D0008A4205D20A21FEF721FC0029EED0DEE77C
:1018E000C007DCD109494888401E4880D7E7002A54
:1018F00000DC4580307A202803D17089042800D18B
:1019000064E7F8BD34000020340500208400002086
:101910005405002074050020701700000F270000F8
:1019200010B506480178CA0604D5EF2211400170AF
:1019300000F034FD02491F20087010BD3400002063
:10194000840000207047000030B5837801210278C0
:10195000002B15D094080E4BA400E41823689207BE
:10196000D50EFF22AA40934342789207120EAA4056
:101970001A4322600078C006C00E8140054804E08A
:10198000D006C00E814003488030016030BD0000A9
:1019900000E400E000E100E0704730B5827900210A
:1019A000212320240D2A09D00B2A14D00C2A11D16E
:1019B00084690269A2420DD3037207E08569026956
:1019C000AA4208D30372C279002A03D10161418976
:1019D000491C418130BD0472F8E7000009494A689A
:1019E00001239B039A434A604A6883B21A434A60C0
:1019F0000A6B8B159A430A630A6B000C02430A6355
:101A00007047000000100240044A0029516901D0CB
:101A1000014300E081435161704700000010024023
:101A2000044A0029D16901D0014300E08143D1611A
:101A30007047000000100240044A0029116901D0DB
:101A4000014300E081431161704700000010024033
:101A5000044A0029916901D0014300E0814391616A
:101A60007047000000100240044A0029D16801D0EC
:101A7000014300E08143D160704700000010024044
:101A800010B500F029F8012000F03CF9012000F029
:101A90000DF90028FAD0002000F02AF9002000F00B
:101AA0003FF90521C904002000F052F9012000F09F
:101AB00041F90848FFF792FF192000F0F7F80028D5
:101AC000FAD0022000F052F900F00AF90828FBD100
:101AD00010BD0000004000011248016801221143BE
:101AE00001604168104A1140416001680F4A11408D
:101AF00001600168012292049143016041683F2224
:101B0000120491434160C16A09090901C162016B74
:101B1000074A11400163416B4908490041630021B4
:101B200081607047001002400CB8FF08FFFFF6FE0E
:101B3000ACFEF0FFF8B5564D0446686800210C2253
:101B4000544E104005D0042803D0082803D00C2898
:101B50001AD026601AE06968686803228902D203F5
:101B60000F0F1040BF1C00280AD0E86A0107090FB8
:101B70003046491CFEF7D2FA78430146216005E061
:101B8000454839464143F9E7444820606868444F76
:101B90000006000F3B5C20680246DA4062606B681A
:101BA0005B055B0FFB5CDA40A2602B6BDB0501D4AD
:101BB0003C4B05E06B685B0401D4530800E09308DC
:101BC000E3602B6B5F06384B03D4374F1237276126
:101BD00000E023612F6BFF0601D4666100E06061C5
:101BE0002F6BBF070ED02F6BBF07BF0F012F0BD07E
:101BF0002F6BBF07BF0F022F08D02F6BFF43BF070C
:101C000006D006E0A26104E0A06102E0A36100E06A
:101C1000A6612F6BBF03BF0F0FD02F6BBF03BF0F8A
:101C2000012F0CD02F6BBF03BF0F022F09D02F6BDA
:101C3000BF03BF0F032F06D006E0E26104E0E061BE
:101C400002E0E36100E0E6612F6B3F03BF0F0FD0BE
:101C50002A6B1203920F012A0CD0286B0003800F0D
:101C6000022809D0286B0003800F032806D006E065
:101C7000226204E0206202E0236200E02662286B18
:101C8000000602D405486062F8BD6162F8BD00003C
:101C90000010024000127A0000093D00006CDC02D6
:101CA000A0000020809FD500008000000346002097
:101CB0000A495A090CD0012A0CD0022A0CD0496BCF
:101CC000DA06D20E012393400B4200D00120704768
:101CD0000968F5E7096AF3E7496AF1E7001002408D
:101CE000024840680C210840704700000010024084
:101CF000034A5168F0239943014351607047000043
:101D00000010024005490028086802D00122104353
:101D100001E04008400008607047000000100240E9
:101D2000034A516807231B029943014351607047DE
:101D3000001002400122054912060028086801D05F
:101D4000104300E09043086070470000001002401C
:101D500010B5054A53687B24E403A34353605368DA
:101D600008430343536010BD00100240034A51680A
:101D7000890889000143516070470000001002404B
:101D800010B5044681880068FEF7B0FF217F152951
:101D900002D1012800D0002010BD000070B5104C09
:101DA0000E4920782546095C0C3529700D49400004
:101DB000085A6860002001F01DFC686801F0BEFB55
:101DC000287801F017FC686801F0B8FB2078411C06
:101DD0002170082801D30020207070BD0805002064
:101DE00064000020A0360008F1B50098FEF7F8FF67
:101DF00005460A210098FEF791F9024648001A4F5D
:101E00001A4C385C00262070022D07D310460A2198
:101E1000FEF784F94800385C607000E06670032DBE
:101E20000AD364210098FEF779F90A21FEF776F9C2
:101E30004800385CA07000E0A670042D0BD37D2113
:101E4000C9000098FEF76AF90A21FEF767F9480011
:101E5000385CE07000E0E6702671232060716D2030
:101E6000A0710F20E071F8BDB2360008080500200F
:101E70000C484021017041708170C1700A4A0021F4
:101E8000137A0171002B07D0072343714F2383710D
:101E90007323C3711172704741718171C171012047
:101EA000107270470805002064000020F3B581B06F
:101EB0000C460198FEF794FF074620463B4E00254E
:101EC0003B4C00283CD03B48407A002830D00A21C7
:101ED0000198FEF739F94900715C2170022F06D391
:101EE0000A21FEF731F94800305C607000E065704F
:101EF000032F0AD364210198FEF726F90A21FEF781
:101F000023F94800305CA07000E0A570042F0BD3CB
:101F10007D21C9000198FEF717F90A21FEF714F98F
:101F20004800305CE07000E0E5702248457234E023
:101F300025706570A5701F48E570012141722CE085
:101F40000A210198FEF700F94900715C2170022F07
:101F500012D30A21FEF7F8F84800305C6070032FB6
:101F60000BD364210198FEF7EFF80A21FEF7ECF895
:101F70004800305CA07001E06570A570042F0BD3A1
:101F80007D21C9000198FEF7DFF80A21FEF7DCF891
:101F90004800305CE07000E0E5702571072060715A
:101FA0004F20A0717320E071FEBD0000B236000822
:101FB00008050020640000200D4840210170417098
:101FC00081700C4AC17093780021002B08D07323D4
:101FD00003714E23437183716323C3719170704702
:101FE000017141718171C1710120907070470000D1
:101FF0000805002064000020F3B581B00C4601986C
:10200000FEF7EEFE074620463B4E00253B4C0028DF
:102010003CD03B48C078002830D00A210198FEF718
:1020200093F84900715C2170022F06D30A21FEF754
:102030008BF84800305C607000E06570032F0AD3B5
:1020400064210198FEF780F80A21FEF77DF8480028
:10205000305CA07000E0A570042F0BD37D21C90077
:102060000198FEF771F80A21FEF76EF84800305C1F
:10207000E07000E0E5702248C57034E025706570BE
:10208000A5701F48E5700121C1702CE00A2101985C
:10209000FEF75AF84900715C2170022F12D30A2111
:1020A000FEF752F84800305C6070032F0BD36421B8
:1020B0000198FEF749F80A21FEF746F84800305C1F
:1020C000A07001E06570A570042F0BD37D21C900BD
:1020D0000198FEF739F80A21FEF736F84800305C1F
:1020E000E07000E0E570732020714E206071A071F7
:1020F0006320E071FEBD0000B23600080805002034
:102100006400002010B50D484022027042708270B9
:102110000B4BC2701C790021002C08D07324047171
:102120004271622282716322C271197110BD017104
:1021300041718171C1710120187110BD0805002025
:1021400064000020F3B581B00C460198FEF748FE0C
:10215000074620463B4E00253B4C00283CD03B48E0
:102160004079002830D00A210198FDF7EDFF4900A1
:10217000715C2170022F06D30A21FDF7E5FF4800AC
:10218000305C607000E06570032F0AD36421019811
:10219000FDF7DAFF0A21FDF7D7FF4800305CA07099
:1021A00000E0A570042F0BD37D21C9000198FDF735
:1021B000CBFF0A21FDF7C8FF4800305CE07000E06B
:1021C000E5702248457134E025706570A5701F48A0
:1021D000E570012141712CE00A210198FDF7B4FF5F
:1021E0004900715C2170022F12D30A21FDF7ACFF68
:1021F0004800305C6070032F0BD364210198FDF719
:10220000A3FF0A21FDF7A0FF4800305CA07001E0A9
:102210006570A570042F0BD37D21C9000198FDF7CF
:1022200093FF0A21FDF790FF4800305CE07000E06A
:10223000E57073202071402060716220A0716320DE
:10224000E071FEBDB23600080805002064000020E1
:102250000D4840210170417081700C4AC170937922
:102260000021002B09D04723037163234371762398
:1022700083716D23C37191717047017141718171D7
:10228000C171012090717047080500206400002092
:10229000F3B581B00C460198FEF7A2FD0746204633
:1022A0003B4E00253B4C00283CD03B48C0790028E1
:1022B00030D00A210198FDF747FF4900715C217079
:1022C000022F06D30A21FDF73FFF4800305C607003
:1022D00000E06570032F0AD364210198FDF734FFF5
:1022E0000A21FDF731FF4800305CA07000E0A570C6
:1022F000042F0BD37D21C9000198FDF725FF0A218A
:10230000FDF722FF4800305CE07000E0E5702248F5
:10231000C57134E025706570A5701F48E570012116
:10232000C1712CE00A210198FDF70EFF4900715C94
:102330002170022F12D30A21FDF706FF4800305CFE
:102340006070032F0BD364210198FDF7FDFE0A2175
:10235000FDF7FAFE4800305CA07001E06570A570E2
:10236000042F0BD37D21C9000198FDF7EDFE0A2152
:10237000FDF7EAFE4800305CE07000E0E5704720C1
:102380002071632060717620A0716D20E071FEBD28
:10239000B236000808050020640000200D484021E6
:1023A0000170417081700C4AC17053780021002B7C
:1023B00008D04E2303714371632383714723C37194
:1023C00051707047017141718171C171012050706C
:1023D000704700000805002064000020F3B581B0BC
:1023E0000298FEF7FDFC07460198FEF7F9FC009005
:1023F0000A210298FDF7A8FE024648002F4D304CF6
:10240000285C00262070022F07D310460A21FDF712
:102410009BFE4800285C607000E06670032F0AD3C2
:1024200064210298FDF790FE0A21FDF78DFE480019
:10243000285CA07000E0A67038467D27FF000428C5
:102440000AD339460298FDF77FFE0A21FDF77CFE8C
:102450004800285CE07000E0E6700A210198FDF772
:1024600073FE4900695C21710099022906D30A2193
:10247000FDF76AFE4800285C607100E06671009814
:1024800003280AD364210198FDF75EFE0A21FDF7B7
:102490005BFE4800285CA07100E0A671009804284B
:1024A0000AD339460198FDF74FFE0A21FDF74CFE8D
:1024B0004800285CE071FEBDE671FEBDB236000842
:1024C00008050020F1B50098FEF78AFC05460A21B0
:1024D0000098FDF739FE024648001A4F1A4C385C46
:1024E00000262070022D07D310460A21FDF72CFE8E
:1024F0004800385C607000E06670032D0AD36421E8
:102500000098FDF721FE0A21FDF71EFE4800385C09
:10251000A07000E0A670042D0BD37D21C9000098A7
:10252000FDF712FE0A21FDF70FFE4800385CE0704F
:1025300000E0E6702671232060715E20A0710F20FC
:10254000E071F8BDB23600080805002010B5094951
:1025500000220A704A708A70CA7062246322402383
:102560000C714A7100288B7101D0072000E07320A4
:10257000C87110BD0805002010B50C4601210920C6
:102580004902C006FEF7B2FB094A002802D0012822
:1025900006D001E0012C01D0002006E0302004E04C
:1025A000002C01D0362000E00620107210BD000083
:1025B00008050020F3B581B007460298FEF710FC2D
:1025C00000252D4C0646012F05D0022F1CD025706A
:1025D0006570A57046E025706570A5702748E570A8
:1025E000817A002909D030212171472161714F2161
:1025F000A1716D21E1718572FEBD25716571A571B5
:10260000E57101218172FEBD0A210298FDF786FD68
:1026100049001B4F022E795C217006D30A21FDF779
:102620007DFD4800385C607000E06570032E0AD3C1
:1026300064210298FDF772FD0A21FDF76FFD480045
:10264000385CA07000E0A570042E0BD37D21C9007A
:102650000298FDF763FD0A21FDF760FD4800385C34
:10266000E07000E0E57030202071472060714F205D
:10267000A0716D20E071FEBD0805002064000020FF
:10268000B2360008F7B507460298FEF7A9FB002509
:102690002D4C0646012F05D0022F1CD025706570E9
:1026A000A57046E025706570A5702848E570C17A70
:1026B000002909D05B212171472161714F21A1714E
:1026C0006D21E171C572FEBD25716571A571E57160
:1026D0000121C172FEBD0A210298FDF71FFD4900CC
:1026E0001B4F022E795C217006D30A21FDF716FDDF
:1026F0004800385C607000E06570032E0AD36421E6
:102700000298FDF70BFD0A21FDF708FD4800385C33
:10271000A07000E0A570042E0BD37D21C9000298A3
:10272000FDF7FCFC0A21FDF7F9FC4800385CE0707D
:1027300000E0E5705B202071472060714F20A071A0
:102740006D20E071FEBD000008050020640000203F
:10275000B2360008FEB501214804FFF755F9012102
:102760008804FFF751F90121C804FFF74DF9012151
:102770000805FFF749F901214805FFF745F901214F
:102780008805FFF741F96846FEF7B8FA0126B60357
:102790000125684600960571002484714471C57155
:1027A00069465E48FEF76AFA5D4800906846057122
:1027B00084714471C57169465848FEF75FFA6946ED
:1027C0005648FEF75BFA69465448FEF757FA554FEC
:1027D00069463846FEF752FA0720800200906846A4
:1027E000057184714471C57109206946C006FEF700
:1027F00045FA09206946C006FEF740FA09206946F5
:10280000C006FEF73BFA484800906846057184719F
:102810004471C57169464548FEF730FA092069469A
:10282000C006FEF72BFA4248009068460571847195
:1028300044710221C17169463C48FEF71FFA69469E
:102840003A48FEF71BFA69463846FEF717FA69461A
:102850003648FEF713FA69463448FEF70FFA694620
:102860003248FEF70BFA69463048FEF707FA0022B5
:1028700001213846FEF74EFAEC0300222146274894
:10288000FEF748FA002231462448FEF743FA0022B8
:10289000A1102248FEF73EFA092000226111C0066D
:1028A000FEF738FA092000222111C006FEF732FA9D
:1028B00009200022E110C006FEF72CFA00220821B0
:1028C0001A48FEF727FA092000222146C006FEF723
:1028D00021FA002280211548FEF71CFA002220214F
:1028E0001248FEF717FA002202213846FEF712FAC4
:1028F000002210210D48FEF70DFA002240210B485E
:10290000FEF708FA0022E1110848FEF703FA002258
:10291000A1110648FEF7FEF9FEBD000000080048C0
:1029200001E0000000140048088000000004004896
:10293000F203000070470000F8B52E48417A0129E3
:102940002BD041780278914201D1012300E000238D
:102950002848294C83702578012109200027490245
:10296000C0061F2D11D026460222B25E7468214E89
:10297000B6697243202D11D01F4E212D1AD0222D61
:102980000BD11C4D002B27D121E0002B01D00122BF
:1029900000E00022FEF7BEF96760F8BD002B05D00D
:1029A0000122FEF7B7F914484760F8BD9442FCD9FC
:1029B000002204E0002B05D09442F6D90122FEF754
:1029C000A9F9F8BD0022FEF7A5F97760F8BDEB7A0A
:1029D000012B01D07760EBE7944205D20122FEF78C
:1029E00099F90120E872F8BD0022FEF793F9EF7221
:1029F000F8BD00002C0000208400002070B50E4CB3
:102A0000607A012817D0E078FF2509260135F606FF
:102A1000002804D0012229463046FEF77BF9122017
:102A2000205EFA2807DB0020E0706082024629461B
:102A30003046FEF76FF970BD2C00002013491120BD
:102A400008601348416841604168416041687F22E5
:102A5000D2039143416041680522D2041143416091
:102A60000168012212061143016001688901FCD549
:102A70004168890889004160416802221143416030
:102A800041680907890F0229FAD1704700200240E6
:102A90000010024070B5124C0125607A01280AD05E
:102AA000E9021048FEF722F9002803D000206072E6
:102AB000A07170BD6572A06A6428FAD3A57109255A
:102AC0000121ED06002249022846FEF723F9FF21E5
:102AD000002201312846FEF71DF9E06A206370BD2F
:102AE0002C000020000400487047000010B5144876
:102AF00001680122114301604168124A114041609E
:102B00000168114A11400160016801229204914359
:102B1000016041683F22120491434160C16A090982
:102B20000901C162016BFF22543291430163416B81
:102B300049084900416300218160FFF77FFF10BD14
:102B4000001002400CB8FFF8FFFFF6FE10B5064C6F
:102B50000121204600F0DAF8002803D001212046A8
:102B600000F060F810BD0000002C014010B50121FC
:102B70008C07204600F0CAF8002803D00121204627
:102B800000F050F810BD000070B51D4E0121304618
:102B900000F0BCF8002832D01A4CA069401CA0619B
:102BA0000A21A069FDF7BAFA0025002919D11648B3
:102BB0000078002803D015490888401C0880FFF7DA
:102BC000EDF8FEF7D7F912480168491C0160114879
:102BD00011490078002803D00868401C086000E014
:102BE0000D60A0690D49884205D30D481022017877
:102BF00011430170A5610121304600F013F870BD4A
:102C000000040040000000202F0000203E000020B3
:102C100058000020350000205400002088130000D8
:102C200034000020C943018270470029018802D086
:102C30000122114301E0490849000180704700006A
:102C40002A4910B5884202D10121C4143AE0012179
:102C50008907884206D101210846FEF7EDFE0021D2
:102C6000012008E02249884208D101210220FEF714
:102C7000E3FE00210220FEF7DFFE10BD1D49884261
:102C800006D101211020FEF7D7FE00211020F2E727
:102C90001949884206D101212020FEF7CDFE0021EE
:102CA0002020E8E71549884207D1841501212046F4
:102CB000FEF7C2FE00212046DDE71149884209D116
:102CC00001210C042046FEF7CFFE00212046FEF72E
:102CD000CBFE10BD0B49884202D101214C04F1E723
:102CE00009498842F5D101218C04EBE7002C014011
:102CF000000400400010004000140040002000408C
:102D00000040014000440140004801400246138A4F
:102D1000002092890B400A40002B02D0002A00D0EC
:102D200001207047002A828901D00A4300E08A43CB
:102D300082817047828870239A43828082880A4306
:102D40008280704710B50288144B984206D0012447
:102D5000A407A04202D0124CA04203D17024A24387
:102D60004C8822430F4CA04203D00F4C22400C89C8
:102D7000224302804A68C2620A880285984208D0CB
:102D80000A4A904205D00A4A904202D0094A90422B
:102D900001D1897A01860121818210BD002C014078
:102DA0000004004000100040FFFC00000040014013
:102DB00000440140004801400021C9434160002116
:102DC0000180018141808172704700210A225043B5
:102DD00000E0491C8842FCD8704702E008C8121F76
:102DE00008C1002AFAD170477047002001E001C1F4
:102DF000121F002AFBD1704730B5012187B048026D
:102E0000FEF726FE1C4C2046FDF722FA6846FDF729
:102E10007AFA00216846017180200390C000009179
:102E200004910591029069462046FDF747FA012179
:102E30002046FDF759FA032204212046FDF7E8F960
:102E40002046FDF715FA01212046FDF7E6F90B4D66
:102E500020462946FDF723FA0028F9D00121204613
:102E6000FDF7E4F902212046FDF7EAF92046FDF7D7
:102E700045FA07B030BD0000002401400100000108
:102E800070B501218CB00846FEF7BEFD09216846E9
:102E900001700125857000244470FEF755FD154E24
:102EA0003046FDF77BFC01A8FDF70EFD12480290AD
:102EB0000394A80208900B9480200690049520208B
:102EC00009900E48019080150790059440010A90E2
:102ED00001A93046FDF7DAFC012202213046FDF758
:102EE000CDFC0220FDF742FC01213046FDF74AFCF3
:102EF0000CB070BD08000240B0000020402401402A
:102F00001CB501214804FEF77FFD6846FDF7F6FE7B
:102F100004200090032069460871002088714871E0
:102F20000120C8710920C006FDF7A8FE1CBD0000E5
:102F3000F0B585B001210220FEF772FD0121C80223
:102F4000FEF786FD01210846FEF76AFD01214804CF
:102F5000FEF75AFD0F216846017301258573002491
:102F6000447303A8FEF7F0FC1021684601738573D3
:102F7000457303A8FEF7E8FC1D4F3846FFF760FED7
:102F80006846FFF719FF6846048144800A252F260A
:102F900001950680847269463846FFF7D3FE012208
:102FA00011463846FFF7BEFE01213846FFF73DFEC9
:102FB0006F073846FFF744FE6846FFF7FDFE684698
:102FC000448001950680847269463846FFF7BAFE50
:102FD000012211463846FFF7A5FE20213846FFF7AB
:102FE000A9FE01213846FFF720FE05B0F0BD000024
:102FF000000400401CB501214C042046FEF704FDEE
:1030000001212046FEF700FD012069460871887104
:103010000020C8710320487180200924E406009034
:103020002046FDF72BFE4020009069462046FDF724
:1030300025FE00F073F91CBDFDF778FE274C284DE6
:10304000207A294E400840002072A18A25488B0032
:103050001A1836681660C0582A68491C121888B2B7
:103060002A60A082802804D90020A082012020713B
:1030700002E02079002804D000202071D109E1610C
:103080002860FFF707FD0926F606184F15E0012115
:10309000002249023046FDF73DFEFF2100220131AA
:1030A0003046FDF737FE216BE06A401AB84204D380
:1030B0000020A071A062607202E0A0790028E6D131
:1030C000FFF79CFCFDF70EFCFDF726F9607933282D
:1030D000B6D100F0E7F900F071F9B1E72C0000205B
:1030E00000050020000100200C000020204E000000
:1030F00010B5A02000F08EF8002803D000F00EF9E3
:10310000002010BD012010BDF8B515460C4606463E
:1031100000F0F0F8A02000F0C9F800F00DF9002848
:103120000FD1E0B200F0C2F800F006F9002808D193
:1031300000F0E0F8A12000F0B9F800F0FDF8002858
:1031400003D000F0EBF80020F8BD00246F1E0BE068
:1031500000F090F83055BC4202D000F047F801E092
:1031600000F076F8641CA4B2AC42F1D300F0D6F8BB
:103170000120F8BDF7B517460C46002530E0002DBC
:1031800001D060071CD100F0C9F8002600F0B2F8A9
:10319000A02000F08BF800F0CFF8002805D0761CB6
:1031A0007D20B6B2C0008642F0D37D20C0008642AA
:1031B0000ED0E0B200F07AF800F0BEF8002807D197
:1031C0000098405D00F072F800F0B6F8002803D0D7
:1031D00000F0A4F80020FEBD641C6D1CA4B2ADB2CA
:1031E000BD42CCD300F09AF80120FEBDF8B5084DE1
:1031F00040242C8100F026F809278026FF06BE61B6
:1032000000F020F82E8100F01DF8BC61F8BD000030
:103210002000004810B509210446C906088A400666
:103220000ED5088A00060BD500F064F8204600F0A1
:103230003DF800F081F8044600F070F8204610BD1B
:10324000012010BD0020401CC0B21E28FBD37047D7
:1032500070B509244020E406A061FFF7F3FF802544
:10326000A561FFF7EFFF02480581FFF7EBFF70BD97
:1032700020000048F8B500240927FF0625468026CF
:103280006006040EBE61FFF7DDFF388A400601D5F7
:10329000641CE4B204480681FFF7D4FF6D1CEDB254
:1032A000082DEDD32046F8BD20000048F8B50024D5
:1032B000802709260546F606280602D54020B0617B
:1032C00002E00B4940200881FFF7BCFFB761FFF720
:1032D000B9FF07480781072C01D14020B06168067B
:1032E000050EFFF7AFFF641CE4B2082CE4D3F8BD71
:1032F0002000004870B540250920C0068561802463
:103300008461FFF79FFF044E3581FFF79BFF3481F7
:10331000FFF798FF70BD00002000004870B5054819
:103320004024048109258020ED06A861FFF78AFF6B
:10333000AC6170BD2000004870B509244020E4064F
:10334000A061FFF77FFF8025A561FFF77BFF208A43
:10335000400601D5012400E0002403480581FFF761
:1033600071FF204670BD00002000004810B5FEF738
:1033700087FBFFF7EFF900F089F90E48FEF7DAFB5B
:10338000FFF738FEFDF764F9FDF7B6FDFDF7BEF86F
:10339000FF20F530401E00B20028FBDCFDF70AFCE0
:1033A00005490028C87003D0FFF746FE002010BD75
:1033B000FEE70000BC00002000000020F8B5334C00
:1033C000334DA07A68703348C079012802D1E07982
:1033D00001285AD03048C079012856D02F482C4EA9
:1033E000C07900270C3601284FD044E0FDF756FE87
:1033F0000A20205E69788842207A37D020283AD186
:103400000321618130781F2806D0202806D021288A
:1034100006D0222807D007E02F7005E0012000E049
:103420000220287000E02970FDF75CFF207A202838
:1034300021D10A20205E04281ADB15486781E77134
:1034400004220A210C30FFF795FE04221421B01C3F
:10345000FFF790FE0E4804221E210830FFF78AFE77
:10346000022250210E48FFF785FE04E0202802D1F9
:1034700060890328D8D0E079012803D1A1692069A7
:103480008842B3D2207A2128B0D0F8BD340500207C
:103490007800002074050020140500205405002049
:1034A0003A000020F8B5012409256402ED06214602
:1034B0002846FDF71BFC024621462846FDF72AFC5C
:1034C000194CE07901282DD11848C179012929D05A
:1034D0000027174D174EFCF75DFE7D20C000FFF75B
:1034E00074FC19E002206968FFF764F8207A21284B
:1034F00012D1E079012815D16089A08120202072A5
:103500000D491F204F8108727781084930724F8121
:1035100008722F70FDF770FC207A2028E2D0E07945
:103520000128D8D0F8BD0000140500203405002083
:103530008C000020740500205405002030B5C2071F
:103540000121002A02D01F4A916102E01D4A203267
:1035500011811D491D4A1E4B840701D5916100E070
:1035600019811C4C450701D5946100E01C811A4C5F
:10357000050701D5946100E01C81184C184A194BCD
:10358000C50601D5946100E01C81174C850601D564
:10359000946100E01C81154C450601D5946100E062
:1035A0001C8105060824002D02DA114DAC6102E0F1
:1035B0000F4D20352C81C00501D5916130BD198199
:1035C00030BD0000001400480080000000080048E2
:1035D0002008004800400000002000000004000017
:1035E0000000004820000048000800000010000013
:1035F0000004004870B50446204DC00701D00022E9
:1036000000E0012280212846FDF784FBA00701D5B8
:10361000002200E0012220212846FDF77BFB18480C
:10362000610701D5002200E001220221FDF772FBB3
:10363000200701D5002200E0012210212846FDF7D5
:1036400069FBE00601D5002200E001224021284666
:10365000FDF760FB0B49A00601D5002200E0012226
:103660002846FDF757FB0849600601D5002200E017
:1036700001222846FDF74EFB70BD00000004004803
:1036800000140048000100000002000010B5FFF720
:1036900037FCFFF7B1FBFFF7F3FBFFF749FC10BD69
:1036A000010002000400080010002000400080001B
:1036B00000013F0030005B00790074006D006F0076
:1036C00038007F007D007E0067000F0073004F0010
:1036D0004E0040006300620023006D0047000000C0
:1036E00007005E004E00760039000E000100020067
:1036F000040008001000200040008000FF000000CF
:10370000370000002437000800000020B00000004F
:10371000DA2D0008D4370008B0000020E8080000C7
:10372000EA2D00080000000000000000000000007A
:1037300000000000ACF7FF1F280000200000000080
:1037400000000000000000000000000043191019F4
:103750000001000000330000000000000000320003
:10376000E803000000000000170000000000000057
:10377000E80300000000000000000000000000005E
:103780000000000000000000000101010101010132
:103790000101000000000000000000000000000027
:1037A00000000000E80300001F000A000000000005
:1037B0000000000000000000000000000000000009
:1037C00000000000000000000102030401020304E5
:0437D00006070809D7
:04000005080000B13E
:00000001FF
