:020000040800F2
:10000000A8090020C5000008C5190008AD100008A7
:1000100000000000000000000000000000000000E0
:100020000000000000000000000000008D2A000811
:100030000000000000000000191A0008312C000820
:10004000F5000008F5000008F5000008F5000008BC
:10005000F5000008F5000008F5000008F5000008AC
:1000600000000000A1060008F5000008F5000008E7
:10007000F5000008952C0008F5000008B52C0008D4
:10008000D12C00080000000000000000F50000086E
:1000900000000000F5000008F5000008F500000869
:1000A00000000000F500000800000000F500000856
:1000B0000348854600F05CF800480047B934000862
:1000C000A80900200C4880F308880C480168090E34
:1000D0000B4A914205D10B480B4901600B480C4972
:1000E00001600C4880470C480047FEE7FEE7FEE74A
:1000F000FEE7FEE7FEE70000A8090020040000007C
:100100001F00000018100240010000000000014024
:1001100000000000352C0008B100000830B50B4687
:10012000014600202022012409E00D46D5409D42D1
:1001300005D31D469540491B254695404019154657
:10014000521E002DF1DC30BD70B50024254600287C
:1001500001DA01244042002901DA01254942FFF772
:10016000DDFFAC4200D04042002C00D0494270BDBF
:10017000064C0125064E05E0E36807CC2B430C3CFA
:1001800098471034B442F7D3FFF796FF5838000869
:1001900078380008F8B5194D0026194F194C6E60D3
:1001A00025E019480178002921D006701348001D68
:1001B00000F082FE7D206968C000814202D920687B
:1001C000401E03E08142206801D2401C2060B842FA
:1001D00001DB2760F8BD002801DC2660F8BD81B294
:1001E000002000F045FA0121002000F04BFA0748FA
:1001F000696808186528D4D2F8BD00009C0000206A
:10020000FF0F000058000020000000204AFCFFFF04
:10021000836A0B438362426170470029816801D081
:10022000012200E002221143816070470029C16869
:1002300002D00122114301E049084900C160704722
:10024000C26802239A43C260C2680A43C260704710
:10025000064910B5884208D144150121204601F015
:1002600069FC0021204601F065FC10BD002401401E
:10027000826800210123DB071A4382600F231B03DE
:100280008268491CD20FD207994201D0002AF7D1C7
:100290008168002901DB006C70470020704702462E
:1002A0000020CB0104D5926801231B069A4300E08D
:1002B00012680A4200D001207047000030B5C368C0
:1002C000084A8C6813400A680D792243CC686D0394
:1002D0002C4322430C69496922430A431A43C260F2
:1002E00030BD000003D2FFFF012212030029C168C4
:1002F00001D0114300E09143C1607047816804223E
:100300001143816070470021016001718160C1600B
:100310000161416170470000F8B55B4E307A2128D9
:100320007ED15A483321027A01231F270025584CD9
:10033000212A02D1C079012804D05648027A212A04
:1003400022D083E02079332802D02171758107E023
:1003500034202071FAE7012000F0A4F80120A071F8
:10036000494801F07DFD012804D1484801F078FD9D
:100370000128F0D0464801223C21001D02F0A0FFD8
:100380003772758141487CE04248C07901285DD1CF
:100390007D20414AC0001060208221713F490A221D
:1003A0000F704A8060623220E081237003E00220F7
:1003B00000F078F8A571344801F052FD012804D10D
:1003C000344801F04DFD0128F1D004220A213348C0
:1003D00002F076FF314804221421801C02F070FFE5
:1003E00004221E212C4802F06BFF294804222821F8
:1003F000103002F065FF264804223221243002F03A
:100400005FFF234801223C21001D02F059FF012219
:1004100046211F4802F054FF022250211C4800E0F0
:1004200031E00E3002F04CFF3772356119487581AA
:1004300007724581A08C81B2002000F019F90121DA
:10044000002000F01FF9307A21281CD11448017ACD
:10045000212918D1C079012815D1A56203E0032014
:1004600000F020F8A571084801F0FAFC012804D139
:100470000B4801F0F5FC0128F1D0377235610848CE
:10048000758145810772F8BD440500208405002070
:10049000340000202405002090000020940000205B
:1004A0006405002070B500221449012805D04723B7
:1004B00002280ED0032813D018E011480F24057825
:1004C000632007230C704870332D8B700DD13720BB
:1004D00004E00B700B20487062238B70C87005E03D
:1004E0000B706D2048700E208870CA700A714A71B6
:1004F0008A71CA7101F01CFD70BD00001805002052
:1005000038000020FEB5314C2F48012189022060BF
:10051000A1800D23A371002161812161E171152763
:1005200027771F2222722A4E6422A6616261254625
:100530002035012212032860AA80AB7169812961EC
:10054000E9712F771F222A72AE6164226A61224606
:1005500040320126B603106096809371518111617B
:10056000D17117771F261672642656617D263601D3
:10057000966116462036012252033060B280B37174
:1005800071813161F17137771F2232726422726199
:100590007D221201B2611D22920200926A461171FF
:1005A00051710221D171694600F034FC694630680E
:1005B00000F030FC6946286800F02CFC6946206891
:1005C00000F028FCFEBD00000004004824050020C7
:1005D00070170000054B012282401868002901D0E5
:1005E000104300E090431860704700000074004022
:1005F0001CB50121480401F06DFA0121480701F002
:1006000075FA1020009003216846017100214171A4
:10061000C17109206946C00600F0FCFB1CBD00004A
:1006200030B5074C2368074A8240934324C92A43C4
:100630000D6849680D432A4382401A43226030BD49
:1006400000740040FE0F00001FB5FFF7D1FF3C20F3
:10065000009000210B200002019103910290694655
:100660000020FFF7DDFF01210020FFF7B3FF1FBDD2
:10067000034A08B5101808300090016008BD00005A
:100680000074004003090120044A98400029516881
:1006900001D0014300E08143516070470074004085
:1006A000F8B5022000F002F9002868D03648002191
:1006B000364C415EE078364B82009950A268401C6F
:1006C0008918C0B2A160E070032858D90025E570F0
:1006D0008808A5600127E0602E4A2770515F2E4BE5
:1006E0002E4E884206D31A683232904202D8A2783F
:1006F000002A0BD02A4A12888A1A2A49824218D321
:100700003570A5700878002803D004E03770A77012
:1007100004E0012100E000212348017023484168E2
:10072000491C416002F0B4F96078214A002812D0D7
:100730001EE0A278012AF1D11A6832329042EDD837
:100740006069401C60611028E8D3656108783178E1
:100750008842E0D1DDE73078012809D11548164BF1
:100760000168491C01601B68994201D3177005603C
:100770000D481178007801F0ABFF307860700220EE
:1007800000F01CF8F8BD0000C000002000000020B0
:100790000001002044000020A40000206C00002084
:1007A000420000203400002035000020940000208A
:1007B000360000205C00002090000020C10001D520
:1007C000024900E00249486070470000000402400E
:1007D000000002400029016802D00122114301E01B
:1007E000014A114001607047FEFF0000F0B501684A
:1007F0002B4A114001600021016041608160C160AD
:100800002849284B08390F22984201D1486823E033
:10081000244CF0231434A04229D0224D1C01283549
:10082000A8422BD01F4E1D023C36B0422DD01D4F8A
:100830001E035037B8422FD01A4F6437B84204D144
:1008400048681A0408E04860F0BD164F7837B8428F
:1008500004D148680F2212061043F4E71249124FE0
:100860000839B842D2D0104A1432904202D14868B6
:100870001843E8E70C4A2832904202D148682043E6
:10088000E1E7094A3C32904202D148682843DAE75E
:10089000054A50329042D7D148683043D3E7000030
:1008A000FEFF00000800024008040240014600204C
:1008B000CA0001D5034A00E0034A12680A4200D088
:1008C000012070470004024000000240002A026834
:1008D00001D00A4300E08A430260704730B50368E4
:1008E0000C4A0C6A13408A684D6922430C692C43F8
:1008F00022438C692243CC6922434C6A22438C6A8E
:1009000022431A430260CA6842600A6882604968EA
:10091000C16030BD0F80FFFF002101604160816038
:10092000C160016141618161C161016241628162B5
:1009300070470000F8B5434C00262079424D434FE4
:10094000332837D129460A200A7A285E3946C979E0
:10095000002802D0202A04D03AE06672202A06D06D
:1009600036E0012806D0022809D003280CD004283C
:100970000FD02DE000292BD1012060725BE000290F
:1009800026D10220607259E0002921D10320607233
:1009900027E000291CD16E81667249E0287A21285F
:1009A00005D1387A212802D1F87901281CD00120FC
:1009B000FFF778FDE8790128F0D02548C0790128B3
:1009C000ECD0F8790128E9D02248C0790128E5D097
:1009D000607A00282CD001282DD002282ED00328A0
:1009E00001D100F039F8F8BD2079332804D0332044
:1009F0002071A6716E8105E034202071FAE7012094
:100A0000FFF750FD104801F02BFA012804D10F48E0
:100A100001F026FA0128F2D00A4801223C21001DEB
:100A200002F04EFC1F2028726E817E813872C1E771
:100A300000F0ACF8F8BD00F04FF9F8BD00F042F955
:100A4000F8BD00003400002044050020840500208B
:100A50002405002064050020F8B5474C0021E089FA
:100A600000B201F0CFFA4548A179C079084377D1A7
:100A70002079332874D1E689414D30B2208300902B
:100A80000A20285E617B0027884202D0297A20292B
:100A900003D0E879012803D005E060736F8118E086
:100AA000287A21280ED020202872364E0A20305E67
:100AB000617B884202D0307A20281DD0F07901284D
:100AC0001CD01EE06F8130492869884204D8142167
:100AD0000AE0761CE681E8E72B49C94342182A4917
:100AE000491E8A4205D80A21FFF718FB0029F0D0D9
:100AF000DBE7C007EDD0D8E7778114E0307A212812
:100B00000AD0202030721021615E0098884227D0E0
:100B1000F07900281BD023E077811B493069884297
:100B200005D214210BE0E089401EE081EBE7164975
:100B3000C94342181449491E8A4205D20A21FFF7C7
:100B4000EDFA0029EFD0DEE7C007ECD0DBE7E8796B
:100B5000002805D10848022250210E3002F0B0FBD7
:100B6000E189FF202D30814201D3E081F8BD1E29AB
:100B7000FCD81E20F9E700003400002044050020C6
:100B8000640500208405002070170000F8B5484C6B
:100B9000208C01B21020205E01F0CCFC4548A179E8
:100BA000C07900270843002876D12079332873D1F3
:100BB0001026A65FE682404D00960A20285EE17A64
:100BC000884202D0297A202903D0E879012803D06D
:100BD00005E0E0726F8118E0287A21280ED02020ED
:100BE0002872364E0A20305EE17A884202D0307A8E
:100BF00020281DD0F07901281CD01EE06F813049DB
:100C00002869884204D814210AE0761C2682E8E785
:100C10002B49C94342182A49491E8A4205D80A214C
:100C2000FFF77CFA0029F0D0DBE7C007EDD0D8E76A
:100C3000778114E0307A21280AD0202030721021E8
:100C4000615E0098884227D0F07900281BD023E00D
:100C500077811B493069884205D214210BE0208A34
:100C6000401E2082EBE71649C94342181449491E29
:100C70008A4205D20A21FFF751FA0029EFD0DEE7B8
:100C8000C007ECD0DBE7E879002805D1084804224A
:100C90002821103002F014FB1021615E7D204001FC
:100CA000814201DB2082F8BD0029FCDC2782F8BDEF
:100CB0003400002044050020640500208405002045
:100CC0007017000010B50348008D00B201F0A6FCBB
:100CD00010BD00003400002070B5194C207801F0E0
:100CE000E1FC18480A21415E227B01260025914241
:100CF0000DD0027A202A0AD121734581207800285C
:100D000019D02570012246210D4802F0D9FA0E486B
:100D10000A21415E227B91420CD0017A202909D11F
:100D200045812078002808D02570012246210448FA
:100D300002F0C6FA70BD2670E4E72670F5E7000001
:100D400034000020640500208405002000B50D4912
:100D50000D4800F01DF80B484278017812028918FE
:100D60008278C07812040006101809180548074A4E
:100D7000243881621268C2628A4201D1012000BD1A
:100D8000002000BD24000020F400002000800008A6
:100D900030B51F4A93691C79047093691B7A4370BC
:100DA00093695B7883709369DB78C37093691D786E
:100DB00005715D7945719D7A8571DD79C5715D7AC1
:100DC00005729D784572DD7A85729B79C372D3690D
:100DD0001B7863400B70D36984795B78057A634034
:100DE000C4796C406340447A6340847A6340C47A37
:100DF00063404B70D36904799B7863408B70D269F0
:100E00008378D27840785A404240CA7030BD0000A2
:100E100000000020F0B50022012423460D68934015
:100E20001D409D422AD10D79012D01D0022D12D1F4
:100E3000876855000326AE40B74387604E79AE40C1
:100E400085682E43866085889D43858085888B795B
:100E500093401D438580066855000323AB409E43A5
:100E600006600E790768AE403E430660C6689E4342
:100E7000C660CB79AB40C5682B43C360521C102AB7
:100E8000CBD3F0BD0246128A00200A4200D00120D6
:100E90007047000004490160002101710122427184
:100EA0008171C17170470000FFFF0000002A01D06E
:100EB0008161704701857047014909680160704789
:100EC0000C00002010B502F0B9F90028FBD0294829
:100ED00002F021F804220A21274802F0BBF9002879
:100EE000F8D0254C04221421A01C02F0B3F90028EC
:100EF000F8D004221E21214802F0ACF90028F8D0D5
:100F0000042228211E4802F0A5F90028F8D01C4828
:100F100004223221143002F09DF90028F7D018483D
:100F200001223C210C3802F095F90028F7D0144832
:100F300001224621103802F08DF90028F7D0104820
:100F400002225021801E02F085F90028F7D00422E9
:100F500064210C4802F07EF90028F8D008481038C7
:100F6000808C81B20020FFF783FB01210020FFF776
:100F700089FB10BD70170000940000209000002035
:100F800044000020A400002010B5002404E00A2141
:100F9000FFF7C4F8641CE4B20028F8D1204610BD65
:100FA000F8B500203B4C00903B4D206120E03B48D1
:100FB0000168002001F0AAFB17E06846FFF77CFFFC
:100FC00000982169884200D32061354E3078C106EF
:100FD00008D5EF21084030703048002201681046E3
:100FE00001F0FCFB287A212806D0E8790128E4D01A
:100FF00020780028DBD0F8BD29480178CA0641D501
:10100000EF221140017000221146012001F0E6FBA1
:1010100038E02069A0601F4804226421083002F0F3
:101020004FF9A16860680126401840080927760238
:10103000FF06E06031463846FFF724FF024631469E
:101040003846FFF733FF761031463846FFF71AFF70
:10105000024631463846FFF729FF1249A089088029
:101060000120207000206881E8711F202872094843
:10107000042228210C3002F023F9042232210A48EC
:1010800002F01EF9287A2128AFD1E8790028B3D1DF
:10109000BFE700009C000020240500207000002015
:1010A0003B0000204400002058000020FEE7000024
:1010B0007CB50121480400F00DFD0121880400F0F9
:1010C00009FD0121C80400F005FD0121080500F01B
:1010D00001FD0121480500F0FDFC0121880500F01B
:1010E000F9FC6846FFF7D6FE0320000200900120BD
:1010F0006946087100248C7103224A710925C87160
:10110000ED062846FFF786FE69462846FFF782FE71
:101110000120C002009069460C714C71CC710248EC
:10112000FFF778FE7CBD00000004004810B55D208C
:1011300000F02CFE002801D000F008FD074800F068
:101140002BF8042000F01CF87D20000100F01EF8B0
:1011500000F00EF800F004F810BD00005555000036
:101160000249014808607047CCCC000000300040C4
:101170000249014808607047AAAA000000300040F8
:101180000149486070470000003000400149886014
:1011900070470000003000400149086070470000BF
:1011A00000300040F8B5484800F05AFE464C012592
:1011B0000026012805D0204600F052FE002805D068
:1011C00005E02069401C2061E57100E0E6712069BE
:1011D000002802D0E179002905D0A169884205D90B
:1011E000E079012802D1384800F017FC3648203851
:1011F00000F036FE344F203F012805D0384600F07D
:101200002FFE002805D005E03869401C3861FD71CB
:1012100000E0FE713869002802D0F979002905D074
:10122000A169884206D9F879012803D126482038D7
:1012300000F0F3FB2448203000F012FE224C203452
:10124000012805D0204600F00BFE002805D005E05F
:101250002069401C2061E57100E0E67120690028EA
:1012600002D0E179002905D0A169884206D9E07948
:10127000012803D11448203000F0CFFB1248403041
:1012800000F0EEFD104F4037012805D0384600F041
:10129000E7FD002805D005E03869401C3861FD7184
:1012A00000E0FE713869002802D0F979002905D0E4
:1012B000A169884206D9F879012803D10248403053
:1012C00000F0ABFBF8BD000044050020F8B5364C3B
:1012D000A06800F053FE35480A21415EA278344EE2
:1012E00020270025914202D0027A202A03D0C1791A
:1012F000012903D005E0A170458116E0017A21297A
:101300000DD007722B480A21415EA278914202D08B
:10131000017A20291DD0C17901291CD01EE0458108
:101320000069B04205D214210BE0A068401CA06007
:10133000E8E71F49C94342181D49491E8A4205D2A0
:101340000A21FEF7EBFE0029EFD0DBE7C007ECD067
:10135000D8E745810EE0017A212905D00772A068FF
:1013600000281BDCA560F8BD45810069B04205D2AC
:1013700014210BE0A068401EA060F0E70C49C943AF
:1013800042180B49491E8A4205D20A21FEF7C6FEC1
:101390000029EFD0E3E7C007ECD0E0E70649884238
:1013A000E1DBA160F8BD000088000020640500209A
:1013B00070170000840500200F270000F8B55B4D72
:1013C0005B4E5C4F5C4C29E000F0EAFA0A20285E94
:1013D000E17888420CD0297A202909D1E0700020D8
:1013E00068812178491C49B22170032900DD2070F1
:1013F0000A20305EE17888420CD0307A202809D16A
:10140000002070812078401E40B22070002801DA50
:10141000032020700A20385E03282BDA2078002869
:10142000D2D027E000F08AF80A21695EE078814294
:101430000BD0297A202908D1002169812278521CF9
:1014400052B22270032A00DD21700A21715E8142AE
:101450000CD0307A202809D1002070812078401EDD
:1014600040B22070002801DA032020700A20385E84
:1014700003282BDC20780128D4D027E000F01EF9C7
:101480000A21695EE07881420BD0297A202908D1AF
:10149000002169812278521C52B22270032A00DD99
:1014A00021700A21715E81420CD0307A202809D146
:1014B000002070812078401E40B22070002801DAA0
:1014C000032020700A20385E03282BDC20780228B5
:1014D000D4D027E000F0ACF90A20285EE1788842F9
:1014E0000BD0287A202808D100226A812078401C5D
:1014F00040B22070032800DD22700A20305E88424E
:101500000CD0307A202809D1002070812078401E2C
:1015100040B22070002801DA032020700A20385ED3
:10152000032802DC20780328D4D0F8BD640500200D
:10153000840500204405002088000020F8B5584CA0
:10154000EF2720780025C106564E002903DA3840DF
:10155000207000F0DDFD9AE05349202008705348C8
:10156000C079002803D15248C079002807D02078DC
:101570004D49384020700220085E002108E02078A4
:10158000C10607D53840207047490220085E012176
:1015900000F0DEFD444A45480A210C3A415E1279CA
:1015A000914202D0027A202A03D0C179012909D0C0
:1015B0000BE03D4A0C3A117145813B484188491C7A
:1015C000418004E0017A212910D02021017236499E
:1015D00037480A220C39825E09798A4202D0017AA0
:1015E00020291FD0C17901291ED020E04581006942
:1015F0003049884206D214210CE02B494888401C0F
:101600004880E4E72B49C94342182A49491E8A42C7
:1016100005D20A21FEF782FD0029EED0D7E7C007E8
:10162000EBD0D4E7458116E0017A212909D02021A9
:1016300001721D480222825E1F498A4224DB4180DA
:1016400025E0458100691B49884209D21421FEF733
:1016500065FD0029EDD114484188491E4180E8E725
:101660001449C94342181349491E8A4209D20A2122
:10167000FEF754FD0029DCD10B494888401E488004
:10168000D7E7C007F8D0D4E7002A00DC4580307ADD
:10169000202803D17089042800D15DE7F8BD00003F
:1016A0003B00002044050020940000206405002039
:1016B00084050020701700000F270000F8B5554C76
:1016C000EF2720780025C106534E002903DA384061
:1016D000207000F0C3FD94E0504821210170504873
:1016E000C079002803D14F48C079002808D020785D
:1016F000DF210840207049490220085E002108E0EF
:101700002078C10607D53840207044490220085E81
:10171000012100F0C3FD414A41480A210C3A415ED3
:101720005279914202D0027A202A03D0C17901294C
:1017300005D007E0394A0C3A517145811AE0017A27
:10174000212910D020210172344936480A220C394F
:10175000825E49798A4202D0017A20291FD0C1795C
:10176000012922D024E0458100692F49884206D210
:1017700014210CE029484188491C4180E4E72A49AA
:10178000C94342182849491E8A4205D20A21FEF758
:10179000C5FC0029EED0D7E7C007EBD0D4E71F493E
:1017A00045814888401E488004E0017A212909D0FB
:1017B0002021017219480222825E1C498A421DDBE7
:1017C00041801EE0458100691749884206D21421F4
:1017D0000CE012484188491E4180EBE71249C94399
:1017E00042181149491E8A4205D20A21FEF796FC89
:1017F0000029EED0DEE7C007EBD0DBE7002A00DCF3
:101800004580307A202803D17089042800D163E70D
:10181000F8BD00003B00002044050020940000209B
:101820006405002084050020701700000F270000C9
:10183000F8B5544CEF2720780025C106524E0029F8
:1018400003DA3840207000F0AFFD93E04F482221CA
:1018500001704F48C079002803D14E48C079002854
:1018600007D020784949384020700220085E0021C6
:1018700008E02078C10607D538402070434902208F
:10188000085E012100F0B0FD404A41480A210C3AAF
:10189000415E9279914202D0027A202A03D0C17926
:1018A000012905D007E0394A0C3A917145811AE0C7
:1018B000017A212910D020210172344935480A22A9
:1018C0000C39825E89798A4202D0017A20291FD0A0
:1018D000C17901291ED020E0458100692E49884246
:1018E00006D214210CE029484188491C4180E4E7D4
:1018F0002949C94342182849491E8A4205D20A216A
:10190000FEF70CFC0029EED0D7E7C007EBD0D4E7F8
:10191000458127E0017A212909D0202101721B4845
:101920000222825E1D498A4221DB418022E04581FC
:1019300000691949884206D214210CE013484188F5
:10194000491E4180EBE71449C94342181249491E18
:101950008A4205D20A21FEF7E1FB0029EED0DEE73C
:10196000C007DCD109494888401E4880D7E7002AD3
:1019700000DC4580307A202803D17089042800D10A
:1019800064E7F8BD3B0000204405002094000020DF
:101990006405002084050020701700000F27000058
:1019A00010B506480178CA0604D5EF22114001702F
:1019B00000F0A0FD02491F20087010BD3B00002070
:1019C000940000207047000030B583780121027830
:1019D000002B15D094080E4BA400E418236892073E
:1019E000D50EFF22AA40934342789207120EAA40D6
:1019F0001A4322600078C006C00E8140054804E00A
:101A0000D006C00E814003488030016030BD000028
:101A100000E400E000E100E0704730B58279002189
:101A2000212320240D2A09D00B2A14D00C2A11D1ED
:101A300084690269A2420DD3037207E085690269D5
:101A4000AA4208D30372C279002A03D101614189F5
:101A5000491C418130BD0472F8E7000010B5042232
:101A60005A210F4801F0F6FB0028F8D00C4C0D4924
:101A7000103C2069884201DD00202061401C20616B
:101A800004225A21064801F01BFC3220401E00B2FD
:101A90000028FBDC2069012801DC00F0EFF910BD13
:101AA00010000020FFFF000009494A6801239B0342
:101AB0009A434A604A6883B21A434A600A6B8B159C
:101AC0009A430A630A6B000C02430A6370470000E2
:101AD00000100240044A0029516901D0014300E08E
:101AE000814351617047000000100240044A002900
:101AF000D16901D0014300E08143D161704700000A
:101B000000100240044A0029116901D0014300E09D
:101B1000814311617047000000100240044A00290F
:101B2000916901D0014300E0814391617047000059
:101B300000100240044A0029D16801D0014300E0AE
:101B40008143D16070470000001002400348416AA1
:101B5000012212061143416270470000001002404A
:101B600010B500F029F8012000F03CF9012000F048
:101B70000DF90028FAD0002000F02AF9002000F02A
:101B80003FF90521C904002000F052F9012000F0BE
:101B900041F90848FFF788FF192000F0F7F80028FE
:101BA000FAD0022000F052F900F00AF90828FBD11F
:101BB00010BD0000004000011248016801221143DD
:101BC00001604168104A1140416001680F4A1140AC
:101BD00001600168012292049143016041683F2243
:101BE000120491434160C16A09090901C162016B94
:101BF000074A11400163416B4908490041630021D4
:101C000081607047001002400CB8FFF8FFFFF6FE3D
:101C1000ACFEF0FFF8B5564D0446686800210C2272
:101C2000544E104005D0042803D0082803D00C28B7
:101C30001AD026601AE06968686803228902D20314
:101C40000F0F1040BF1C00280AD0E86A0107090FD7
:101C50003046491CFEF762FA78430146216005E0F0
:101C6000454839464143F9E7444820606868444F95
:101C70000006000F3B5C20680246DA4062606B6839
:101C80005B055B0FFB5CDA40A2602B6BDB0501D4CC
:101C90003C4B05E06B685B0401D4530800E09308FB
:101CA000E3602B6B5F06384B03D4374F1237276145
:101CB00000E023612F6BFF0601D4666100E06061E4
:101CC0002F6BBF070ED02F6BBF07BF0F012F0BD09D
:101CD0002F6BBF07BF0F022F08D02F6BFF43BF072B
:101CE00006D006E0A26104E0A06102E0A36100E08A
:101CF000A6612F6BBF03BF0F0FD02F6BBF03BF0FAA
:101D0000012F0CD02F6BBF03BF0F022F09D02F6BF9
:101D1000BF03BF0F032F06D006E0E26104E0E061DD
:101D200002E0E36100E0E6612F6B3F03BF0F0FD0DD
:101D30002A6B1203920F012A0CD0286B0003800F2C
:101D4000022809D0286B0003800F032806D006E084
:101D5000226204E0206202E0236200E02662286B37
:101D6000000602D405486062F8BD6162F8BD00005B
:101D70000010024000127A0000093D00006CDC02F5
:101D8000B0000020809FD5000080000003460020A6
:101D90000A495A090CD0012A0CD0022A0CD0496BEE
:101DA000DA06D20E012393400B4200D00120704787
:101DB0000968F5E7096AF3E7496AF1E700100240AC
:101DC000024840680C2108407047000000100240A3
:101DD000034A5168F0239943014351607047000062
:101DE0000010024005490028086802D00122104373
:101DF00001E0400840000860704700000010024009
:101E0000034A516807231B029943014351607047FD
:101E1000001002400122054912060028086801D07E
:101E2000104300E09043086070470000001002403B
:101E300010B5054A53687B24E403A34353605368F9
:101E400008430343536010BD00100240034A516829
:101E5000890889000143516070470000001002406A
:101E600010B5044681880068FFF70CF8217F15291A
:101E700002D1012800D0002010BD000070B57D20E7
:101E80002649C000264C0860208233212171254D4F
:101E90001F262E700A21698060623220E0810120B5
:101EA00020700422284601F00BFA04221421A81CF9
:101EB00001F006FA04221E21184801F001FA20461A
:101EC00004222821103001F0FBF92046042232219F
:101ED000243001F0F5F901223C21201D01F0F0F938
:101EE00001224621204601F0EBF920460222502132
:101EF0000E3001F0E5F90C480021067201614181C4
:101F00000A4806724181A08C81B20020FEF7B0FB26
:101F100001210020FEF7B6FB70BD000090000020FC
:101F200034000020940000204405002024050020F7
:101F300070B5104C0E4920782546095C0C35297087
:101F40000D494000085A6860002001F0FDFB6868F8
:101F500001F09EFB287801F0F7FB686801F098FB20
:101F60002078411C2170082801D30020207070BD0A
:101F70001805002074000020F4370008F1B500981F
:101F8000FFF702F805460A210098FEF7C7F8024657
:101F900048001A4F1A4C385C00262070022D07D3D7
:101FA00010460A21FEF7BAF84800385C607000E07D
:101FB0006670032D0AD364210098FEF7AFF80A215A
:101FC000FEF7ACF84800385CA07000E0A670042D65
:101FD0000BD37D21C9000098FEF7A0F80A21FEF777
:101FE0009DF84800385CE07000E0E6702671232020
:101FF00060716D20A0710F20E071F8BD06380008F7
:1020000018050020F3B581B00C460198FEF7BCFF1F
:10201000074620463B4E00253B4C00283CD03B4821
:10202000407A002830D00A210198FEF78DF8490047
:10203000715C2170022F06D30A21FEF785F8480053
:10204000305C607000E06570032F0AD36421019852
:10205000FEF77AF80A21FEF777F84800305CA070A6
:1020600000E0A570042F0BD37D21C9000198FEF775
:102070006BF80A21FEF768F84800305CE07000E079
:10208000E5702248457234E025706570A5701F48E0
:10209000E570012141722CE00A210198FEF754F805
:1020A0004900715C2170022F12D30A21FEF74CF80F
:1020B0004800305C6070032F0BD364210198FEF759
:1020C00043F80A21FEF740F84800305CA07001E0B8
:1020D0006570A570042F0BD37D21C9000198FEF710
:1020E00033F80A21FEF730F84800305CE07000E079
:1020F000E5702571072060714F20A0717320E07199
:10210000FEBD0000063800081805002074000020FD
:102110000D4840210170417081700C4AC170937864
:102120000021002B08D0732303714E234371837168
:102130006323C37191707047017141718171C171E5
:1021400001209070704700001805002074000020E6
:10215000F3B581B00C460198FEF716FF07462046FE
:102160003B4E00253B4C00283CD03B48C078002823
:1021700030D00A210198FDF7E7FF4900715C21701A
:10218000022F06D30A21FDF7DFFF4800305C6070A4
:1021900000E06570032F0AD364210198FDF7D4FF96
:1021A0000A21FDF7D1FF4800305CA07000E0A57067
:1021B000042F0BD37D21C9000198FDF7C5FF0A212B
:1021C000FDF7C2FF4800305CE07000E0E570224897
:1021D000C57034E025706570A5701F48E570012159
:1021E000C1702CE00A210198FDF7AEFF4900715C37
:1021F0002170022F12D30A21FDF7A6FF4800305CA0
:102200006070032F0BD364210198FDF79DFF0A2115
:10221000FDF79AFF4800305CA07001E06570A57082
:10222000042F0BD37D21C9000198FDF78DFF0A21F2
:10223000FDF78AFF4800305CE07000E0E570732035
:1022400020714E206071A0716320E071FEBD00001E
:1022500006380008180500207400002010B50D484D
:1022600040220270427082700B4BC2701C790021B8
:10227000002C08D07324047142716222827163229F
:10228000C271197110BD017141718171C17101205B
:10229000187110BD1805002074000020F3B581B03E
:1022A0000C460198FEF770FE074620463B4E00257F
:1022B0003B4C00283CD03B484079002830D00A21D4
:1022C0000198FDF741FF4900715C2170022F06D390
:1022D0000A21FDF739FF4800305C607000E065704E
:1022E000032F0AD364210198FDF72EFF0A21FDF781
:1022F0002BFF4800305CA07000E0A570042F0BD3CA
:102300007D21C9000198FDF71FFF0A21FDF71CFF81
:102310004800305CE07000E0E5702248457134E030
:1023200025706570A5701F48E570012141712CE092
:102330000A210198FDF708FF4900715C2170022F06
:1023400012D30A21FDF700FF4800305C6070032FB4
:102350000BD364210198FDF7F7FE0A21FDF7F4FE87
:102360004800305CA07001E06570A570042F0BD3AD
:102370007D21C9000198FDF7E7FE0A21FDF7E4FE83
:102380004800305CE07000E0E57073202071402070
:1023900060716220A0716320E071FEBD0638000804
:1023A00018050020740000200D4840210170417084
:1023B00081700C4AC17093790021002B09D047230A
:1023C000037163234371762383716D23C37191710C
:1023D0007047017141718171C17101209071704725
:1023E0001805002074000020F3B581B00C46019858
:1023F000FEF7CAFD074620463B4E00253B4C002811
:102400003CD03B48C079002830D00A210198FDF724
:102410009BFE4900715C2170022F06D30A21FDF753
:1024200093FE4800305C607000E06570032F0AD3B3
:1024300064210198FDF788FE0A21FDF785FE48001A
:10244000305CA07000E0A570042F0BD37D21C90083
:102450000198FDF779FE0A21FDF776FE4800305C11
:10246000E07000E0E5702248C57134E025706570C9
:10247000A5701F48E5700121C1712CE00A21019867
:10248000FDF762FE4900715C2170022F12D30A2110
:10249000FDF75AFE4800305C6070032F0BD36421B7
:1024A0000198FDF751FE0A21FDF74EFE4800305C11
:1024B000A07001E06570A570042F0BD37D21C900C9
:1024C0000198FDF741FE0A21FDF73EFE4800305C11
:1024D000E07000E0E5704720207163206071762095
:1024E000A0716D20E071FEBD0638000818050020BF
:1024F000740000200D4840210170417081700C4A29
:10250000C17053780021002B08D04E230371437112
:10251000632383714723C371517070470171417107
:102520008171C171012050707047000018050020B2
:1025300074000020F3B581B00298FEF725FD074630
:102540000198FEF721FD00900A210298FDF7FCFD9D
:10255000024648002F4D304C285C00262070022F88
:1025600007D310460A21FDF7EFFD4800285C607094
:1025700000E06670032F0AD364210298FDF7E4FDA2
:102580000A21FDF7E1FD4800285CA07000E0A6707C
:1025900038467D27FF0004280AD339460298FDF704
:1025A000D3FD0A21FDF7D0FD4800285CE07000E073
:1025B000E6700A210198FDF7C7FD4900695C2171A9
:1025C0000099022906D30A21FDF7BEFD4800285CC8
:1025D000607100E06671009803280AD364210198B5
:1025E000FDF7B2FD0A21FDF7AFFD4800285CA071A0
:1025F00000E0A671009804280AD339460198FDF737
:10260000A3FD0A21FDF7A0FD4800285CE071FEBD96
:10261000E671FEBD0638000818050020F1B50098E7
:10262000FEF7B2FC05460A210098FDF78DFD024633
:1026300048001A4F1A4C385C00262070022D07D330
:1026400010460A21FDF780FD4800385C607000E00C
:102650006670032D0AD364210098FDF775FD0A21E9
:10266000FDF772FD4800385CA07000E0A670042DF4
:102670000BD37D21C9000098FDF766FD0A21FDF707
:1026800063FD4800385CE07000E0E67026712320AE
:1026900060715E20A0710F20E071F8BD063800085F
:1026A0001805002010B5094900220A704A708A7086
:1026B000CA706224632240230C714A7100288B7116
:1026C00001D0072000E07320C87110BD180500205C
:1026D00010B50C46012109204902C006FEF7D2FBC5
:1026E000094A002802D0012806D001E0012C01D0BF
:1026F000002006E0302004E0002C01D0362000E06D
:102700000620107210BD000018050020F3B581B03E
:1027100007460298FEF738FC00252D4C0646012F8F
:1027200005D0022F1CD025706570A57046E025707D
:102730006570A5702748E570817A002909D030219D
:102740002171472161714F21A1716D21E171857264
:10275000FEBD25716571A571E57101218172FEBD16
:102760000A210298FDF7DAFC49001B4F022E795C22
:10277000217006D30A21FDF7D1FC4800385C607057
:1027800000E06570032E0AD364210298FDF7C6FCB1
:102790000A21FDF7C3FC4800385CA07000E0A5707A
:1027A000042E0BD37D21C9000298FDF7B7FC0A2146
:1027B000FDF7B4FC4800385CE07000E0E5703020C4
:1027C0002071472060714F20A0716D20E071FEBD27
:1027D000180500207400002006380008F7B50746E9
:1027E0000298FEF7D1FB00252D4C0646012F05D09F
:1027F000022F1CD025706570A57046E025706570AD
:10280000A5702848E570C17A002909D05B212171A3
:10281000472161714F21A1716D21E171C572FEBD2A
:1028200025716571A571E5710121C172FEBD0A2195
:102830000298FDF773FC49001B4F022E795C217052
:1028400006D30A21FDF76AFC4800385C607000E09E
:102850006570032E0AD364210298FDF75FFC0A21FC
:10286000FDF75CFC4800385CA07000E0A570042E09
:102870000BD37D21C9000298FDF750FC0A21FDF71A
:102880004DFC4800385CE07000E0E5705B20207192
:10289000472060714F20A0716D20E071FEBD0000E7
:1028A000180500207400002006380008FEB501213C
:1028B0004804FFF70FF901218804FFF70BF9012104
:1028C000C804FFF707F901210805FFF703F9012103
:1028D0004805FFF7FFF801218805FFF7FBF8684678
:1028E000FEF7D8FA0126B603012568460096057161
:1028F000002484714471C57169465E48FEF78AFA06
:102900005D4800906846057184714471C5716946DF
:102910005848FEF77FFA69465648FEF77BFA694643
:102920005448FEF777FA554F69463846FEF772FA73
:102930000720800200906846057184714471C5715A
:1029400009206946C006FEF765FA09206946C006F7
:10295000FEF760FA09206946C006FEF75BFA4848B0
:1029600000906846057184714471C5716946454897
:10297000FEF750FA09206946C006FEF74BFA4248B6
:10298000009068460571847144710221C1716946E5
:102990003C48FEF73FFA69463A48FEF73BFA69467B
:1029A0003846FEF737FA69463648FEF733FA694685
:1029B0003448FEF72FFA69463248FEF72BFA69468B
:1029C0003048FEF727FA002201213846FEF76EFA5A
:1029D000EC03002221462748FEF768FA0022314620
:1029E0002448FEF763FA0022A1102248FEF75EFA9F
:1029F000092000226111C006FEF758FA09200022C2
:102A00002111C006FEF752FA09200022E110C0068B
:102A1000FEF74CFA002208211A48FEF747FA09206F
:102A200000222146C006FEF741FA00228021154807
:102A3000FEF73CFA002220211248FEF737FA002266
:102A400002213846FEF732FA002210210D48FEF727
:102A50002DFA002240210B48FEF728FA0022E1114E
:102A60000848FEF723FA0022A1110648FEF71EFAD5
:102A7000FEBD00000008004801E00000001400480E
:102A80000880000000040048F203000070470000C6
:102A9000F8B52A48007A012824D0294C274A2578FD
:102AA0000121092000274902C00653781F2D11D0AB
:102AB00026460222B25E7468204EF6697243202DCB
:102AC00011D01F4E212D1AD0222D0BD11B4D002BC2
:102AD00027D121E0002B01D0012200E00022FEF7E7
:102AE000E5F96760F8BD002B05D00122FEF7DEF99D
:102AF00013484760F8BD9442FCD9002204E0002B43
:102B000005D09442F6D90122FEF7D0F9F8BD002293
:102B1000FEF7CCF97760F8BDAB7A012B01D0776076
:102B2000EBE7944205D20122FEF7C0F90120A8721A
:102B3000F8BD0022FEF7BAF9AF72F8BD34000020EC
:102B40009400002070B50E4C207A012817D0A07890
:102B5000FF2509260135F606002804D00122294662
:102B60003046FEF7A3F91220205EFA2807DB00208A
:102B7000A0706082024629463046FEF797F970BD84
:102B80003400002013491120086013484168416057
:102B90004168416041687F22D203914341604168AE
:102BA0000522D2041143416001680122120611433B
:102BB000016001688901FCD541688908890041608C
:102BC000416802221143416041680907890F0229C7
:102BD000FAD17047002002400010024070B5124C3C
:102BE0000125207A01280AD0E9021048FEF74AF9A7
:102BF000002803D000202072607170BD2572E06A49
:102C00006428FAD3657109250121ED0600224902E5
:102C10002846FEF74BF9FF21002201312846FEF736
:102C200045F9206B606370BD34000020000400484B
:102C30007047000010B5144801680122114301607B
:102C40004168124A114041600168114A1140016017
:102C50000168012292049143016041683F221204FD
:102C600091434160C16A09090901C162016BFF22F8
:102C7000543291430163416B49084900416300218B
:102C80008160FFF77FFF10BD001002400CB8FFF815
:102C9000FFFFF6FE10B5064C0121204600F0DCF8DF
:102CA000002803D00121204600F062F810BD00008A
:102CB000002C014010B501218C07204600F0CCF813
:102CC000002803D00121204600F052F810BD00007A
:102CD00070B51E4E0121304600F0BEF8002834D0F9
:102CE0001B4C206A401C20620A21206AFDF716FA5C
:102CF000002500291BD117480078002803D0164969
:102D00000888401C0880FFF713F9FEF74BFA1348B8
:102D10000168491C0160FEF72BFA1148114900783F
:102D2000002803D00868401C086000E00D60206A9D
:102D30000D49884205D30D481022017811430170D6
:102D400025620121304600F013F870BD00040040F8
:102D50000000002036000020460000206400002013
:102D60003C00002060000020881300003B00002091
:102D7000C943018270470029018802D00122114312
:102D800001E0490849000180704700002A4910B558
:102D9000884202D10121C4143AE001218907884206
:102DA00006D101210846FEF7ADFE0021012008E012
:102DB0002249884208D101210220FEF7A3FE00210A
:102DC0000220FEF79FFE10BD1D49884206D1012159
:102DD0001020FEF797FE00211020F2E719498842E3
:102DE00006D101212020FEF78DFE00212020E8E7FA
:102DF0001549884207D1841501212046FEF782FE3D
:102E000000212046DDE71149884209D101210C0447
:102E10002046FEF78FFE00212046FEF78BFE10BDF8
:102E20000B49884202D101214C04F1E7094988424B
:102E3000F5D101218C04EBE7002C01400004004097
:102E400000100040001400400020004000400140FD
:102E500000440140004801400246138A0020928944
:102E60000B400A40002B02D0002A00D001207047FE
:102E7000002A828901D00A4300E08A438281704798
:102E8000828870239A43828082880A4382807047B6
:102E900010B50288144B984206D00124A407A04222
:102EA00002D0124CA04203D17024A2434C8822438A
:102EB0000F4CA04203D00F4C22400C8922430280C9
:102EC0004A68C2620A880285984208D00A4A90423B
:102ED00005D00A4A904202D0094A904201D1897A2B
:102EE00001860121818210BD002C014000040040B8
:102EF00000100040FFFC0000004001400044014081
:102F0000004801400021C943416000210180018146
:102F100041808172704700210A22504300E0491C21
:102F20008842FCD8704702E008C8121F08C1002A76
:102F3000FAD170477047002001E001C1121F002A3A
:102F4000FBD1704730B5012187B04802FEF7E6FD9E
:102F50001C4C2046FDF77CF96846FDF7D4F90021AA
:102F60006846017180200390C00000910491059192
:102F7000029069462046FDF7A1F901212046FDF7A0
:102F8000B3F9032204212046FDF742F92046FDF75C
:102F90006FF901212046FDF740F90B4D20462946E7
:102FA000FDF77DF90028F9D001212046FDF73EF913
:102FB00002212046FDF744F92046FDF79FF907B0AE
:102FC00030BD0000002401400100000170B5012166
:102FD0008CB00846FEF77EFD092168460170012588
:102FE000857000244470FEF7EFFC154E3046FDF767
:102FF000FDFB01A8FDF790FC124802900394A80283
:1030000008900B94802006900495202009900E488B
:10301000019080150790059440010A9001A930465F
:10302000FDF75CFC012202213046FDF74FFC022037
:10303000FDF7C4FB01213046FDF7CCFB0CB070BDA1
:1030400008000240C0000020402401401CB50121BE
:103050004804FEF73FFD6846FDF71CFF0420009082
:103060000320694608710020887148710120C871E9
:103070000920C006FDF7CEFE1CBD0000F0B585B0EE
:1030800001210220FEF732FD0121C802FEF746FDB4
:1030900001210846FEF72AFD01214804FEF71AFD2A
:1030A0000F2168460173012585730024447303A82A
:1030B000FEF78AFC1021684601738573457303A8E7
:1030C000FEF782FC1D4F3846FFF760FE6846FFF7AB
:1030D00019FF6846048144800A252F260195068041
:1030E000847269463846FFF7D3FE012211463846FE
:1030F000FFF7BEFE01213846FFF73DFE6F07384659
:10310000FFF744FE6846FFF7FDFE684644800195E0
:103110000680847269463846FFF7BAFE01221146DE
:103120003846FFF7A5FE20213846FFF7A9FE01210A
:103130003846FFF720FE05B0F0BD00000004004057
:103140001CB501214C042046FEF7C4FC0121204699
:10315000FEF7C0FC01206946087188710020C87123
:103160000320487180200924E40600902046FDF7E2
:1031700051FE4020009069462046FDF74BFE00F0CE
:1031800073F91CBDFDF79EFE274C284DE079294EB2
:1031900040084000E071A18A25488B001A18366863
:1031A0001660C0582A68491C121888B22A60A0828A
:1031B000802804D90020A0820120E07002E0E0789D
:1031C000002804D00020E070D10921622860FFF7B8
:1031D00005FD0926F606184F15E0012100224902D7
:1031E0003046FDF763FEFF21002201313046FDF736
:1031F0005DFE616B206B401AB84204D30020607101
:10320000E062207202E060790028E6D1FFF79AFCC4
:10321000FDF790FBFDF780F820793328B6D100F058
:10322000EBF900F075F9B1E734000020100500203B
:10323000100100200C000020204E000010B5A0203E
:1032400000F08EF8002803D000F00EF9002010BD29
:10325000012010BDF8B515460C46064600F0F0F802
:10326000A02000F0C9F800F00DF900280FD1E0B25D
:1032700000F0C2F800F006F9002808D100F0E0F8EC
:10328000A12000F0B9F800F0FDF8002803D000F00C
:10329000EBF80020F8BD00246F1E0BE000F090F862
:1032A0003055BC4202D000F047F801E000F076F85B
:1032B000641CA4B2AC42F1D300F0D6F80120F8BDF2
:1032C000F7B517460C46002530E0002D01D0600709
:1032D0001CD100F0C9F8002600F0B2F8A02000F0E0
:1032E0008BF800F0CFF8002805D0761C7D20B6B210
:1032F000C0008642F0D37D20C00086420ED0E0B2EE
:1033000000F07AF800F0BEF8002807D10098405D80
:1033100000F072F800F0B6F8002803D000F0A4F82E
:103320000020FEBD641C6D1CA4B2ADB2BD42CCD366
:1033300000F09AF80120FEBDF8B5084D40242C811C
:1033400000F026F809278026FF06BE6100F020F86D
:103350002E8100F01DF8BC61F8BD0000200000487F
:1033600010B509210446C906088A40060ED5088A08
:1033700000060BD500F064F8204600F03DF800F0A0
:1033800081F8044600F070F8204610BD012010BD01
:103390000020401CC0B21E28FBD3704770B5092422
:1033A0004020E406A061FFF7F3FF8025A561FFF749
:1033B000EFFF02480581FFF7EBFF70BD20000048DA
:1033C000F8B500240927FF06254680266006040E6E
:1033D000BE61FFF7DDFF388A400601D5641CE4B208
:1033E00004480681FFF7D4FF6D1CEDB2082DEDD324
:1033F0002046F8BD20000048F8B5002480270926A3
:103400000546F606280602D54020B06102E00B49C9
:1034100040200881FFF7BCFFB761FFF7B9FF0748FD
:103420000781072C01D14020B0616806050EFFF727
:10343000AFFF641CE4B2082CE4D3F8BD20000048C0
:1034400070B540250920C006856180248461FFF79E
:103450009FFF044E3581FFF79BFF3481FFF798FFF4
:1034600070BD00002000004870B50548402404816C
:1034700009258020ED06A861FFF78AFFAC6170BDC9
:103480002000004870B509244020E406A061FFF741
:103490007FFF8025A561FFF77BFF208A400601D5CD
:1034A000012400E0002403480581FFF771FF204656
:1034B00070BD00002000004810B5FEF751FBFFF77B
:1034C000F5F900F08DF91048FEF7A4FBFFF738FE80
:1034D000FDF7BAF8FDF7ECFDFDF714F8FF20F53025
:1034E000401E00B20028FBDCFDF720FEFDF72EFC9D
:1034F00006490028087105D0FEF7B0FAFFF742FE32
:10350000002010BDFEE70000CC00002000000020DD
:10351000F8B5334C334DA07A68703348C079012830
:1035200002D1E07901285AD03048C079012856D01C
:103530002F482C4EC07900270C3601284FD044E08C
:10354000FDF7C4FE0A20205E69788842207A37D0D1
:1035500020283AD10321618130781F2806D0202805
:1035600006D0212806D0222807D007E02F7005E0DA
:10357000012000E00220287000E02970FDF71EFF06
:10358000207A202821D10A20205E04281ADB154841
:103590006781E77104220A210C30FFF791FE0422B3
:1035A0001421B01CFFF78CFE0E4804221E210830A7
:1035B000FFF786FE022250210E48FFF781FE04E04D
:1035C000202802D160890328D8D0E079012803D1CE
:1035D000A16920698842B3D2207A2128B0D0F8BDF1
:1035E00044050020880000208405002024050020D8
:1035F0006405002042000020F8B50124092564027A
:10360000ED0621462846FDF73DFC024621462846A8
:10361000FDF74CFC194CE07901282DD11848C179EF
:10362000012929D00027174D174EFCF7B3FD7D2047
:10363000C000FFF770FC19E002206968FFF766F828
:10364000207A212812D1E079012815D16089A08142
:10365000202020720D491F204F8108727781084970
:1036600030724F8108722F70FDF79AFC207A202863
:10367000E2D0E0790128D8D0F8BD00002405002070
:10368000440500209C0000208405002064050020E3
:1036900030B5C2070121002A02D01F4A916102E021
:1036A0001D4A203211811D491D4A1E4B840701D538
:1036B000916100E019811C4C450701D5946100E03F
:1036C0001C811A4C050701D5946100E01C81184C3F
:1036D000184A194BC50601D5946100E01C81174CAE
:1036E000850601D5946100E01C81154C450601D585
:1036F000946100E01C8105060824002D02DA114DBA
:10370000AC6102E00F4D20352C81C00501D59161DF
:1037100030BD198130BD0000001400480080000059
:103720000008004820080048004000000020000079
:1037300000040000000000482000004800080000CD
:10374000001000000004004870B50446204DC0077A
:1037500001D0002200E0012280212846FDF7A6FBCF
:10376000A00701D5002200E0012220212846FDF714
:103770009DFB1848610701D5002200E001220221CB
:10378000FDF794FB200701D5002200E00122102163
:103790002846FDF78BFBE00601D5002200E0012260
:1037A00040212846FDF782FB0B49A00601D50022E7
:1037B00000E001222846FDF779FB0849600601D5A3
:1037C000002200E001222846FDF770FB70BD0000DA
:1037D000000400480014004800010000000200003E
:1037E00010B5FFF733FCFFF7ADFBFFF7EFFBFFF77B
:1037F00045FC10BD0100020004000800100020007C
:103800004000800000013F0030005B007900740040
:103810006D006F0038007F007D007E0067000F00A4
:1038200073004F004E0040006300620023006D00F3
:103830004700000007005E004E0076000B000E00FF
:103840000100020004000800100020004000800079
:10385000FF0000003700000078380008000000205A
:10386000C0000000262F000838390008C0000020E2
:10387000E8080000362F00080000000000000000EB
:103880000000000000000000000000000000000038
:10389000ACF7FF1F30000020000000000000000017
:1038A0000000000000000000431910190100000092
:1038B000330000000000000000003200E8030000B8
:1038C00000000000000000001700000000000000E1
:1038D000E8030000000000000000000000000000FD
:1038E00000000000000000000000000000010101D5
:1038F00001010101010100000000000000000000C2
:103900000000000000000000E80300001F000A00A3
:10391000000000000000000000000000E8030000BC
:10392000000000000000000000000000010203048D
:08393000010203040607080967
:04000005080000B13E
:00000001FF
