:020000040800F2
:1000000068090020C5000008CD140008510C000844
:1000100000000000000000000000000000000000E0
:10002000000000000000000000000000F5210008B2
:1000300000000000000000002115000889230008CE
:10004000F5000008F5000008F5000008F5000008BC
:10005000F5000008F5000008F5000008F5000008AC
:100060000000000025060008F5000008F500000863
:10007000F5000008ED230008F50000080D24000835
:10008000292400080000000000000000F50000081E
:1000900000000000F5000008F5000008F500000869
:1000A00000000000F500000800000000F500000856
:1000B0000348854600F05CF800480047092C00081A
:1000C000680900200C4880F308880C480168090E74
:1000D0000B4A914205D10B480B4901600B480C4972
:1000E00001600C4880470C480047FEE7FEE7FEE74A
:1000F000FEE7FEE7FEE700006809002004000000BC
:100100001F00000018100240010000000000014024
:10011000000000008D230008B100000830B50B4638
:10012000014600202022012409E00D46D5409D42D1
:1001300005D31D469540491B254695404019154657
:10014000521E002DF1DC30BD70B50024254600287C
:1001500001DA01244042002901DA01254942FFF772
:10016000DDFFAC4200D04042002C00D0494270BDBF
:10017000064C0125064E05E0E36807CC2B430C3CFA
:1001800098471034B442F7D3FFF796FF502F00087A
:10019000702F0008F8B500261E4DE1271E4CBF0049
:1001A0006E6032E01D48017800292ED006701C4890
:1001B0000022825E7D20C0006A60824207D903214E
:1001C000101AFFF7ABFF7D21C900081A0AE082422E
:1001D00009D27D20C000801A0321FFF79FFF7D21F7
:1001E000C900401820600F482168814201DB20606F
:1001F00002E0002900DC2660208881B2002000F0A7
:10020000F9F90121002000F0FFF96868C01BC92836
:10021000C8D2F8BD6800002028000020000000209F
:100220008C000020FF0F0000836A0B438362426151
:1002300070470029816801D0012200E002221143A9
:10024000816070470029C16802D00122114301E09A
:1002500049084900C1607047C26802239A43C260DE
:10026000C2680A43C2607047064910B5884208D187
:1002700044150121204601F0BBF90021204601F080
:10028000B7F910BD00240140826800210123DB077B
:100290001A4382600F231B038268491CD20FD207C6
:1002A000994201D0002AF7D18168002901DB006C56
:1002B00070470020704702460020CB0104D59268A9
:1002C00001231B069A4300E012680A4200D0012075
:1002D0007047000030B5C368084A8C6813400A684C
:1002E0000D792243CC686D032C4322430C69496984
:1002F00022430A431A43C26030BD000003D2FFFF0D
:10030000012212030029C16801D0114300E091438A
:10031000C1607047816804221143816070470021E9
:10032000016001718160C16001614161704700003D
:10033000F8B5364C3322217A35481F26002521296D
:1003400006D0202950D1334F397A202925D027E0F3
:10035000E179012948D13049C979012944D141794C
:10036000332902D04271658105E034214171FAE7F9
:10037000012000F059F8254801F0C6FA012804D1FF
:10038000254801F0C1FA0128F2D0214804223C217D
:10039000401D02F03DFB267236E0F979012905D0B7
:1003A0001E49C97901291FD1C56121E07D211C4B5E
:1003B000C9001960016142711A4A0A23167053601C
:1003C000816102E0022000F02FF8104801F09CFA51
:1003D000012804D10F4801F097FA0128F2D02672C3
:1003E000256165813E727D81F8BD032000F01CF817
:1003F000064801F089FA012804D1074801F084FA7F
:100400000128F2D0267225616581F8BD040500201F
:1004100010000020E40400204405002024050020F2
:10042000580000205C00002070B50022144901280B
:1004300005D0472302280ED0032813D018E0114816
:100440000F240578632007230C704870332D8B70C0
:100450000DD1372004E00B703920487062238B7077
:10046000C87005E00B706D2048700E208870CA704F
:100470000A714A718A71CA7101F054FA70BD0000A4
:10048000D804002015000020FEB5314C2F48012172
:1004900089022060A1800D23A37100216181216167
:1004A000E171152727771F2222722A4E6422A66146
:1004B000626125462035012212032860AA80AB71B3
:1004C00069812961E9712F771F222A72AE61642246
:1004D0006A61224640320126B6031060968093710D
:1004E00051811161D17117771F26167264265661EA
:1004F0007D26360196611646203601225203306071
:10050000B280B37171813161F17137771F2232721C
:10051000642272617D221201B2611D229202009258
:100520006A46117151710221D171694600F06AFA6F
:100530006946306800F066FA6946286800F062FA99
:100540006946206800F05EFAFEBD00000004004825
:10055000E404002070170000054B01228240186857
:10056000002901D0104300E090431860704700005C
:10057000007400401CB50121480401F009F8012174
:10058000480701F011F8102000900321684601711E
:1005900000214171C17109206946C00600F032FA9C
:1005A0001CBD000030B5074C2368074A82409343C6
:1005B00024C92A430D6849680D432A4382401A43DF
:1005C000226030BD00740040FE0F00001FB5FFF731
:1005D000D1FF3C20009000210B20000201910391EB
:1005E000029069460020FFF7DDFF01210020FFF7A0
:1005F000B3FF1FBD034A08B5101808300090016012
:1006000008BD00000074004003090120044A98401E
:100610000029516801D0014300E0814351607047D7
:1006200000740040F8B5022000F0CCF800283AD061
:100630001F4800211F4C415EA0781F4B820099503B
:100640006268401C8918C0B26160A07003282AD972
:100650000025A570880865600126A06017492670EE
:100660000968174F884201D33E7003E0323988424F
:1006700000D83D7013488168491C816001F0BCFDC1
:10068000607800280DD1387801280AD10E490F4A28
:100690000868401C08601268904202D30C4806703B
:1006A0000D6038786070022000F014F8F8BD00008A
:1006B0008C00002000000020C0000020200000204E
:1006C000100000205C0000202C00002058000020BA
:1006D00013000020C10001D5024900E00249486032
:1006E0007047000000040240000002400029016839
:1006F00002D00122114301E0014A1140016070471C
:10070000FEFF0000F0B501682B4A11400160002196
:10071000016041608160C1602849284B08390F227F
:10072000984201D1486823E0244CF0231434A042BD
:1007300029D0224D1C012835A8422BD01F4E1D0266
:100740003C36B0422DD01D4F1E035037B8422FD03B
:100750001A4F6437B84204D148681A0408E0486068
:10076000F0BD164F7837B84204D148680F22120600
:100770001043F4E71249124F0839B842D2D0104A58
:100780001432904202D148681843E8E70C4A2832F4
:10079000904202D148682043E1E7094A3C32904246
:1007A00002D148682843DAE7054A50329042D7D14F
:1007B00048683043D3E70000FEFF00000800024015
:1007C0000804024001460020CA0001D5034A00E0A7
:1007D000034A12680A4200D0012070470004024018
:1007E00000000240002A026801D00A4300E08A4368
:1007F0000260704730B503680C4A0C6A13408A687F
:100800004D6922430C692C4322438C692243CC69F5
:1008100022434C6A22438C6A22431A430260CA680C
:1008200042600A6882604968C16030BD0F80FFFF86
:100830000021016041608160C160016141618161AD
:10084000C1610162416281627047000070B5134C62
:100850000A21615E124D002909D0207A20281CD17E
:100860002846C079012905D0022908D00EE000F001
:1008700019F808E0002810D100F094F803E00028EF
:100880000BD100F085F8207A202806D16089032852
:1008900003D1E879002800D1608170BD04050020F3
:1008A00044050020F8B5354CA08A01B2208A00B278
:1008B00001F050FA32480A21324F415EA27A0025F7
:1008C000FE43914202D0027A202A03D0C179012945
:1008D00003D005E0A172458117E0017A21290ED0ED
:1008E0002021017228480A21415EA27A914202D059
:1008F000017A20291AD0C179012919D01BE045813C
:100900000069B04205D8142108E02069401C20612C
:10091000E8E71E49C2198A4205D80A21FFF7FEFB03
:100920000029F2D0DEE7C007EFD0DBE745810FE01A
:10093000017A212906D0202101722069B04218D9FC
:100940002561F8BD45810069B04205D2142108E057
:100950002069401E2061F0E70C49C2198A4205D285
:100960000A21FFF7DBFB0029F2D0E6E7C007EFD052
:10097000E3E70028E5D12661F8BD00001000002063
:10098000240500205FF0FFFF44050020571B0000F6
:1009900010B50348808B00B201F02AFA10BD0000A8
:1009A0001000002070B5144C607801F05DFA134916
:1009B0000A228A5EE57A01230020AA4208D00D7A35
:1009C000202D05D1E2724881617800290FD0607036
:1009D0000B490A228A5EE57AAA4207D00A7A202ABF
:1009E00004D148816178002903D0607070BD6370C4
:1009F000EEE7637070BD00001000002024050020A9
:100A000044050020F0B50022012423460D689340E0
:100A10001D409D422AD10D79012D01D0022D12D108
:100A2000876855000326AE40B74387604E79AE40D5
:100A300085682E43866085889D43858085888B796F
:100A400093401D438580066855000323AB409E43B9
:100A500006600E790768AE403E430660C6689E4356
:100A6000C660CB79AB40C5682B43C360521C102ACB
:100A7000CBD3F0BD0246128A00200A4200D00120EA
:100A80007047000004490160002101710122427198
:100A90008171C17170470000FFFF0000002A01D082
:100AA000816170470185704701490968016070479D
:100AB0000800002038B50020009001F067FF0028F2
:100AC000FBD01D4801F0CBFD04220A211B4801F098
:100AD00069FF0028F8D0194C04221421201D01F0D0
:100AE00061FF0028F8D004221E21154801F05AFFAA
:100AF0000028F8D004222821124801F053FF0028D2
:100B0000F8D0104804223221083001F04BFF0028B1
:100B1000F7D004223C21684601F044FF0028F8D0B9
:100B200008481038008B81B20020FFF763FD0121D7
:100B30000020FFF769FD38BD701700005C00002041
:100B40005800002020000020F8B500203A4C3B4D12
:100B5000009026E03A480168002001F0B1F91DE05C
:100B6000384E3078C1070AD04008400030706846DF
:100B7000FFF79AFF00982969884200D328613078EE
:100B8000C10608D5EF21084030702D4800220168C9
:100B9000104601F0EBF9207A212806D0E0790128EF
:100BA000DED028780028D5D0F8BD26480178CA06BE
:100BB0003AD5EF221140017000221146012001F0C8
:100BC000D5F931E02869A86069680126081840084D
:100BD00009277602FF06E86031463846FFF74AFFEC
:100BE000024631463846FFF759FF761031463846FF
:100BF000FFF740FF024631463846FFF74FFF1249E4
:100C0000E86808600120287000206081E0711F20E2
:100C100020720A48042228210C3001F0F9FE042237
:100C200032210A4801F0F4FE207A2128B6D1E07979
:100C30000028BAD1C6E70000E404002068000020C4
:100C4000380000201700002020000020280000208D
:100C5000FEE700007CB50121480400F099FC012169
:100C6000880400F095FC0121C80400F091FC0121EA
:100C7000080500F08DFC0121480500F089FC0121E8
:100C8000880500F085FC6846FFF7FCFE03200002A3
:100C9000009001206946087100248C7103224A717A
:100CA0000925C871ED062846FFF7ACFE69462846BF
:100CB000FFF7A8FE0120C002009069460C714C713C
:100CC000CC710248FFF79EFE7CBD00000004004886
:100CD000F8B5484800F018FE464C012500260128CA
:100CE00005D0204600F010FE002805D005E0206960
:100CF000401C2061E57100E0E6712069002802D007
:100D0000E179002905D0A169884205D9E079012857
:100D100002D1384800F005FC3648203800F0F4FDD8
:100D2000344F203F012805D0384600F0EDFD002863
:100D300005D005E03869401C3861FD7100E0FE71A6
:100D40003869002802D0F979002905D0A1698842C4
:100D500006D9F879012803D12648203800F0E1FBB4
:100D60002448203000F0D0FD224C2034012805D04A
:100D7000204600F0C9FD002805D005E02069401C90
:100D80002061E57100E0E6712069002802D0E17978
:100D9000002905D0A169884206D9E079012803D14C
:100DA0001448203000F0BDFB1248403000F0ACFD8C
:100DB000104F4037012805D0384600F0A5FD002827
:100DC00005D005E03869401C3861FD7100E0FE7116
:100DD0003869002802D0F979002905D0A169884234
:100DE00006D9F879012803D10248403000F099FB78
:100DF000F8BD000004050020F8B5344CA06800F0F0
:100E0000B7FD33480A21415EA2787D26760120276E
:100E10000025914202D0027A202A03D0C17901290B
:100E200003D005E0A170458116E0017A21290DD09B
:100E3000077228480A21415EA278914202D0017AC5
:100E400020291BD0C17901291AD01CE045810069F5
:100E5000B04205D2142109E0A068401CA060E8E778
:100E60001D4942181D498A4205D20A21FFF756F949
:100E70000029F1D0DDE7C007EED0DAE7458111E0C7
:100E8000017A212908D00772A168154800291BD0D2
:100E9000814200D9A560F8BD45810069B04205D204
:100EA000142109E0A068401EA060EDE70A4942183D
:100EB0000A498A4205D20A21FFF730F90029F1D008
:100EC000E2E7C007EED0DFE7A060F8BD50000020E9
:100ED00024050020440500205FF0FFFF571B0000A1
:100EE0000F270000F8B500F0D5FA544D544C0A20F5
:100EF000285EE178002788420BD0297A202908D182
:100F0000E0706F812078401C40B22070032800DD23
:100F100027704C4E0A20305EE178884233D0307A18
:100F2000202830D177812078401E40B220700028E0
:100F300029DA0320207055E000F088F80A21695E64
:100F4000E07881420AD0297A202907D16F8121785F
:100F5000491C49B22170032900DD27700A21715E06
:100F600081420BD0307A202808D177812078401E2A
:100F700040B22070002801DA0320207032480A2194
:100F8000415E04292ADC20780128D5D026E000F033
:100F900015F90A21695EE07881420AD0297A202970
:100FA00007D16F812178491C49B22170032900DDE6
:100FB00027700A21715E81420BD0307A202808D137
:100FC00077812078401E40B22070002801DA03208B
:100FD00020701D480A21415E04292ADC207802285D
:100FE000D5D026E000F0A2F90A20285EE1788842F8
:100FF0000AD0287A202807D16F812078401C40B27F
:101000002070032800DD27700A20305E88420BD054
:10101000307A202808D177812078401E40B2207095
:10102000002801DA0320207007480A21415E0429C4
:1010300002DC20780328D5D0F8BD0000240500206C
:10104000500000204405002004050020F8B5534C52
:10105000EF2720780025C106514E002903DA3840D9
:10106000207000F0C1FC90E04E49202008704E48EE
:10107000C079002803D14D48C079002807D02078D6
:101080003840207047480021808800B208E020786E
:10109000C10607D53840207042480121808800B23F
:1010A00000F0C2FC3F4A40480A210C3A415E1279E6
:1010B000914202D0027A202A03D0C179012905D0B9
:1010C00007E0384A0C3A117145812DE0017A212957
:1010D00010D020210172334934480A220C39825E33
:1010E00009798A4202D0017A202922D0C1790129C6
:1010F00021D023E0458100697D214901884206D243
:1011000014210AE027494868401C4860E3E7284961
:10111000421828498A4205D20A21FEF7FFFF00291A
:10112000F0D0D8E7C007D6D11E484168491C4160BD
:10113000D1E7458113E0017A212908D020210172ED
:1011400018481D4942688A421CD945601DE0458106
:1011500000697D214901884206D214210AE0114824
:101160004168491E4160EBE71149421811498A4222
:1011700005D20A21FEF7D2FF0029F0D0E0E7C00730
:10118000EDD0DDE7002A00D14160307A202803D17C
:101190007089042800D167E7F8BD0000170000201F
:1011A000040500205C0000202405002044050020E8
:1011B0005FF0FFFF571B00000F270000F8B5534CEE
:1011C000EF2720780025C106514E002903DA384068
:1011D000207000F08FFC91E04E48212101704E48B4
:1011E000C079002803D14D48C079002808D0207864
:1011F000DF210840207047480021808800B208E0C5
:101200002078C10607D538402070424801218088E7
:1012100000B200F08FFC3F4A3F480A210C3A415E81
:101220005279914202D0027A202A03D0C179012951
:1012300009D00BE0374A0C3A51713649458148686C
:10124000401C486004E0017A212910D0202101725D
:10125000304932480A220C39825E49798A4202D0EA
:10126000017A20291ED0C17901291DD01FE04581B6
:1012700000697D214901884206D214210AE02548EF
:101280004168491C4160E3E72549421825498A42E3
:1012900005D20A21FEF742FF0029F0D0D8E7C007A7
:1012A000EDD0D5E7458113E0017A212908D020212E
:1012B000017218491C4A486890421CD94D601DE0D3
:1012C000458100697D214901884206D214210AE046
:1012D00010484168491E4160EBE711494218114925
:1012E0008A4205D20A21FEF719FF0029F0D0E0E773
:1012F000C007EDD0DDE7002800D14A60307A202811
:1013000003D17089042800D166E7F8BD17000020DA
:10131000040500205C000020240500204405002076
:101320005FF0FFFF571B00000F270000F8B5514C7E
:10133000EF2720780025C1064F4E002903DA3840F8
:10134000207000F05FFC8CE04C48222101704C487A
:10135000C079002803D14B48C079002807D02078F5
:101360003840207045480021808800B208E020788D
:10137000C10607D53840207040480121808800B25E
:1013800000F060FC3D4A3E480A210C3A415E9279E9
:10139000914202D0027A202A03D0C179012905D0D6
:1013A00007E0364A0C3A917145811BE0017A212908
:1013B00010D020210172314932480A220C39825E54
:1013C00089798A4202D0017A20291ED0C179012967
:1013D0001DD01FE0458100697D214901884206D268
:1013E00014210AE025484168491C4160E3E7264989
:1013F000421826498A4205D20A21FEF78FFE0029AB
:10140000F0D0D8E7C007EDD0D5E7458113E0017AE9
:10141000212908D02021017218491D484A688242BA
:101420001CD94D601DE0458100697D21490188423C
:1014300006D214210AE011484168491E4160EBE7D9
:101440001149421811498A4205D20A21FEF766FE67
:101450000029F0D0E0E7C007EDD0DDE7002A00D199
:101460004860307A202803D17089042800D16BE7C6
:10147000F8BD000017000020040500205C000020DB
:1014800024050020440500205FF0FFFF571B0000EB
:101490000F27000010B50A480178CA0604D5EF22CC
:1014A0001140017000F036FC0648017A202905D170
:1014B0004089042802D104491F20087010BD000093
:1014C00017000020040500205C0000207047000089
:1014D00030B5837801210278002B15D094080E4B8B
:1014E000A400E41823689207D50EFF22AA40934374
:1014F00042789207120EAA401A4322600078C00672
:10150000C00E8140054804E0D006C00E814003486B
:101510008030016030BD000000E400E000E100E048
:10152000704730B582790021212320240D2A09D06B
:101530000B2A14D00C2A11D184690269A2420DD35E
:10154000037207E085690269AA4208D30372C2796F
:10155000002A03D101614189491C418130BD0472D7
:10156000F8E7000009494A6801239B039A434A604F
:101570004A6883B21A434A600A6B8B159A430A631E
:101580000A6B000C02430A6370470000001002401F
:10159000044A0029516901D0014300E081435161AF
:1015A0007047000000100240044A0029D16901D0B0
:1015B000014300E08143D161704700000010024008
:1015C000044A0029116901D0014300E081431161FF
:1015D0007047000000100240044A0029916901D0C0
:1015E000014300E081439161704700000010024018
:1015F000044A0029D16801D0014300E08143D16051
:10160000704700000010024010B500F029F80120DA
:1016100000F03CF9012000F00DF90028FAD000207C
:1016200000F02AF9002000F03FF90521C90400204C
:1016300000F052F9012000F041F90848FFF792FF4D
:10164000192000F0F7F80028FAD0022000F052F933
:1016500000F00AF90828FBD110BD0000004000018D
:10166000124801680122114301604168104A11408B
:10167000416001680F4A1140016001680122920433
:101680009143016041683F22120491434160C16A65
:1016900009090901C162016B074A11400163416BED
:1016A00049084900416300218160704700100240F1
:1016B0000CB8FF08FFFFF6FEACFEF0FFF8B5564D84
:1016C0000446686800210C22544E104005D00428BE
:1016D00003D0082803D00C281AD026601AE06968C5
:1016E000686803228902D2030F0F1040BF1C002834
:1016F0000AD0E86A0107090F3046491CFEF70EFDC3
:1017000078430146216005E0454839464143F9E701
:10171000444820606868444F0006000F3B5C206826
:101720000246DA4062606B685B055B0FFB5CDA4087
:10173000A2602B6BDB0501D43C4B05E06B685B04BE
:1017400001D4530800E09308E3602B6B5F06384B2D
:1017500003D4374F1237276100E023612F6BFF0658
:1017600001D4666100E060612F6BBF070ED02F6B64
:10177000BF07BF0F012F0BD02F6BBF07BF0F022F6B
:1017800008D02F6BFF43BF0706D006E0A26104E03C
:10179000A06102E0A36100E0A6612F6BBF03BF0F51
:1017A0000FD02F6BBF03BF0F012F0CD02F6BBF03C8
:1017B000BF0F022F09D02F6BBF03BF0F032F06D01F
:1017C00006E0E26104E0E06102E0E36100E0E6617E
:1017D0002F6B3F03BF0F0FD02A6B1203920F012A0A
:1017E0000CD0286B0003800F022809D0286B00035F
:1017F000800F032806D006E0226204E0206202E0A7
:10180000236200E02662286B000602D4054860626D
:10181000F8BD6162F8BD00000010024000127A00BD
:1018200000093D00006CDC027C000020809FD50098
:1018300000800000034600200A495A090CD0012A02
:101840000CD0022A0CD0496BDA06D20E0123934049
:101850000B4200D0012070470968F5E7096AF3E7F9
:10186000496AF1E700100240024840680C21084034
:101870007047000000100240034A5168F02399436A
:1018800001435160704700000010024005490028E4
:10189000086802D00122104301E0400840000860BF
:1018A0007047000000100240034A516807231B02E2
:1018B00099430143516070470010024001220549DD
:1018C00012060028086801D0104300E09043086029
:1018D000704700000010024010B5054A53687B2491
:1018E000E403A3435360536808430343536010BDAC
:1018F00000100240034A5168890889000143516081
:10190000704700000010024010B50446818800684E
:10191000FFF7B0F8217F152902D1012800D000205F
:1019200010BD000070B5104C0E4920782546095CAA
:101930000C3529700D494000085A6860002001F0FC
:101940007FFA686801F020FA287801F079FA68686F
:1019500001F01AFA2078411C2170082801D30020D8
:10196000207070BDD80400203C000020EC2E000840
:1019700070B506460A21FEF7D1FB184D4900184CF8
:10198000695C21700A21FEF7C9FB4800285C607081
:1019900064213046FEF7C2FB0A21FEF7BFFB480078
:1019A000285CA0707D21C9003046FEF7B7FB0A21F4
:1019B000FEF7B4FB4800285CE0700A493046FEF7A9
:1019C000ADFB0A21FEF7AAFB4800285C207123200A
:1019D00060716D20A0710F20E07170BDFE2E0008B7
:1019E000D8040020102700000D48402101704170EC
:1019F00081700C4AC17093780021002B08D07323AA
:101A000003714E23437183716323C37191707047D7
:101A1000017141718171C1710120907070470000A6
:101A2000D80400203C000020F3B52F4D2F4C81B08E
:101A300000292FD02E4F0026F878002823D00A2125
:101A40000198FEF781FB4900695C21700A21FEF7CD
:101A50007BFB4800285C607064210198FEF774FBF2
:101A60000A21FEF771FB4800285CA0707D21C900A7
:101A70000198FEF769FB0A21FEF766FB4800285C27
:101A8000E070FE7028E026706670A670E670012097
:101A9000F87021E00A210198FEF756FB4900695CC5
:101AA00021700A21FEF750FB4800285C6070642119
:101AB0000198FEF749FB0A21FEF746FB4800285C27
:101AC000A0707D21C9000198FEF73EFB0A21FEF7B8
:101AD0003BFB4800285CE070732020714E20607151
:101AE000A0716320E071FEBDFE2E0008D804002026
:101AF0003C00002010B50D484022027042708270F8
:101B00000B4BC2701C790021002C08D07324047187
:101B10004271622282716322C271197110BD01711A
:101B200041718171C1710120187110BDD80400206C
:101B30003C000020F3B5304D304C81B000292FD04F
:101B40002F4F00267879002823D00A210198FEF72C
:101B5000FBFA4900695C21700A21FEF7F5FA48009A
:101B6000285C607064210198FEF7EEFA0A21FEF706
:101B7000EBFA4800285CA0707D21C9000198FEF7AF
:101B8000E3FA0A21FEF7E0FA4800285CE0707E7173
:101B900028E026706670A670E6700120787121E05A
:101BA0000A210198FEF7D0FA4900695C21700A21E8
:101BB000FEF7CAFA4800285C607064210198FEF7BD
:101BC000C3FA0A21FEF7C0FA4800285CA0707D2104
:101BD000C9000198FEF7B8FA0A21FEF7B5FA4800E5
:101BE000285CE07073202071402060716220A07139
:101BF0006320E071FEBD0000FE2E0008D804002026
:101C00003C0000200D4840210170417081700C4A59
:101C1000C17093790021002B09D0472303716323FE
:101C20004371762383716D23C37191717047017184
:101C300041718171C171012090717047D8040020F9
:101C40003C000020F3B5304D304C81B000292FD03E
:101C50002F4F0026F879002823D00A210198FEF79B
:101C600073FA4900695C21700A21FEF76DFA480099
:101C7000285C607064210198FEF766FA0A21FEF77D
:101C800063FA4800285CA0707D21C9000198FEF726
:101C90005BFA0A21FEF758FA4800285CE070FE71F2
:101CA00028E026706670A670E6700120F87121E0C9
:101CB0000A210198FEF748FA4900695C21700A215F
:101CC000FEF742FA4800285C607064210198FEF734
:101CD0003BFA0A21FEF738FA4800285CA0707D2103
:101CE000C9000198FEF730FA0A21FEF72DFA4800E4
:101CF000285CE07047202071632060717620A0711D
:101D00006D20E071FEBD0000FE2E0008D80400200A
:101D10003C0000200D4840210170417081700C4A48
:101D2000C17053780021002B08D04E2303714371FA
:101D3000632383714723C3715170704701714171EF
:101D40008171C1710120507070470000D8040020DB
:101D50003C000020F3B581B007460A210298FEF747
:101D6000F3F9214C4900214D615C29700A21FEF7ED
:101D7000EBF94800205C687064210298FEF7E4F9F2
:101D80000A21FEF7E1F94800205C7D26A870F600E4
:101D900031460298FEF7D8F90A21FEF7D5F9480036
:101DA000205CE8700A213846FEF7CEF94900615CF4
:101DB00029710A21FEF7C8F94800205C6871642186
:101DC0003846FEF7C1F90A21FEF7BEF94800205C4B
:101DD000A87131463846FEF7B7F90A21FEF7B4F983
:101DE0004800205CE871FEBDFE2E0008D8040020EB
:101DF00070B506460A21FEF7A7F9184D4900184CA0
:101E0000695C21700A21FEF79FF94800285C607028
:101E100064213046FEF798F90A21FEF795F948004B
:101E2000285CA0707D21C9003046FEF78DF90A219B
:101E3000FEF78AF94800285CE0700A493046FEF750
:101E400083F90A21FEF780F94800285C20712320DD
:101E500060715E20A0710F20E07170BDFE2E000841
:101E6000D80400201027000010B5094900220A708C
:101E70004A708A70CA706224632240230C714A71CE
:101E800000288B7101D0072000E07320C87110BDBD
:101E9000D8040020094A002802D0012806D001E019
:101EA000012901D0002006E0302004E0002901D003
:101EB000362000E00620107270470000D804002091
:101EC000F3B5302547260021254C81B001280CD0E0
:101ED000022820D021706170A170E17025716671B7
:101EE0004F20A0716D20E071FEBD21706170A17066
:101EF0001C48E170027A002A06D0257166714F22D3
:101F0000A2716D22E27104E021716171A171E17130
:101F100001210172FEBD0A210298FEF7FFF8124F5F
:101F20004900795C21700A21FEF7F8F84800385C16
:101F3000607064210298FEF7F1F80A21FEF7EEF8CE
:101F40004800385CA0707D21C9000298FEF7E6F8D1
:101F50000A21FEF7E3F84800385CE070BEE70000B5
:101F6000D80400203C000020FE2E0008F7B55B25B9
:101F700047260021244C01280CD0022820D02170B3
:101F80006170A170E170257166714F20A0716D20A4
:101F9000E071FEBD21706170A1701C48E170427A51
:101FA000002A06D0257166714F22A2716D22E2715E
:101FB00004E021716171A171E17101214172FEBDE5
:101FC0000A210298FEF7AAF8114F4900795C2170A6
:101FD0000A21FEF7A3F84800385C6070642102987B
:101FE000FEF79CF80A21FEF799F84800385CA070CB
:101FF0007D21C9000298FEF791F80A21FEF78EF8BC
:102000004800385CE070BEE7D80400203C000020A7
:10201000FE2E0008FEB501214804FFF7B9FA0121A0
:102020008804FFF7B5FA0121C804FFF7B1FA0121CE
:102030000805FFF7ADFA01214805FFF7A9FA0121CC
:102040008805FFF7A5FA6846FEF71CFD0126B603D2
:102050000125684600960571002484714471C5719C
:1020600069465E48FEF7CEFC5D4800906846057103
:1020700084714471C57169465848FEF7C3FC6946CE
:102080005648FEF7BFFC69465448FEF7BBFC554F67
:1020900069463846FEF7B6FC072080020090684685
:1020A000057184714471C57109206946C006FEF747
:1020B000A9FC09206946C006FEF7A4FC0920694670
:1020C000C006FEF79FFC4848009068460571847181
:1020D0004471C57169464548FEF794FC092069467C
:1020E000C006FEF78FFC4248009068460571847177
:1020F00044710221C17169463C48FEF783FC694680
:102100003A48FEF77FFC69463846FEF77BFC694695
:102110003648FEF777FC69463448FEF773FC69469B
:102120003248FEF76FFC69463048FEF76BFC002230
:1021300001213846FEF7B2FCEC0300222146274875
:10214000FEF7ACFC002231462448FEF7A7FC002233
:10215000A1102248FEF7A2FC092000226111C0064E
:10216000FEF79CFC092000222111C006FEF796FC18
:1021700009200022E110C006FEF790FC0022082191
:102180001A48FEF78BFC092000222146C006FEF704
:1021900085FC002280211548FEF780FC00222021CA
:1021A0001248FEF77BFC002202213846FEF776FC3F
:1021B000002210210D48FEF771FC002240210B483F
:1021C000FEF76CFC0022E1110848FEF767FC0022D4
:1021D000A1110648FEF762FCFEBD000000080048A1
:1021E00001E00000001400480880000000040048DE
:1021F000F203000070470000F8B52648017A012973
:102200002AD041780278914201D1012300E00023D5
:102210008370214D01212E78092000244902C00637
:102220001F2E11D02A46956852680A277A43202E1D
:1022300013D0194F212E1BD0222E0DD1002B26D0CA
:10224000954222D2012218E0002B01D0012200E0A9
:102250000022FEF723FCAC60F8BD002B05D0012264
:10226000FEF71CFC0C488460F8BD95420DD8F8BD03
:10227000002B05D09542E5D8F8BDFEF70FFCF8BD60
:102280000022FEF70BFCBC60F8BD0022F5E7BC6045
:10229000FBE70000100000205C00002070B50C4C33
:1022A000207A01280CD0E278FF2109200131C006F4
:1022B000002A06D00025E5700122FEF7EFFBA5817C
:1022C00070BDA289642AFBD30022FEF7E7FB70BD34
:1022D0001000002013491120086013484168416034
:1022E0004168416041687F22D20391434160416867
:1022F0000522D204114341600168012212061143F4
:10230000016001688901FCD5416889088900416044
:10231000416802221143416041680907890F02297F
:10232000FAD17047002002400010024070B5134CF3
:102330000125207A01280AD0E9021148FEF79AFB0C
:10234000002803D000202072A07170BD25720D49B5
:10235000206A8842F9D3A57109250121ED060022E2
:1023600049022846FEF79AFBFF2100220131284648
:10237000FEF794FBA08C607270BD0000100000207E
:1023800000040048DC0500007047000010B5144848
:1023900001680122114301604168124A1140416005
:1023A0000168114A114001600168012292049143C1
:1023B000016041683F22120491434160C16A0909EA
:1023C0000901C162016BFF22543291430163416BE9
:1023D00049084900416300218160FFF77BFF10BD80
:1023E000001002400CB8FFF8FFFFF6FE10B5064CD7
:1023F0000121204600F0D4F8002803D00121204616
:1024000000F05AF810BD0000002C014010B5012169
:102410008C07204600F0C4F8002803D00121204694
:1024200000F04AF810BD000070B51B4E0121304687
:1024300000F0B6F800282ED0184CE068401CE06090
:102440000A21E068FDF76AFE0025002915D114492C
:102450000888401C0880FFF765FAFEF739FC114830
:102460000168491C0160104810490078002803D019
:102470000868401C086000E00D60E0680C49884274
:1024800005D30C481022017811430170E560012149
:10249000304600F011F870BD00040040000000203C
:1024A0001C00002034000020180000203000002014
:1024B0008813000017000020C943018270470029DB
:1024C000018802D00122114301E04908490001803E
:1024D000704700002A4910B5884202D10121C41476
:1024E0003AE001218907884206D101210846FFF719
:1024F00067F80021012008E02249884208D1012123
:102500000220FFF75DF800210220FFF759F810BD07
:102510001D49884206D101211020FFF751F8002102
:102520001020F2E71949884206D101212020FFF747
:1025300047F800212020E8E71549884207D1841593
:1025400001212046FFF73CF800212046DDE7114934
:10255000884209D101210C042046FFF749F80021E7
:102560002046FFF745F810BD0B49884202D10121F2
:102570004C04F1E709498842F5D101218C04EBE7CD
:10258000002C0140000400400010004000140040F6
:10259000002000400040014000440140004801404C
:1025A0000246138A002092890B400A40002B02D079
:1025B000002A00D001207047002A828901D00A43F6
:1025C00000E08A4382817047828870239A43828028
:1025D00082880A438280704710B50288144B984263
:1025E00006D00124A407A04202D0124CA04203D17D
:1025F0007024A2434C8822430F4CA04203D00F4CBE
:1026000022400C89224302804A68C2620A880285FD
:10261000984208D00A4A904205D00A4A904202D015
:10262000094A904201D1897A01860121818210BD37
:10263000002C01400004004000100040FFFC00009E
:102640000040014000440140004801400021C943CE
:102650004160002101800181418081727047002129
:102660000A22504300E0491C8842FCD8704702E02F
:1026700008C8121F08C1002AFAD17047704700200D
:1026800001E001C1121F002AFBD1704730B50121C2
:1026900087B04802FEF7A0FF1C4C2046FDF7E4FD82
:1026A0006846FDF73CFE00216846017180200390DA
:1026B000C000009104910591029069462046FDF703
:1026C00009FE01212046FDF71BFE032204212046BE
:1026D000FDF7AAFD2046FDF7D7FD01212046FDF7B5
:1026E000A8FD0B4D20462946FDF7E5FD0028F9D051
:1026F00001212046FDF7A6FD02212046FDF7ACFD95
:102700002046FDF707FE07B030BD00000024014061
:102710000100000170B501218CB00846FEF738FFBA
:102720000921684601700125857000244470FEF778
:10273000CFFE154E3046FDF7E5FF01A8FEF778F80D
:10274000124802900394A80208900B9480200690EF
:102750000495202009900E4801908015079005945B
:1027600040010A9001A93046FEF744F801220221F7
:102770003046FEF737F80220FDF7ACFF0121304666
:10278000FDF7B4FF0CB070BD080002408C000020C3
:10279000402401401CB501214804FEF7F9FE6846BB
:1027A000FEF770F9042000900320694608710020AC
:1027B000887148710120C8710920C006FEF722F90E
:1027C0001CBD0000F0B585B001210220FEF7ECFE33
:1027D0000121C802FEF700FF01210846FEF7E4FED2
:1027E00001214804FEF7D4FE0F216846017301253C
:1027F00085730024447303A8FEF76AFE102168461F
:1028000001738573457303A8FEF762FE1D4F3846BA
:10281000FFF760FE6846FFF719FF684604814480B1
:102820000A252F2601950680847269463846FFF7EF
:10283000D3FE012211463846FFF7BEFE012138467D
:10284000FFF73DFE6F073846FFF744FE6846FFF787
:10285000FDFE6846448001950680847269463846CC
:10286000FFF7BAFE012211463846FFF7A5FE2021E8
:102870003846FFF7A9FE01213846FFF720FE05B0D4
:10288000F0BD0000000400401CB501214C042046AE
:10289000FEF77EFE01212046FEF77AFE0120694602
:1028A000087188710020C8710320487180200924B4
:1028B000E40600902046FEF7A5F840200090694607
:1028C0002046FEF79FF800F077F91CBDFEF7F2F8FE
:1028D0002A4C2B4DE0792C4E40084000E071E189F4
:1028E00028488B001A1836681660C0582A68491C98
:1028F000121888B22A60E081802804D90020E08183
:102900000120207102E02079002804D000202071ED
:10291000D10961612860FFF709FD0926F6067D27C8
:10292000FF0015E00121002249023046FEF7B6F80B
:10293000FF21002201313046FEF7B0F8617A606A6B
:10294000401AB84204D30020A0712062207202E035
:10295000A0790028E6D1FFF7A1FCE178A078FFF785
:1029600099FAFDF773FFFDF7E3FC60793328B1D1E5
:1029700000F0BEF900F066F9ACE70000100000209E
:10298000D0040020D00000200800002010B5A020B6
:1029900000F08EF8002803D000F00EF9002010BDE2
:1029A000012010BDF8B515460C46064600F0F0F8BB
:1029B000A02000F0C9F800F00DF900280FD1E0B216
:1029C00000F0C2F800F006F9002808D100F0E0F8A5
:1029D000A12000F0B9F800F0FDF8002803D000F0C5
:1029E000EBF80020F8BD00246F1E0BE000F090F81B
:1029F0003055BC4202D000F047F801E000F076F814
:102A0000641CA4B2AC42F1D300F0D6F80120F8BDAA
:102A1000F7B517460C46002530E0002D01D06007C1
:102A20001CD100F0C9F8002600F0B2F8A02000F098
:102A30008BF800F0CFF8002805D0761C7D20B6B2C8
:102A4000C0008642F0D37D20C00086420ED0E0B2A6
:102A500000F07AF800F0BEF8002807D10098405D39
:102A600000F072F800F0B6F8002803D000F0A4F8E7
:102A70000020FEBD641C6D1CA4B2ADB2BD42CCD31F
:102A800000F09AF80120FEBDF8B5084D40242C81D5
:102A900000F026F809278026FF06BE6100F020F826
:102AA0002E8100F01DF8BC61F8BD00002000004838
:102AB00010B509210446C906088A40060ED5088AC1
:102AC00000060BD500F064F8204600F03DF800F059
:102AD00081F8044600F070F8204610BD012010BDBA
:102AE0000020401CC0B21E28FBD3704770B50924DB
:102AF0004020E406A061FFF7F3FF8025A561FFF702
:102B0000EFFF02480581FFF7EBFF70BD2000004892
:102B1000F8B500240927FF06254680266006040E26
:102B2000BE61FFF7DDFF388A400601D5641CE4B2C0
:102B300004480681FFF7D4FF6D1CEDB2082DEDD3DC
:102B40002046F8BD20000048F8B50024802709265B
:102B50000546F606280602D54020B06102E00B4982
:102B600040200881FFF7BCFFB761FFF7B9FF0748B6
:102B70000781072C01D14020B0616806050EFFF7E0
:102B8000AFFF641CE4B2082CE4D3F8BD2000004879
:102B900070B540250920C006856180248461FFF757
:102BA0009FFF044E3581FFF79BFF3481FFF798FFAD
:102BB00070BD00002000004870B505484024048125
:102BC00009258020ED06A861FFF78AFFAC6170BD82
:102BD0002000004870B509244020E406A061FFF7FA
:102BE0007FFF8025A561FFF77BFF208A400601D586
:102BF000012400E0002403480581FFF771FF20460F
:102C000070BD00002000004810B5FEF7FDFCFFF786
:102C100001FA00F061F90A48FEF750FDFFF734FEB3
:102C2000FDF7D4FCFEF716F8FDF72EFCFF20F5307B
:102C3000401E00B20028FBDCFFF748FE002010BD5C
:102C40009800002070B5264C264EA07A7070264859
:102C5000C079012802D1E07901283FD0234800251E
:102C6000C07901283AD02FE0FEF7C6F80A20205E8E
:102C700071788842207A22D0202825D103206081D3
:102C80003570FEF72FF9207A20281DD10A20205E0A
:102C9000042816DB13486581E57104220A210C30F3
:102CA000FFF7B6FE0F48042214211030FFF7B0FEE4
:102CB0000C4804221E210830FFF7AAFE04E0202859
:102CC00002D160890328DCD0E079012803D1A16911
:102CD00020698842C8D2207A2128C5D070BD000062
:102CE000040500205000002044050020E4040020DA
:102CF000F8B5012409256402ED0621462846FDF7B2
:102D0000B9FE024621462846FDF7C8FE194CE07977
:102D100001282DD11848C179012929D00027174D44
:102D2000174EFDF737FA7D20C000FFF798FC19E039
:102D300002206968FFF7C4F8207A212812D1E079CF
:102D4000012815D16089A081202020720D491F2003
:102D50004F8108727781084930724F8108722F7055
:102D6000FDF7F2FE207A2028E2D0E0790128D8D0C1
:102D7000F8BD0000E40400200405002068000020E5
:102D8000440500202405002030B5C2070121002A97
:102D900002D01F4A916102E01D4A203211811D4973
:102DA0001D4A1E4B840701D5916100E019811C4C1E
:102DB000450701D5946100E01C811A4C050701D537
:102DC000946100E01C81184C184A194BC50601D5C6
:102DD000946100E01C81174C850601D5946100E0E8
:102DE0001C81154C450601D5946100E01C81050647
:102DF0000824002D02DA114DAC6102E00F4D2035A0
:102E00002C81C00501D5916130BD198130BD000014
:102E10000014004800800000000800482008004816
:102E200000400000002000000004000000000048F6
:102E300020000048000800000010000000040048C6
:102E400070B50446204DC00701D0002200E00122E9
:102E500080212846FDF722FEA00701D5002200E0D0
:102E6000012220212846FDF719FE1848610701D5E7
:102E7000002200E001220221FDF710FE200701D50B
:102E8000002200E0012210212846FDF707FEE0069F
:102E900001D5002200E0012240212846FDF7FEFD79
:102EA0000B49A00601D5002200E001222846FDF7CB
:102EB000F5FD0849600601D5002200E00122284600
:102EC000FDF7ECFD70BD0000000400480014004850
:102ED000000100000002000010B5FFF75BFCFFF7E7
:102EE000D5FBFFF717FCFFF76DFC10BD01000200DA
:102EF00004000800100020004000800000013F0096
:102F000030005B00790074006D006F0038007F00B6
:102F10007D007E0067000F0073004F004E004000F0
:102F20006300620023006D004700000007005E00A0
:102F30004E00760039000E00010002000400080077
:102F40001000200040008000FF000000370000005B
:102F5000702F0008000000208C0000006E26000882
:102F6000FC2F00088C000020DC0800007E260008F2
:102F70000000000000000000000000000000000051
:102F8000000100000033000000000000000000000D
:102F9000E803000000000000E8030000000000005B
:102FA000000000000000000000000000000101011E
:102FB000010101010000000000000000000000000D
:102FC0000000000000000000E80300001F000000F7
:102FD0000A000000000000000000000000000000E7
:102FE00000000000000000000000000000000000E1
:0C2FF000010203040102030406070809A3
:04000005080000B13E
:00000001FF
