:020000040800F2
:1000000068090020C500000831160008910D00089D
:1000100000000000000000000000000000000000E0
:10002000000000000000000000000000C9240008DB
:10003000000000000000000085160008612600088E
:10004000F5000008F5000008F5000008F5000008BC
:10005000F5000008F5000008F5000008F5000008AC
:100060000000000089060008F5000008F5000008FF
:10007000F5000008C5260008F5000008E526000880
:10008000012700080000000000000000F500000843
:1000900000000000F5000008F5000008F500000869
:1000A00000000000F500000800000000F500000856
:1000B0000348854600F05CF800480047ED2E000834
:1000C000680900200C4880F308880C480168090E74
:1000D0000B4A914205D10B480B4901600B480C4972
:1000E00001600C4880470C480047FEE7FEE7FEE74A
:1000F000FEE7FEE7FEE700006809002004000000BC
:100100001F00000018100240010000000000014024
:100110000000000065260008B100000830B50B465D
:10012000014600202022012409E00D46D5409D42D1
:1001300005D31D469540491B254695404019154657
:10014000521E002DF1DC30BD70B50024254600287C
:1001500001DA01244042002901DA01254942FFF772
:10016000DDFFAC4200D04042002C00D0494270BDBF
:10017000064C0125064E05E0E36807CC2B430C3CFA
:1001800098471034B442F7D3FFF796FF6432000863
:1001900084320008F8B5194D0026194C194F6E60CD
:1001A00027E019480178002923D006701348001D64
:1001B00000F014FD7D206968C000814202D92068EA
:1001C000401E03E0814202D22068401C20600F489C
:1001D0002168814201DB206002E0002900DC26600A
:1001E000208881B2002000F037FA0121002000F0C1
:1001F0003DFA6868C0196528D3D2F8BD6C000020AC
:100200002C0000204AFCFFFF00000020FF0F000030
:10021000836A0B438362426170470029816801D081
:10022000012200E002221143816070470029C16869
:1002300002D00122114301E049084900C160704722
:10024000C26802239A43C260C2680A43C260704710
:10025000064910B5884208D144150121204601F015
:1002600079FA0021204601F075FA10BD0024014002
:10027000826800210123DB071A4382600F231B03DE
:100280008268491CD20FD207994201D0002AF7D1C7
:100290008168002901DB006C70470020704702462E
:1002A0000020CB0104D5926801231B069A4300E08D
:1002B00012680A4200D001207047000030B5C368C0
:1002C000084A8C6813400A680D792243CC686D0394
:1002D0002C4322430C69496922430A431A43C260F2
:1002E00030BD000003D2FFFF012212030029C168C4
:1002F00001D0114300E09143C1607047816804223E
:100300001143816070470021016001718160C1600B
:100310000161416170470000F8B5554D287A2128E8
:100320007ED154483321027A1F270026524C212ABD
:1003300002D1C079012804D05048027A212A22D063
:1003400076E06079332802D061716E8107E0342055
:100350006071FAE7012000F099F80120E07144484B
:1003600001F084FB012804D1424801F07FFB012801
:10037000F0D0414801223C21401D02F0BBFC2F720D
:100380006E813C4870E03D48C079012850D17D2005
:100390003B4AC0001060E08161713A490A220F7047
:1003A0004A80E06104E0022000F070F80120E07172
:1003B0002F4801F05BFB012804D1304801F056FBC7
:1003C0000128F0D004220A212E4802F093FC2D4887
:1003D00004221421801C02F08DFC04221E212848D6
:1003E00002F088FC2448042228210E3002F082FC0E
:1003F0002148042232211C3002F07CFC1E480422D9
:100400003C21401D02F076FC2F722E611B486E814C
:1004100007724681A08B81B2002000F01DF900E038
:1004200024E00121002000F021F9287A21281DD1A3
:100430001548017A212919D1C079012816D12662DF
:1004400004E0032000F022F80120E071084801F0E8
:100450000DFB012804D10C4801F008FB0128F0D065
:100460002F722E6108486E8146810772F8BD000028
:10047000080500204805002010000020E8040020A6
:1004800060000020640000202805002070B50022D4
:100490001449012805D0472302280ED0032813D081
:1004A00018E011480F240578632007230C7048706A
:1004B000332D8B700DD1372004E00B70392048703C
:1004C00062238B70C87005E00B706D2048700E20A1
:1004D0008870CA700A714A718A71CA7101F0D4FABF
:1004E00070BD0000DC04002015000020FEB5314C7A
:1004F0002F48012189022060A1800D23A3710021D2
:1005000061812161E171152727771F2222722A4E0E
:100510006422A6616261254620350122120328600B
:10052000AA80AB7169812961E9712F771F222A7234
:10053000AE6164226A61224640320126B603106031
:100540009680937151811161D17117771F261672B0
:10055000642656617D2636019661164620360122B4
:1005600052033060B280B37171813161F1713777BC
:100570001F223272642272617D221201B2611D2239
:10058000920200926A46117151710221D17169463D
:1005900000F0D2FA6946306800F0CEFA6946286861
:1005A00000F0CAFA6946206800F0C6FAFEBD0000F5
:1005B00000040048E804002070170000054B0122E9
:1005C00082401868002901D0104300E09043186071
:1005D00070470000007400401CB50121480401F080
:1005E00089F80121480701F091F8102000900321BB
:1005F0006846017100214171C17109206946C00638
:1006000000F09AFA1CBD000030B5074C2368074A79
:100610008240934324C92A430D6849680D432A4305
:1006200082401A43226030BD00740040FE0F00007B
:100630001FB5FFF7D1FF3C20009000210B200002E6
:1006400001910391029069460020FFF7DDFF01212F
:100650000020FFF7B3FF1FBD034A08B5101808308C
:100660000090016008BD00000074004003090120F3
:10067000044A98400029516801D0014300E08143B9
:100680005160704700740040F8B5022000F0CCF8CB
:1006900000283AD01F4800211F4C415EA0781F4B14
:1006A000820099506268401C8918C0B26160A070D5
:1006B00003282AD90025A570880865600126A06056
:1006C000174A2670515F174F884201D33E7003E0EE
:1006D0003239884200D83D7013484168491C416056
:1006E00001F0F4FE607800280DD1387801280AD195
:1006F0000E490F4A0868401C08601268904202D3F5
:100700000C4806700D6038786070022000F014F814
:10071000F8BD00009000002000000020C400002070
:100720001E00002010000020640000203000002087
:100730006000002013000020C10001D5024900E044
:100740000249486070470000000402400000024077
:100750000029016802D00122114301E0014A114041
:1007600001607047FEFF0000F0B501682B4A1140A0
:1007700001600021016041608160C1602849284B0F
:1007800008390F22984201D1486823E0244CF02315
:100790001434A04229D0224D1C012835A8422BD068
:1007A0001F4E1D023C36B0422DD01D4F1E03503748
:1007B000B8422FD01A4F6437B84204D148681A049F
:1007C00008E04860F0BD164F7837B84204D1486859
:1007D0000F2212061043F4E71249124F0839B842AB
:1007E000D2D0104A1432904202D148681843E8E748
:1007F0000C4A2832904202D148682043E1E7094A76
:100800003C32904202D148682843DAE7054A503228
:100810009042D7D148683043D3E70000FEFF000084
:10082000080002400804024001460020CA0001D529
:10083000034A00E0034A12680A4200D001207047D0
:100840000004024000000240002A026801D00A436E
:1008500000E08A430260704730B503680C4A0C6AB6
:1008600013408A684D6922430C692C4322438C69EA
:100870002243CC6922434C6A22438C6A22431A43A6
:100880000260CA6842600A6882604968C16030BD1F
:100890000F80FFFF0021016041608160C160016144
:1008A00041618161C1610162416281627047000002
:1008B000F8B53D4D002668793C4C3D4F332830D18A
:1008C00020460A21027A615E3846C079002902D0AA
:1008D000202A04D033E0AE72202A04D02FE0012970
:1008E00004D0022907D003290AD028E0002826D105
:1008F0000120A87254E0002821D10220A87225E02E
:1009000000281CD16681AE7247E0207A212805D1EB
:10091000387A212802D1F87901281AD00120FFF76E
:10092000B5FDE0790128F0D02248C0790128ECD04B
:10093000F8790128E9D02048C0790128E5D0A87AC3
:1009400000282AD001282BD0022801D100F0BAF8C3
:10095000F8BD6879332804D033206871EE71668160
:1009600005E034206871FAE70120FFF78FFD0F489A
:1009700001F07CF8012804D10D4801F077F8012836
:10098000F2D0094801223C21401D02F0B3F91F209A
:10099000207266817E813872C3E700F00FF8F8BDDF
:1009A00000F09AF8F8BD00001000002008050020B3
:1009B00048050020E804002028050020F8B53C4C3C
:1009C000208B01B20E20205E01F0DAFA3948E1797D
:1009D000C07900250843002845D16079332842D1E9
:1009E00035480A21354E415EE27AF743914202D002
:1009F000027A202A03D0C179012903D005E0E172EF
:100A0000458117E0017A21290ED0202101722C485E
:100A10000A21415EE27A914202D0017A20291BD05C
:100A2000C17901291AD01CE045810069B04205D87E
:100A3000142109E0E089401CE081E8E71F49C21960
:100A4000491E8A4205D80A21FFF768FB0029F1D028
:100A5000DDE7C007EED0DAE7458112E0017A21290F
:100A600009D0202101720E20205E7D21490188429B
:100A700019DDE581F8BD45810069B04205D2142138
:100A800009E0E089401EE081EDE70C49C219491EEA
:100A90008A4205D20A21FFF741FB0029F1D0E2E7A3
:100AA000C007EED0DFE70028E4DAE181F8BD0000FE
:100AB0001000002008050020280500207017000005
:100AC0004805002010B50348008C00B201F0CCFAB4
:100AD00010BD00001000002070B5144C607801F0CB
:100AE00007FB13490A228A5E257B01230020AA42C4
:100AF00008D00D7A202D05D1227348816178002914
:100B00000FD060700B490A228A5E257BAA4207D06B
:100B10000A7A202A04D148816178002903D06070C4
:100B200070BD6370EEE7637070BD000010000020C0
:100B30002805002048050020F0B5002201242346A6
:100B40000D6893401D409D422AD10D79012D01D0A1
:100B5000022D12D1876855000326AE40B743876047
:100B60004E79AE4085682E43866085889D4385809A
:100B700085888B7993401D43858006685500032343
:100B8000AB409E4306600E790768AE403E43066068
:100B9000C6689E43C660CB79AB40C5682B43C36033
:100BA000521C102ACBD3F0BD0246128A00200A4202
:100BB00000D001207047000004490160002101714C
:100BC000012242718171C17170470000FFFF000076
:100BD000002A01D081617047018570470149096889
:100BE000016070470800002010B502F041F80028AD
:100BF000FBD01E4801F0A5FE04220A211C4802F089
:100C000043F80028F8D01A4C04221421A01C02F04A
:100C10003BF80028F8D004221E21164802F034F8D0
:100C20000028F8D004222821134802F02DF80028CB
:100C3000F8D01148042232210E3002F025F80028A5
:100C4000F7D00D4801223C21093802F01DF8002898
:100C5000F7D009480E38808B81B20020FFF7FCFCEA
:100C600001210020FFF702FD10BD000070170000F9
:100C700064000020600000201E00002010B5002449
:100C800004E00A21FFF74AFA641CE4B20028F8D114
:100C9000204610BDF8B50020374C0090374D20613C
:100CA00020E037480168002001F04EFA17E068465E
:100CB000FFF794FF00982169884200D32061314EEC
:100CC0003078C10608D5EF21084030702C4800224A
:100CD0000168104601F0A0FA287A212806D0E879A8
:100CE0000128E4D020780028DBD0F8BD2548017821
:100CF000CA063AD5EF2211400170002211460120A8
:100D000001F08AFA31E02069A060616801260818C4
:100D1000400809277602FF06E06031463846FFF7B3
:100D200043FF024631463846FFF752FF7610314600
:100D30003846FFF739FF024631463846FFF748FF8D
:100D40001149A08908800120207000206881E87185
:100D50001F2028720848042228210C3001F0CAFF05
:100D600004223221094801F0C5FF287A2128B6D192
:100D7000E8790028BAD1C6E76C000020E80400201A
:100D800040000020180000201E0000202C00002041
:100D9000FEE700007CB50121480400F0ABFC012116
:100DA000880400F0A7FC0121C80400F0A3FC012185
:100DB000080500F09FFC0121480500F09BFC012183
:100DC000880500F097FC6846FFF7F6FE0320000256
:100DD000009001206946087100248C7103224A7139
:100DE0000925C871ED062846FFF7A6FE6946284684
:100DF000FFF7A2FE0120C002009069460C714C7101
:100E0000CC710248FFF798FE7CBD0000000400484A
:100E1000F8B5484800F02AFE464C01250026012876
:100E200005D0204600F022FE002805D005E020690C
:100E3000401C2061E57100E0E6712069002802D0C5
:100E4000E179002905D0A169884205D9E079012816
:100E500002D1384800F017FC3648203800F006FE72
:100E6000344F203F012805D0384600F0FFFD002810
:100E700005D005E03869401C3861FD7100E0FE7165
:100E80003869002802D0F979002905D0A169884283
:100E900006D9F879012803D12648203800F0F3FB61
:100EA0002448203000F0E2FD224C2034012805D0F7
:100EB000204600F0DBFD002805D005E02069401C3D
:100EC0002061E57100E0E6712069002802D0E17937
:100ED000002905D0A169884206D9E079012803D10B
:100EE0001448203000F0CFFB1248403000F0BEFD27
:100EF000104F4037012805D0384600F0B7FD0028D4
:100F000005D005E03869401C3861FD7100E0FE71D4
:100F10003869002802D0F979002905D0A1698842F2
:100F200006D9F879012803D10248403000F0ABFB24
:100F3000F8BD000008050020F8B5354CA06800F0A9
:100F4000C9FD34480A21344E415EA2780025F7439A
:100F5000914202D0027A202A03D0C179012903D01C
:100F600005E0A170458117E0017A21290ED02021EA
:100F700001722A480A21415EA278914202D0017A88
:100F800020291BD0C17901291AD01CE045810069B4
:100F9000B04205D2142109E0A068401CA060E8E737
:100FA0001D49C219491E8A4205D20A21FFF7B6F827
:100FB0000029F1D0DDE7C007EED0DAE7458110E087
:100FC000017A212907D020210172A1681448002943
:100FD00019DAA060F8BD45810069B04205D214213C
:100FE00009E0A068401EA060EFE70B49C219491E46
:100FF0008A4205D20A21FFF791F80029F1D0E4E7EF
:10100000C007EED0E1E78142E4DD0120E1E7000026
:101010005800002028050020701700004805002017
:101020000F270000F8B55B4D5B4E5C4F5C4C29E030
:1010300000F0E2FA0A20285EE17888420CD0297A92
:10104000202909D1E070002068812178491C49B22B
:101050002170032900DD20700A20305EE17888428B
:101060000CD0307A202809D1002070812078401ED1
:1010700040B22070002801DA032020700A20385E78
:1010800004282BDA20780028D2D027E000F08AF854
:101090000A21695EE07881420BD0297A202908D1A3
:1010A000002169812278521C52B22270032A00DD8D
:1010B00021700A21715E81420CD0307A202809D13A
:1010C000002070812078401E40B22070002801DA94
:1010D000032020700A20385E04282BDC20780128A9
:1010E000D4D027E000F01AF90A21695EE078814245
:1010F0000BD0297A202908D1002169812278521C3D
:1011000052B22270032A00DD21700A21715E8142F1
:101110000CD0307A202809D1002070812078401E20
:1011200040B22070002801DA032020700A20385EC7
:1011300004282BDC20780228D4D027E000F0A4F982
:101140000A20285EE17888420BD0287A202808D12E
:1011500000226A812078401C40B22070032800DD04
:1011600022700A20305E88420CD0307A202809D1C3
:10117000002070812078401E40B22070002801DAE3
:10118000032020700A20385E042802DC207803281F
:10119000D4D0F8BD2805002048050020080500200F
:1011A00058000020F8B5564CEF2720780025C106DE
:1011B000544E002903DA3840207000F0CFFC96E04E
:1011C0005148202101705148C079002803D150486E
:1011D000C079002807D020784B4938402070022081
:1011E000085E002108E02078C10607D5384020704D
:1011F00045490220085E012100F0D0FC424A4348E4
:101200000A210C3A415E1279914202D0027A202AD8
:1012100003D0C179012905D007E03B4A0C3A11718E
:1012200045811AE0017A212910D020210172364926
:1012300037480A220C39825E09798A4202D0017A43
:1012400020291FD0C17901291ED020E045810069E5
:101250003049884206D214210CE02B494888401CB2
:101260004880E4E72B49C94342182A49491E8A426B
:1012700005D20A21FEF752FF0029EED0D7E7C007BA
:10128000EBD0D4E7458127E0017A212909D020213C
:1012900001721D480222825E1F498A4224DD458078
:1012A00025E0458100691B49884209D21421FEF7D7
:1012B00035FF0029EDD114494888401E4880E8E7F1
:1012C0001449C94342181349491E8A4209D20A21C6
:1012D000FEF724FF0029DCD10B484188491E4180DC
:1012E000D7E7C007F8D0D4E7002A00DA4180307A87
:1012F000202803D17089042800D161E7F8BD0000DF
:1013000018000020080500206400002028050020A7
:1013100048050020701700000F270000F8B5534C57
:10132000EF2720780025C106514E002903DA384006
:10133000207000F0B9FC90E04E48212101704E4829
:10134000C079002803D14D48C079002808D0207802
:10135000DF210840207047490220085E002108E094
:101360002078C10607D53840207042490220085E27
:10137000012100F0B9FC3F493F480A220C39825E46
:1013800049798A4202D0017A202903D0C179012902
:1013900005D007E037490C394A7145811AE0017AD6
:1013A000212910D020210172324934480A220C39F7
:1013B000825E49798A4202D0017A20291FD0C17900
:1013C00001291ED020E0458100692D49884206D2BE
:1013D00014210CE027484188491C4180E4E7284952
:1013E000C94342182649491E8A4205D20A21FEF7FE
:1013F00095FE0029EED0D7E7C007EBD0D4E74581B2
:1014000013E0017A212909D0202101721949022013
:10141000085E1C4A90421DDD4D801EE0458100693A
:101420001749884206D214210CE012484188491E0F
:101430004180EBE71249C94342181149491E8A42CB
:1014400005D20A21FEF76AFE0029EED0DEE7C007CA
:10145000EBD0DBE7002800DA4A80307A202803D17D
:101460007089042800D167E7F8BD0000180000204B
:101470000805002064000020280500204805002001
:10148000701700000F270000F8B5544CEF272078A4
:101490000025C106524E002903DA3840207000F0C2
:1014A000A9FC93E04F49222008704F48C0790028DA
:1014B00003D14E48C079002807D0207849493840E8
:1014C00020700220085E002108E02078C10607D5C0
:1014D0003840207043490220085E012100F0AAFC38
:1014E000404A41480A210C3A415E9279914202D029
:1014F000027A202A03D0C179012909D00BE0394AA8
:101500000C3A9171374945814888401C488004E075
:10151000017A212910D020210172324933480A2250
:101520000C39825E89798A4202D0017A20291FD043
:10153000C17901291ED020E0458100692C498842EB
:1015400006D214210CE027484188491C4180E4E779
:101550002749C94342182649491E8A4205D20A2111
:10156000FEF7DCFD0029EED0D7E7C007EBD0D4E7CB
:10157000458113E0017A212909D0202101721949FE
:101580000220085E1B4A90421DDD4D801EE0458111
:1015900000691749884206D214210CE0114841889D
:1015A000491E4180EBE71249C94342181049491EC0
:1015B0008A4205D20A21FEF7B1FD0029EED0DEE70E
:1015C000C007EBD0DBE7002800DA4A80307A202819
:1015D00003D17089042800D164E7F8BD1800002009
:1015E0000805002064000020280500204805002090
:1015F000701700000F27000010B50A480178CA06CE
:1016000004D5EF221140017000F09AFC0648017ADF
:10161000202905D14089042802D104491F200870DF
:1016200010BD000018000020080500206400002004
:101630007047000030B5837801210278002B15D067
:1016400094080E4BA400E41823689207D50EFF22DD
:10165000AA40934342789207120EAA401A4322608E
:101660000078C006C00E8140054804E0D006C00ED8
:10167000814003488030016030BD000000E400E09C
:1016800000E100E0704730B5827900212123202459
:101690000D2A09D00B2A14D00C2A11D184690269B1
:1016A000A2420DD3037207E085690269AA4208D3FA
:1016B0000372C279002A03D101614189491C418129
:1016C00030BD0472F8E7000009494A6801239B0312
:1016D0009A434A604A6883B21A434A600A6B8B1580
:1016E0009A430A630A6B000C02430A6370470000C6
:1016F00000100240044A0029516901D0014300E072
:10170000814351617047000000100240044A0029E3
:10171000D16901D0014300E08143D16170470000ED
:1017200000100240044A0029116901D0014300E081
:10173000814311617047000000100240044A0029F3
:10174000916901D0014300E081439161704700003D
:1017500000100240044A0029D16801D0014300E092
:101760008143D160704700000010024010B500F0C6
:1017700029F8012000F03CF9012000F00DF90028C3
:10178000FAD0002000F02AF9002000F03FF90521EE
:10179000C904002000F052F9012000F041F9084886
:1017A000FFF792FF192000F0F7F80028FAD0022086
:1017B00000F052F900F00AF90828FBD110BD000032
:1017C0000040000112480168012211430160416894
:1017D000104A1140416001680F4A114001600168E0
:1017E000012292049143016041683F221204914317
:1017F0004160C16A09090901C162016B074A1140D0
:101800000163416B490849004163002181607047D1
:10181000001002400CB8FF08FFFFF6FEACFEF0FF20
:10182000F8B5564D0446686800210C22544E10400D
:1018300005D0042803D0082803D00C281AD026602D
:101840001AE06968686803228902D2030F0F10400A
:10185000BF1C00280AD0E86A0107090F3046491C5E
:10186000FEF75CFC78430146216005E045483946B7
:101870004143F9E7444820606868444F0006000F80
:101880003B5C20680246DA4062606B685B055B0F78
:10189000FB5CDA40A2602B6BDB0501D43C4B05E01E
:1018A0006B685B0401D4530800E09308E3602B6B82
:1018B0005F06384B03D4374F1237276100E02361AE
:1018C0002F6BFF0601D4666100E060612F6BBF07DC
:1018D0000ED02F6BBF07BF0F012F0BD02F6BBF0791
:1018E000BF0F022F08D02F6BFF43BF0706D006E0C3
:1018F000A26104E0A06102E0A36100E0A6612F6B99
:10190000BF03BF0F0FD02F6BBF03BF0F012F0CD032
:101910002F6BBF03BF0F022F09D02F6BBF03BF0F69
:10192000032F06D006E0E26104E0E06102E0E3613B
:1019300000E0E6612F6B3F03BF0F0FD02A6B12034D
:10194000920F012A0CD0286B0003800F022809D0C7
:10195000286B0003800F032806D006E0226204E013
:10196000206202E0236200E02662286B000602D4B7
:1019700005486062F8BD6162F8BD000000100240D9
:1019800000127A0000093D00006CDC02800000209B
:10199000809FD50000800000034600200A495A09B4
:1019A0000CD0012A0CD0022A0CD0496BDA06D20ED8
:1019B000012393400B4200D0012070470968F5E7EE
:1019C000096AF3E7496AF1E70010024002484068FB
:1019D0000C2108407047000000100240034A516883
:1019E000F02399430143516070470000001002400A
:1019F00005490028086802D00122104301E0400890
:101A0000400008607047000000100240034A51681F
:101A100007231B02994301435160704700100240A5
:101A20000122054912060028086801D0104300E091
:101A300090430860704700000010024010B5054A4E
:101A400053687B24E403A343536053680843034370
:101A5000536010BD00100240034A51688908890094
:101A600001435160704700000010024010B5044669
:101A700081880068FFF798F8217F152902D1012895
:101A800000D0002010BD000070B5104C0E49207829
:101A90002546095C0C3529700D494000085A6860DC
:101AA000002001F057FB686801F0F8FA287801F08F
:101AB00051FB686801F0F2FA2078411C2170082877
:101AC00001D30020207070BDDC0400204400002001
:101AD00000320008F1B50098FFF7D0F805460A215A
:101AE0000098FEF71BFB024648001A4F1A4C385C60
:101AF00000262070022D07D310460A21FEF70EFBA8
:101B00004800385C607000E06670032D0AD36421E1
:101B10000098FEF703FB0A21FEF700FB4800385C43
:101B2000A07000E0A670042D0BD37D21C9000098A1
:101B3000FEF7F4FA0A21FEF7F1FA4800385CE0708B
:101B400000E0E6702671232060716D20A0710F20E7
:101B5000E071F8BD12320008DC0400200D4840217D
:101B60000170417081700C4AC17093780021002B84
:101B700008D0732303714E23437183716323C371B0
:101B800091707047017141718171C1710120907034
:101B900070470000DC04002044000020F3B581B051
:101BA0000C460198FFF76AF8074620463B4E002591
:101BB0003B4C00283CD03B48C078002830D00A215C
:101BC0000198FEF7C1FA4900715C2170022F06D31B
:101BD0000A21FEF7B9FA4800305C607000E06570D9
:101BE000032F0AD364210198FEF7AEFA0A21FEF70B
:101BF000ABFA4800305CA07000E0A570042F0BD356
:101C00007D21C9000198FEF79FFA0A21FEF79CFA90
:101C10004800305CE07000E0E5702248C57034E0B8
:101C200025706570A5701F48E5700121C1702CE01A
:101C30000A210198FEF788FA4900715C2170022F91
:101C400012D30A21FEF780FA4800305C6070032F3F
:101C50000BD364210198FEF777FA0A21FEF774FA94
:101C60004800305CA07001E06570A570042F0BD3B4
:101C70007D21C9000198FEF767FA0A21FEF764FA90
:101C80004800305CE07000E0E570732020714E2069
:101C90006071A0716320E071FEBD00001232000887
:101CA000DC0400204400002010B50D4840220270E2
:101CB000427082700B4BC2701C790021002C08D03E
:101CC000732404714271622282716322C27119719C
:101CD00010BD017141718171C1710120187110BD78
:101CE000DC04002044000020F3B581B00C460198CC
:101CF000FEF7C4FF074620463B4E00253B4C00281C
:101D00003CD03B484079002830D00A210198FEF7AA
:101D10001BFA4900715C2170022F06D30A21FEF7DD
:101D200013FA4800305C607000E06570032F0AD33E
:101D300064210198FEF708FA0A21FEF705FA480027
:101D4000305CA07000E0A570042F0BD37D21C9008A
:101D50000198FEF7F9F90A21FEF7F6F94800305C20
:101D6000E07000E0E5702248457134E02570657050
:101D7000A5701F48E570012141712CE00A210198EE
:101D8000FEF7E2F94900715C2170022F12D30A219B
:101D9000FEF7DAF94800305C6070032F0BD3642142
:101DA0000198FEF7D1F90A21FEF7CEF94800305C20
:101DB000A07001E06570A570042F0BD37D21C900D0
:101DC0000198FEF7C1F90A21FEF7BEF94800305C20
:101DD000E07000E0E57073202071402060716220A7
:101DE000A0716320E071FEBD12320008DC04002007
:101DF000440000200D4840210170417081700C4A60
:101E0000C17093790021002B09D04723037163230C
:101E10004371762383716D23C37191717047017192
:101E200041718171C171012090717047DC04002003
:101E300044000020F3B581B00C460198FEF71EFF68
:101E4000074620463B4E00253B4C00283CD03B48F3
:101E5000C079002830D00A210198FEF775F94900B1
:101E6000715C2170022F06D30A21FEF76DF948003C
:101E7000305C607000E06570032F0AD36421019824
:101E8000FEF762F90A21FEF75FF94800305CA070A6
:101E900000E0A570042F0BD37D21C9000198FEF747
:101EA00053F90A21FEF750F94800305CE07000E079
:101EB000E5702248C57134E025706570A5701F4833
:101EC000E5700121C1712CE00A210198FEF73CF96F
:101ED0004900715C2170022F12D30A21FEF734F9F8
:101EE0004800305C6070032F0BD364210198FEF72B
:101EF0002BF90A21FEF728F94800305CA07001E0B8
:101F00006570A570042F0BD37D21C9000198FEF7E1
:101F10001BF90A21FEF718F94800305CE07000E078
:101F2000E57047202071632060717620A0716D20DC
:101F3000E071FEBD12320008DC04002044000020E5
:101F40000D4840210170417081700C4AC170537876
:101F50000021002B08D04E2303714371632383714A
:101F60004723C37151707047017141718171C17113
:101F70000120507070470000DC0400204400002065
:101F8000F3B581B00298FEF779FE07460198FEF797
:101F900075FE00900A210298FEF7D6F80246480026
:101FA0002F4D304C285C00262070022F07D310469E
:101FB0000A21FEF7C9F84800285C607000E06670EE
:101FC000032F0AD364210298FEF7BEF80A21FEF718
:101FD000BBF84800285CA07000E0A67038467D275A
:101FE000FF0004280AD339460298FEF7ADF80A210B
:101FF000FEF7AAF84800285CE07000E0E6700A21CD
:102000000198FEF7A1F84900695C21710099022945
:1020100006D30A21FEF798F84800285C607100E0BA
:102020006671009803280AD364210198FEF78CF8A2
:102030000A21FEF789F84800285CA07100E0A6712B
:10204000009804280AD339460198FEF77DF80A2142
:10205000FEF77AF84800285CE071FEBDE671FEBD2F
:1020600012320008DC040020F1B50098FEF706FEED
:1020700005460A210098FEF767F8024648001A4F05
:102080001A4C385C00262070022D07D310460A2116
:10209000FEF75AF84800385C607000E06670032D67
:1020A0000AD364210098FEF74FF80A21FEF74CF896
:1020B0004800385CA07000E0A670042D0BD37D2191
:1020C000C9000098FEF740F80A21FEF73DF84800E5
:1020D000385CE07000E0E6702671232060715E20BD
:1020E000A0710F20E071F8BD12320008DC0400205E
:1020F00010B5094900220A704A708A70CA706224B9
:10210000632240230C714A7100288B7101D0072093
:1021100000E07320C87110BDDC040020094A0028CB
:1021200002D0012806D001E0012901D0002006E0FC
:10213000302004E0002901D0362000E00620107293
:1021400070470000DC040020F3B581B00746029818
:10215000FEF794FD00252D4C0646012F05D0022FD9
:102160001CD025706570A57046E025706570A5705F
:102170002748E570017A002909D0302121714721D3
:1021800061714F21A1716D21E1710572FEBD257153
:102190006571A571E57101210172FEBD0A210298E8
:1021A000FDF7BCFF49001B4F022E795C217006D35E
:1021B0000A21FDF7B3FF4800385C607000E06570ED
:1021C000032E0AD364210298FDF7A8FF0A21FDF728
:1021D000A5FF4800385CA07000E0A570042E0BD36A
:1021E0007D21C9000298FDF799FF0A21FDF796FFAE
:1021F0004800385CE07000E0E57030202071472036
:1022000060714F20A0716D20E071FEBDDC040020E4
:102210004400002012320008F7B507460298FEF786
:102220002DFD00252D4C0646012F05D0022F1CD078
:1022300025706570A57046E025706570A57028480A
:10224000E570417A002909D05B2121714721617134
:102250004F21A1716D21E1714572FEBD257165713E
:10226000A571E57101214172FEBD0A210298FDF7B9
:1022700055FF49001B4F022E795C217006D30A21BD
:10228000FDF74CFF4800385C607000E06570032E7D
:102290000AD364210298FDF741FF0A21FDF73EFFB2
:1022A0004800385CA07000E0A570042E0BD37D219F
:1022B000C9000298FDF732FF0A21FDF72FFF480001
:1022C000385CE07000E0E5705B20207147206071B1
:1022D0004F20A0716D20E071FEBD0000DC040020E5
:1022E0004400002012320008FEB501214804FFF727
:1022F00001FA01218804FFF7FDF90121C804FFF765
:10230000F9F901210805FFF7F5F901214805FFF763
:10231000F1F901218805FFF7EDF96846FEF74CFC5D
:102320000126B603012568460096057100248471D4
:102330004471C57169465E48FEF7FEFB5D4800903A
:102340006846057184714471C57169465848FEF745
:10235000F3FB69465648FEF7EFFB69465448FEF723
:10236000EBFB554F69463846FEF7E6FB0720800237
:1023700000906846057184714471C57109206946F1
:10238000C006FEF7D9FB09206946C006FEF7D4FB5C
:1023900009206946C006FEF7CFFB48480090684612
:1023A000057184714471C57169464548FEF7C4FBE7
:1023B00009206946C006FEF7BFFB42480090684608
:1023C0000571847144710221C17169463C48FEF770
:1023D000B3FB69463A48FEF7AFFB69463846FEF75D
:1023E000ABFB69463648FEF7A7FB69463448FEF763
:1023F000A3FB69463248FEF79FFB69463048FEF76B
:102400009BFB002201213846FEF7E2FBEC03002291
:1024100021462748FEF7DCFB002231462448FEF720
:10242000D7FB0022A1102248FEF7D2FB0920002290
:102430006111C006FEF7CCFB092000222111C00665
:10244000FEF7C6FB09200022E110C006FEF7C0FB24
:10245000002208211A48FEF7BBFB09200022214672
:10246000C006FEF7B5FB002280211548FEF7B0FB41
:10247000002220211248FEF7ABFB00220221384641
:10248000FEF7A6FB002210210D48FEF7A1FB00225B
:1024900040210B48FEF79CFB0022E1110848FEF7A3
:1024A00097FB0022A1110648FEF792FBFEBD00003B
:1024B0000008004801E00000001400480880000007
:1024C00000040048F203000070470000F8B52748F8
:1024D000417A01292CD041780278914201D101231F
:1024E00000E000238370224C012125780920002779
:1024F0004902C0061F2D13D026460222B25E746820
:102500001A4E76697243202D13D0194E212D1BD0FF
:10251000222D0DD1002B26D0944222D2012218E088
:10252000002B01D0012200E00022FEF751FB676082
:10253000F8BD002B05D00122FEF74AFB0C4847608E
:10254000F8BD94420DD8F8BD002B05D09442E5D8D3
:10255000F8BDFEF73DFBF8BD0022FEF739FB7760C2
:10256000F8BD0022F5E77760FBE7000010000020CF
:102570006400002070B50E4C607A012817D0E07816
:10258000FF2509260135F606002804D00122294638
:102590003046FEF71DFB1020205EFA2807DB0020E6
:1025A000E0702082024629463046FEF711FB70BDDE
:1025B0001000002013491120086013484168416051
:1025C0004168416041687F22D20391434160416884
:1025D0000522D20411434160016801221206114311
:1025E000016001688901FCD5416889088900416062
:1025F000416802221143416041680907890F02299D
:10260000FAD17047002002400010024070B5124C11
:102610000125607A01280AD0E9021048FEF7C4FAC1
:10262000002803D000206072A07170BD6572606ADE
:102630006428FAD3A57109250121ED06002249027B
:102640002846FEF7C5FAFF21002201312846FEF791
:10265000BFFAA06AE06270BD1000002000040048CC
:102660007047000010B51448016801221143016051
:102670004168124A114041600168114A11400160ED
:102680000168012292049143016041683F221204D3
:1026900091434160C16A09090901C162016BFF22CE
:1026A000543291430163416B490849004163002161
:1026B0008160FFF77FFF10BD001002400CB8FFF8EB
:1026C000FFFFF6FE10B5064C0121204600F0DAF8B7
:1026D000002803D00121204600F060F810BD000062
:1026E000002C014010B501218C07204600F0CAF8EB
:1026F000002803D00121204600F050F810BD000052
:1027000070B51D4E0121304600F0BCF8002832D0D3
:102710001A4CE068401CE0600A21E068FDF7FEFC0E
:102720000025002919D116480078002803D0154942
:102730000888401C0880FFF7A7F9FEF769FB1248DC
:102740000168491C0160114811490078002803D034
:102750000868401C086000E00D60E0680D49884290
:1027600005D30D481022017811430170E560012165
:10277000304600F013F870BD000400400000002057
:102780001300002020000020380000201900002045
:10279000340000208813000018000020C943018283
:1027A00070470029018802D00122114301E0490845
:1027B00049000180704700002A4910B5884202D1C3
:1027C0000121C4143AE001218907884206D1012180
:1027D0000846FEF7A7FF0021012008E022498842B1
:1027E00008D101210220FEF79DFF00210220FEF703
:1027F00099FF10BD1D49884206D101211020FEF726
:1028000091FF00211020F2E71949884206D10121E9
:102810002020FEF787FF00212020E8E715498842A5
:1028200007D1841501212046FEF77CFF00212046B8
:10283000DDE71149884209D101210C042046FEF749
:1028400089FF00212046FEF785FF10BD0B49884215
:1028500002D101214C04F1E709498842F5D1012157
:102860008C04EBE7002C0140000400400010004005
:10287000001400400020004000400140004401409E
:10288000004801400246138A002092890B400A400A
:10289000002B02D0002A00D001207047002A828934
:1028A00001D00A4300E08A43828170478288702306
:1028B0009A43828082880A438280704710B50288DA
:1028C000144B984206D00124A407A04202D0124C17
:1028D000A04203D17024A2434C8822430F4CA04253
:1028E00003D00F4C22400C89224302804A68C26206
:1028F0000A880285984208D00A4A904205D00A4ABE
:10290000904202D0094A904201D1897A0186012180
:10291000818210BD002C01400004004000100040E6
:10292000FFFC00000040014000440140004801401D
:102930000021C943416000210180018141808172F1
:10294000704700210A22504300E0491C8842FCD80D
:10295000704702E008C8121F08C1002AFAD1704768
:102960007047002001E001C1121F002AFBD170470F
:1029700030B5012187B04802FEF7E0FE1C4C20462E
:10298000FDF766FC6846FDF7BEFC00216846017154
:1029900080200390C0000091049105910290694647
:1029A0002046FDF78BFC01212046FDF79DFC03220C
:1029B00004212046FDF72CFC2046FDF759FC01219F
:1029C0002046FDF72AFC0B4D20462946FDF767FC03
:1029D0000028F9D001212046FDF728FC02212046DD
:1029E000FDF72EFC2046FDF789FC07B030BD000046
:1029F000002401400100000170B501218CB008469F
:102A0000FEF778FE092168460170012585700024D3
:102A10004470FEF70FFE154E3046FDF7A5FE01A8E7
:102A2000FDF738FF124802900394A80208900B9417
:102A3000802006900495202009900E480190801572
:102A40000790059440010A9001A93046FDF704FF64
:102A5000012202213046FDF7F7FE0220FDF76CFE51
:102A600001213046FDF774FE0CB070BD0800024035
:102A700090000020402401401CB501214804FEF7CD
:102A800039FE6846FEF798F8042000900320694656
:102A900008710020887148710120C8710920C006A2
:102AA000FEF74AF81CBD0000F0B585B001210220F8
:102AB000FEF72CFE0121C802FEF740FE0121084668
:102AC000FEF724FE01214804FEF714FE0F2168469C
:102AD0000173012585730024447303A8FEF7AAFD42
:102AE0001021684601738573457303A8FEF7A2FDA4
:102AF0001D4F3846FFF760FE6846FFF719FF68462E
:102B0000048144800A252F26019506808472694637
:102B10003846FFF7D3FE012211463846FFF7BEFEC6
:102B200001213846FFF73DFE6F073846FFF744FEA8
:102B30006846FFF7FDFE6846448001950680847272
:102B400069463846FFF7BAFE012211463846FFF7BC
:102B5000A5FE20213846FFF7A9FE01213846FFF7E0
:102B600020FE05B0F0BD0000000400401CB50121AE
:102B70004C042046FEF7BEFD01212046FEF7BAFDBB
:102B800001206946087188710020C87103204871CE
:102B900080200924E40600902046FDF7CDFF402068
:102BA000009069462046FDF7C7FF00F077F91CBD8D
:102BB000FEF71AF8294C2A4D207A2B4E4008400087
:102BC0002072618A27488B001A1836681660C05830
:102BD0002A68491C121888B22A606082802804D9A9
:102BE000002060820120207102E02079002804D0BA
:102BF00000202071D109A1612860FFF707FD092697
:102C0000F6061A4F15E00121002249023046FDF771
:102C1000DFFFFF21002201313046FDF7D9FFE16AD5
:102C2000A06A401AB84204D30020A07160626072AA
:102C300002E0A0790028E6D1FFF79CFCE178A078BB
:102C4000FFF76CFAFDF734FEFDF766FB6079332879
:102C5000B2D100F0D7F900F067F9ADE7100000201D
:102C6000D4040020D400002008000020204E0000E2
:102C700010B5A02000F08EF8002803D000F00EF967
:102C8000002010BD012010BDF8B515460C460646C3
:102C900000F0F0F8A02000F0C9F800F00DF90028CD
:102CA0000FD1E0B200F0C2F800F006F9002808D118
:102CB00000F0E0F8A12000F0B9F800F0FDF80028DD
:102CC00003D000F0EBF80020F8BD00246F1E0BE0ED
:102CD00000F090F83055BC4202D000F047F801E017
:102CE00000F076F8641CA4B2AC42F1D300F0D6F840
:102CF0000120F8BDF7B517460C46002530E0002D41
:102D000001D060071CD100F0C9F8002600F0B2F82D
:102D1000A02000F08BF800F0CFF8002805D0761C3A
:102D20007D20B6B2C0008642F0D37D20C00086422E
:102D30000ED0E0B200F07AF800F0BEF8002807D11B
:102D40000098405D00F072F800F0B6F8002803D05B
:102D500000F0A4F80020FEBD641C6D1CA4B2ADB24E
:102D6000BD42CCD300F09AF80120FEBDF8B5084D65
:102D700040242C8100F026F809278026FF06BE613A
:102D800000F020F82E8100F01DF8BC61F8BD0000B5
:102D90002000004810B509210446C906088A4006EB
:102DA0000ED5088A00060BD500F064F8204600F026
:102DB0003DF800F081F8044600F070F8204610BDA0
:102DC000012010BD0020401CC0B21E28FBD370475C
:102DD00070B509244020E406A061FFF7F3FF8025C9
:102DE000A561FFF7EFFF02480581FFF7EBFF70BD1C
:102DF00020000048F8B500240927FF062546802654
:102E00006006040EBE61FFF7DDFF388A400601D57B
:102E1000641CE4B204480681FFF7D4FF6D1CEDB2D8
:102E2000082DEDD32046F8BD20000048F8B5002459
:102E3000802709260546F606280602D54020B061FF
:102E400002E00B4940200881FFF7BCFFB761FFF7A4
:102E5000B9FF07480781072C01D14020B0616806FF
:102E6000050EFFF7AFFF641CE4B2082CE4D3F8BDF5
:102E70002000004870B540250920C00685618024E7
:102E80008461FFF79FFF044E3581FFF79BFF34817C
:102E9000FFF798FF70BD00002000004870B505489E
:102EA0004024048109258020ED06A861FFF78AFFF0
:102EB000AC6170BD2000004870B509244020E406D4
:102EC000A061FFF77FFF8025A561FFF77BFF208AC8
:102ED000400601D5012400E0002403480581FFF7E6
:102EE00071FF204670BD00002000004810B5FEF7BD
:102EF0003DFCFFF7F9F900F079F90A48FEF790FC7C
:102F0000FFF734FEFDF794FBFDF744FFFDF7EEFA03
:102F1000FF20F530401E00B20028FBDCFFF748FE22
:102F2000002010BD9C000020F8B5314C314DA07A36
:102F300068703148C079012802D1E079012855D064
:102F40002E48C079012851D02D482A4EC07900273B
:102F50000C3601284AD03FE0FDF7EEFF0A20205E44
:102F600069788842207A32D0202835D103216181C6
:102F700030781F2806D0202806D0212806D0222805
:102F800007D007E02F7005E0012000E00220287044
:102F900000E02970FEF746F8207A20281CD10A208C
:102FA000205E042815DB13486781E77104220A219B
:102FB0000C30FFF79FFE04221421B01CFFF79AFE8D
:102FC0000C4804221E210830FFF794FE04E020285C
:102FD00002D160890328DDD0E079012803D1A169FD
:102FE00020698842B8D2207A2128B5D0F8BD0000E7
:102FF000080500205800002048050020E8040020B3
:1030000028050020F8B5012409256402ED062146B3
:103010002846FDF7C9FD024621462846FDF7D8FDA2
:10302000194CE07901282DD11848C179012929D0FE
:103030000027174D174EFDF7ADF87D20C000FFF7B4
:1030400080FC19E002206968FFF77EF8207A2128C9
:1030500012D1E079012815D16089A0812020207249
:103060000D491F204F8108727781084930724F81C6
:1030700008722F70FDF70EFE207A2028E2D0E0794A
:103080000128D8D0F8BD0000E80400200805002081
:103090006C000020480500202805002030B5C2073C
:1030A0000121002A02D01F4A916102E01D4A20320C
:1030B00011811D491D4A1E4B840701D5916100E015
:1030C00019811C4C450701D5946100E01C811A4C04
:1030D000050701D5946100E01C81184C184A194B72
:1030E000C50601D5946100E01C81174C850601D509
:1030F000946100E01C81154C450601D5946100E007
:103100001C8105060824002D02DA114DAC6102E095
:103110000F4D20352C81C00501D5916130BD19813D
:1031200030BD000000140048008000000008004886
:1031300020080048004000000020000000040000BB
:1031400000000048200000480008000000100000B7
:103150000004004870B50446204DC00701D000228D
:1031600000E0012280212846FDF732FDA00701D5AD
:10317000002200E0012220212846FDF729FD184801
:10318000610701D5002200E001220221FDF720FDA8
:10319000200701D5002200E0012210212846FDF77A
:1031A00017FDE00601D5002200E00122402128465B
:1031B000FDF70EFD0B49A00601D5002200E001221B
:1031C0002846FDF705FD0849600601D5002200E00C
:1031D00001222846FDF7FCFC70BD000000040048F9
:1031E00000140048000100000002000010B5FFF7C5
:1031F00043FCFFF7BDFBFFF7FFFBFFF755FC10BDDE
:1032000001000200040008001000200040008000BF
:1032100000013F0030005B00790074006D006F001A
:1032200038007F007D007E0067000F0073004F00B4
:103230004E0040006300620023006D004700000064
:1032400007005E004E00760039000E00010002000B
:10325000040008001000200040008000FF00000073
:1032600037000000843200080000002090000000B9
:10327000522900081433000890000020D8080000EC
:1032800062290008000000000000000000000000AB
:1032900000000000000100000033000000000000FA
:1032A0000000E8030000000017000000000000001C
:1032B000E803000000000000000000000000000023
:1032C00000000000000000000001010101010101F7
:1032D00000000000000000000000000000000000EE
:1032E00000000000E80300001F000A0000000000CA
:1032F00000000000000000000000000000000000CE
:1033000000000000000000000102030401020304A9
:04331000060708099B
:04000005080000B13E
:00000001FF
